:020000040000FA
:060000000A128A11122809
:10000800FE00030E83120313B2000408B3000A08AB
:10001800B4007F08B5000A128A15BF2A0A128A118D
:1000280015280A168A11E0270A128A11D6000A161C
:100038008A11E1270A128A11D7000A168A11E227C3
:100048000A128A11D8000A168A11E3270A128A119D
:10005800D900831790308400B8300A168A11F8271F
:100068000A128A118313CD308400DE300A168A11F1
:10007800F8270A128A114230840056300A168A116B
:10008800F8270A128A1183010A128A150D2CFF001B
:1000980000308A007F0882075028512852280A1207
:1000A8008A1541280A128A154C280A128A155728D7
:1000B800FF0000308A007F08820761280A128A152B
:1000C800DD280A128A15632A831603132908803942
:1000D800FF007F08B3002908AE002E07FF007F0845
:1000E800B900A81F782879287A28391439080319FB
:1000F8007E287F288E28390A031D832884288C2887
:100108000030A9000030A8000030A7000030A60089
:10011800A81796280030A9000030A8000030A700D2
:100128000030A6002D088039FF007F08B3062D088F
:10013800AE002E07FF007F08B400AC1FA428A52836
:10014800A628341434080319AA28AB28BA28340A74
:10015800031DAF28B028B8280030AD000030AC002F
:100168000030AB000030AA00AC17C2280030AD0048
:100178000030AC000030AB000030AA00340803198E
:10018800C628C728CC283908031DCB28CC28D52851
:100198000030A9000030A8000030A7000030A600F9
:1001A800222C2608FF007F0883120313B60083164B
:1001B80003132C080A128A15E5210A128A118312E0
:1001C8000313370883160313BF008312031336087B
:1001D80083160313BE003E08AE00AF01B001B101A3
:1001E8003108B8003008B7002F08B6002E08B5004F
:1001F8003F08AE00AF01B001B1013108BD003008C1
:10020800BC002F08BB002E08BA002708FF007F0893
:1002180083120313B600831603132B080A128A15D8
:10022800E5210A128A118312031337088316031370
:10023800BF0083120313360883160313BE003E085B
:10024800AE00AF01B001B1012E08B5072F080311A8
:100258000318013E03193129B607300803110318A2
:10026800013E03193829B707310803110318013E65
:1002780003193F29B8073F08AE00AF01B001B1012B
:100288002E08BA072F0803110318013E03194D2938
:10029800BB07300803110318013E03195429BC0792
:1002A800310803110318013E03195B29BD0728080B
:1002B800FF007F0883120313B600831603132A086E
:1002C8000A128A15E5210A128A11831203133708C4
:1002D80083160313BF008312031336088316031310
:1002E800BE003E08AE00AF01B001B1012E08B5074F
:1002F8002F0803110318013E03198329B607300894
:1003080003110318013E03198A29B707310803119D
:100318000318013E03199129B8073F08AE00AF0141
:10032800B001B1012E08BA072F0803110318013EC6
:1003380003199F29BB07300803110318013E03194D
:10034800A629BC07310803110318013E0319AD297A
:10035800BD070830AE000310B50DB60DB70DB80DCA
:10036800AE0BAF292708FF007F0883120313B600DE
:10037800831603132A080A128A15E5210A128A111C
:1003880083120313370883160313BF008312031362
:10039800360883160313BE003E08AE003F08AF00C0
:1003A800B001B1012E08B5072F0803110318013E4B
:1003B8000319DF29B607300803110318013E031992
:1003C800E629B707310803110318013E0319ED297F
:1003D800B8072608FF007F0883120313B6008316A8
:1003E80003132B080A128A15E5210A128A118312AF
:1003F8000313370883160313BF0083120313360849
:1004080083160313BE003E08AE003F08AF00B001DC
:10041800B1012E08B5072F0803110318013E03196F
:10042800162AB607300803110318013E03191D2ABE
:10043800B707310803110318013E0319242AB80726
:100448000830AE000310B50DB60DB70DB80DAE0BE4
:10045800262A2608FF007F0883120313B600831696
:1004680003132A080A128A15E5210A128A1183122F
:100478000313370883160313BF00831203133608C8
:1004880083160313BE003E08AE003F08AF00B0015C
:10049800B1012E08B5072F0803110318013E0319EF
:1004A800562AB607300803110318013E03195D2ABE
:1004B800B707310803110318013E0319642AB80766
:1004C8002708FF007F0883120313B600831603135F
:1004D8002C080A128A15E5210A128A1183120313BD
:1004E800370883160313BF008312031336088316D5
:1004F8000313BE003E08AE003F08AF00B001B101D3
:100508002E08BA072F0803110318013E03198D2A74
:10051800BB07300803110318013E0319942ABC07CE
:10052800310803110318013E03199B2ABD07280847
:10053800FF007F0883120313B600831603132B08EA
:100548000A128A15E5210A128A1183120313370841
:1005580083160313BF00831203133608831603138D
:10056800BE003E08AE003F08AF00B001B1012E0842
:10057800BA072F0803110318013E0319C42ABB0741
:10058800300803110318013E0319CB2ABC073108B0
:1005980003110318013E0319D22ABD072808FF00DA
:1005A8007F0883120313B600831603132C080A125C
:1005B8008A15E5210A128A11831203133708831654
:1005C8000313BF0083120313360883160313BE00F8
:1005D8003E08AE003F08AF00B001B101083003107B
:1005E800AE0DAF0DB00DB10DFF3E031DF32A2E0861
:1005F800BA072F0803110318013E0319042BBB0780
:10060800300803110318013E03190B2BBC073108EE
:1006180003110318013E0319122BBD073508AE005C
:100628003608AF003708B0003808B100183003109A
:10063800B10CB00CAF0CAE0CFF3E031D1B2B2E08EB
:10064800BA072F0803110318013E03192C2BBB0707
:10065800300803110318013E0319332BBC07310876
:1006680003110318013E03193A2BBD070830AE00E9
:100678000310B50DB60DB70DB80DAE0B3C2B3908F0
:100688003407AE00AF01AF0D2E08823EBE002F0822
:100698000318013EFF3EBF006E2B0130AE00031071
:1006A800BA0DBB0DBC0DBD0DAE0B532BB81F5D2B8A
:1006B8005E2B5F2B3A140130AE000310B50DB60D5A
:1006C800B70DB80DAE0B612BFF30BE070318BF0A7C
:1006D800FF30BF07BC1F712B722B512BB401B81F01
:1006E800762B772B932BFF303505AE00FF30360580
:1006F800AF00FF303705B0007F303805B100310852
:1007080030042F042E0403198A2B8B2B8E2BB40153
:10071800B40A932B3A1C912B922B932B8B2B3408D6
:100728000319972B982BC92B0130BA0700300318EF
:100738000130BB07003003180130BC070030031834
:100748000130BD073D1CA92BAA2BC92B3A08AE00C6
:100758003B08AF003C08B0003D08B1000130B200D2
:10076800310DB10CB00CAF0CAE0CB20BB42B310880
:10077800BD003008BC002F08BB002E08BA000130AD
:10078800BE070318BF0A0030BF073F08803AFF00C2
:1007980080307F02031DD22BFF303E02031CD52B75
:1007A800D62BE12B7F3083160313BD008030BC00AD
:1007B8000030BB000030BA00162C831603133F0824
:1007C800803AFF0080307F02031DEC2B01303E028F
:1007D8000318EF2BF02BFC2B003083160313BD00FE
:1007E8000030BC000030BB000030BA00B301162C4A
:1007F800831603133E08FF007F08B900FF30BA05CF
:10080800FF30BB057F30BC050030BD05391C0D2C01
:100818000E2C0F2CBC173908AE0003102E0CFF004D
:100828007F08BD003308FF007F08BD043D08A9000C
:100838003C08A8003B08A7003A08A6000800831651
:100848000313A000200803192A2C2B2C4F2C8312E9
:100858000313B91F302C312C4F2C36098316031380
:10086800A20083120313370983160313A30083120C
:100878000313380983160313A400831203133909D9
:1008880083160313A500A20A0319A30A0319A40ACD
:100898000319A50A662C8312390883160313A500C9
:1008A80083120313380883160313A4008312031357
:1008B800370883160313A30083120313360883161D
:1008C8000313A200831203133908380437043604CB
:1008D800031D6F2C702C792C0030B9000030B80043
:1008E8000030B7000030B6002D2D9630FF007F088D
:1008F80083160313A1008D2C0130FF007F08A10788
:1009080001300310A50CA40CA30CA20CFF3E031D80
:10091800852CFE302505031D922C932C802CAF2CA2
:100928000130FF007F08A1070130A207003003183B
:100938000130A307003003180130A4070030031862
:100948000130A50701300310A50CA40CA30CA20CC0
:10095800FF3E031DA72CFF302505031DB42CB52C25
:10096800942CC72C0130A102013083120313BA0062
:10097800031083160313A20DA30DA40DA50D831256
:100988000313BA0BBC2C83160313A41BCC2CCD2C3D
:10099800D32C023021020318D22CD32CB62C2118C8
:1009A800D62CD72CDF2CFF30A205FF30A3057F30D3
:1009B800A405FF30A5050310A10C21088312031319
:1009C800BA00BB01BC01BD0118300310BA0DBB0D44
:1009D800BC0DBD0DFF3E031DE92C3A088316031319
:1009E800A204831203133B0883160313A304831280
:1009F80003133C0883160313A404831203133D084E
:100A080083160313A504200803190B2D0C2D152D8F
:100A180083120313B91F112D122D152D83160313DD
:100A2800A51783160313250883120313B900831629
:100A38000313240883120313B8008316031323082F
:100A480083120313B70083160313220883120313B8
:100A5800B600080083120313C00000308316031386
:100A6800D4000030D3000030D2000030D10083120F
:100A78000313400883160313A500A601A701A801C4
:100A880083120313580883160313A90001300310B7
:100A9800A90DFF3E031D4B2D0310290D903E840028
:100AA800250883178000840A26088000840A2708FE
:100AB8008000840A280880000A3083120313B600D5
:100AC8000030B7005808013EB80000300318013064
:100AD800B9000A128A15D1230A128A118312031344
:100AE8003608FF007F08D800C101410883160313A8
:100AF800A50001300310A50DFF3E031D7E2D031038
:100B0800250D903E840083170008D107840A000849
:100B18000318000F902D912DD207840A000803189E
:100B2800000F972D982DD307840A00080318000F8B
:100B38009E2D9F2DD4070130FF007F0883120313D9
:100B4800C1070A304102031CAA2DAB2D792D0030B4
:100B5800B9000030B8000030B7000A30B60083167C
:100B68000313540883120313BD0083160313530899
:100B780083120313BC008316031352088312031352
:100B8800BB0083160313510883120313BA000A1219
:100B98008A1576270A128A11831203133608FF0072
:100BA8003F0884007F088313800008008312031322
:100BB8000608B6000310360C0139FF004908D53E77
:100BC80084007F08831380000608B60002300310F3
:100BD800B60CFF3E031DEB2D36080139FF0049080E
:100BE800D83E84007F0880000130FF007F08C907D5
:100BF80003304906031D012E022E762E8316031399
:100C08005808031D082E092E3B2E5908031D0D2ECA
:100C18000E2E3B2E5A08031D122E132E3B2E023089
:100C2800831203135406031D1A2E1B2E322E4A1448
:100C38004A181F2E232E831203134A14262E8312BA
:100C480003134A1083160313D801D80AD901D90A05
:100C5800DA01DA0A83120313CA103B2E5403031D68
:100C6800362E372E3B2E0230FF007F08D400831625
:100C780003135508031D412E422E742E5608031DDA
:100C8800462E472E742E5708031D4B2E4C2E742EBD
:100C98000230831203135406031D532E542E6B2E59
:100CA800CA14CA18582E5C2E83120313CA145F2E56
:100CB80083120313CA1083160313D501D50AD6016C
:100CC800D60AD701D70A831203134A10742E540385
:100CD800031D6F2E702E742E0230FF007F08D40083
:100CE8008312C9010800031083160313420D430D34
:100CF800FF007F0883120313C0004008031D852EE0
:100D0800862E912E003083160313C3000030C200D4
:100D18000030C1000030C000082F831603134008BC
:100D2800C4004108C5004208C6004308C7001F3078
:100D38000310C70CC60CC50CC40CFF3E031D9C2E2B
:100D48004408FF007F0883120313BF0083160313B0
:100D5800C217FF30C005FF30C105FF30C2050030A3
:100D6800C305963083120313C002C01FBC2EBD2ECC
:100D7800DB2E4008803A973E0318C32EC42EC52E9A
:100D8800862E0130031083160313C30CC20CC10C4A
:100D9800C00CFF3E031DC62E0130FF007F088312E2
:100DA8000313C007031DD92EDA2EC52EF62E2030C8
:100DB8004002031CE02EE12EF12E862E0130831610
:100DC8000313C4000310C00DC10DC20DC30DC40B25
:100DD800E62E013083120313C0024008031DF52ECE
:100DE800F62EE22E3F080319FA2EFB2E082F831643
:100DF8000313C009C109C209C309C00A0319C10AFA
:100E08000319C20A0319C30A0800831203135008FE
:100E180083160313C800C901CA01CB014B0883120A
:100E28000313B900831603134A0883120313B80087
:100E380083160313490883120313B7008316031399
:100E4800480883120313B60001300A128A112324BA
:100E58000A128A1183120313390883160313AD008B
:100E680083120313380883160313AC008312031389
:100E7800370883160313AB0083120313360883164F
:100E88000313AA003E30A900F930A800F530A700E6
:100E98005A30A6000A128A1168200A128A1183168B
:100EA80003132908C3002808C2002708C100260820
:100EB800C0000A128A1177260A128A1183160313B0
:100EC8004008FF007F0883120313CE004F30FF0055
:100ED8007F08BF004E080A128A112E250A128A11AD
:100EE8000A3083120313B6000030B7005308013EDE
:100EF800B800003003180130B9000A128A15D1234E
:100F08000A128A11831203133608FF007F08D300E0
:100F180009305306031D912F922F932F5214080066
:100F280083120313BB01B71F9A2F9B2FA22FB60959
:100F3800B709B60A0319B70ABB01BB0AB91FA52F1F
:100F4800A62FAF2FB809B909B80A0319B90A013091
:100F5800FF007F08BB06BC01BD0136083704031932
:100F6800B62FB72FEE2FBA01BA0AC52F01300310DA
:100F7800B60DB70DFF3E031DBB2F0130FF007F08E4
:100F8800BA07B71FC82FC92FBA2F01300310BC0DDD
:100F9800BD0DFF3E031DCA2F37083902031DD62F8A
:100FA80036083802031CD92FDA2FE12F3608B80289
:100FB8003708031CB903B9023C1401300310B70CFD
:100FC800B60CFF3E031DE22F0130BA02031DED2FC0
:100FD800EE2FC92F3B080319F22FF32FF82FBC0966
:100FE800BD09BC0A0319BD0A3D08B7003C08B60094
:020FF8000800EF
:1010000008308A000408840A820700340634143445
:1010100000340034003409346434003400340034C3
:0E1020000334F4340134003400340134043459
:10103200831203134D1C1E281F2821281F15CD14AF
:1010420008008316031391161116111A29282A284B
:101052002628080083160313111411183128322888
:101062002E28831203138C11080083160313111503
:1010720011193C283D283928831203138C110800CA
:101082000A128A154C240A128A150A128A15232179
:101092000A128A1508000A128A11DA250A128A151A
:1010A2000A128A152E250A128A1508000A128A15B2
:1010B200B5200A128A150A128A15A8260A128A155A
:1010C200080083120313CB01DF30FF007F0887057E
:1010D200FB30FF007F0887050800133083160313D7
:1010E2009300831203131410941014119415941680
:1010F2000800DF30FF007F08831203138505EF30FD
:10110200FF007F08850588010800831603139115E7
:10111200141C8C288D288928831203131308FF00BE
:101122007F08B60036080800003083120313B600A9
:10113200B7000330B8000030B900DB300A128A155C
:1011420074210A128A150800831603138112811171
:101152000114811401158B160B178B17643083123F
:10116200031381000B110800831203135403031DA0
:10117200BB28BC28C22850300A128A150B210A1239
:101182008A150A128A1109270A128A150800F20022
:10119200F101721CCD28CE28D2287008FF007F08EA
:1011A200F1070310F00D0310F20C7208031DDA2888
:1011B200DB28CA2871080800023083120313540680
:1011C2000319E428E528EA285403031DE928EA283C
:1011D200EC28D401F3285408031DF028F128F32841
:1011E200D401D40A080083120313B800B701381CD3
:1011F200FB28FC2800293608FF007F08B7070310E8
:10120200B60D0310B80C3808031D08290929F8285F
:101212003708080083120313B600CD1C11291229C6
:1012220022291F19152916292229831603131E089C
:10123200FF0083120313360884007F0883138000A3
:101242001F15080083120313D21C282929293A29C1
:101252005108FF007F08C7000A30FF007F08B7006F
:1012620047080A128A15F1220A128A1583120313F9
:10127200D2100800831603139F17831203131F173C
:101282009F13831603131F17831203139F111F1635
:101292009F12831603131F109F141F119F11831295
:1012A20003131F141F114D140800DF30FF007F08C5
:1012B200831603138705FB30FF007F088705EF3095
:1012C200FF007F088605DF30FF007F088505EF30CD
:1012D200FF007F0885058614061506140515871577
:1012E20007168801080083120313BB003B08FF00A6
:1012F2007F08BA0087293608FF003A0884007F0871
:10130200831380000130FF007F08BA070130B80262
:101312000030031CB903B902380A031D9429390AA3
:10132200031D942995297C29080083120313BA010D
:10133200BB01361C9D299E29A4293808BA07031827
:10134200BB0A3908BB0701300310B80DB90DFF3EC7
:10135200031DA52901300310B70CB60CFF3E031D77
:10136200AC2936083704031DB729B8299A293B0846
:10137200B7003A08B6000800CF29E830BC000330B5
:10138200BD000A128A150E220A128A15E4290616CF
:10139200E429EF30FF007F088605E4298312031356
:1013A2004B08C000C1014108003A0319D929E429B8
:1013B2004008003A0319CA29013A0319C829033A15
:1013C2000319BE29E429080083120313BE00BA01DF
:1013D200BB013608B800B9013808BC003908BD00A5
:1013E2003E1CF429F529FB293C08BA070318BB0A5D
:1013F2003D08BB0701300310BC0DBD0DFF3E031DB0
:10140200FC290310BE0C3E08031D082A092AF129F3
:101412003B08B7003A08B6000800831203135908C4
:10142200BE00BF013E08B6003F08B7006430B800F6
:101432000030B9000A128A1596210A128A158312FF
:1014420003133D083706031D282A3C083606031DF0
:101452002B2A2C2A332A1030FF007F088606D90156
:10146200D90A372A0130FF007F08D9070800831202
:1014720003135508BE00BF013E08B6003F08B7007F
:10148200F430B8000130B9000A128A1596210A1206
:101492008A15831203133D083706031D522A3C089E
:1014A2003606031D552A562A5E2AD214D401D40ABE
:1014B200D501D50A4A10CA10622A0130FF007F08FE
:1014C200D5070800013083160313CD070030031837
:1014D2000130CE07003003180130CF070030031867
:1014E2000130D007500883120313B0008316031390
:1014F2004F0883120313AF00831603134E0883129F
:101502000313AE00831603134D0883120313AD00B9
:101512000A128A1542260A128A1508008312031338
:101522005403031D952A962A9D2A4E08FF007F0820
:10153200C400CC01CC0ABE2A02305406031DA22AE2
:10154200A32AB12A5108FF007F08C400E830BC007A
:101552000330BD000A128A1596230A128A15BE2A82
:101562005408031DB52AB62ABE2ADF30FF007F08C1
:101572008505EF30FF007F08850508008B1CC22A15
:10158200C32AD12A8B10103084000A128A15002037
:101592000A128A150A128A115C200A128A15E42A92
:1015A2000B1DD42AD52AE42A0B1164308100113094
:1015B20084000A128A1500200A128A150A128A1158
:1015C2005C200A128A15831203133508FF003408BF
:1015D2008A0033088400320E8300FE0E7E0E09005C
:1015E20083120313B8000A128A152B200A128A15D5
:1015F200A0300A168A11E4270A128A150A168A11DD
:10160200F0270A128A158312031337080A168A1161
:10161200E4270A128A150A168A11F0270A128A1575
:101622008312031338080A168A11E4270A128A154C
:101632000A168A11F0270A128A150A128A1536200A
:101642000A128A1508000A300A128A1590240A1210
:101652008A15FF007F0883120313C7004C3047022C
:101662000318342B352B582B23304702031C3A2BFB
:101672003B2B582B0530B6000030B7004708BC00A2
:10168200BD013C08B8003D08B9000A128A15872539
:101692000A128A158312031336083704031D522BCC
:1016A200532B582B4708FF007F08D1005C2B3C309E
:1016B200FF007F08D100080083160313CC014C08F9
:1016C200DB3E840083130003031D682B692B8A2BE6
:1016D2000530FF007F0883120313B600831603133D
:1016E2004C080A128A15F4200A128A15013E840057
:1016F2000A128A1500200A128A150A128A114B2030
:101702000A128A15831603134C08DB3E84008313E6
:1017120080010130FF007F08CC0703304C02031C1C
:10172200932B942B602B5D2B080083120313570815
:10173200BE00BF013E08B6003F08B7001430B80033
:101742000030B9000A128A1596210A128A158312EC
:1017520003133D083706031DB02B3C083606031D54
:10176200B32BB42BCC2B4C03031DB82BB92BC32B9F
:10177200CC01DF30FF007F088505EF30FF007F08D6
:101782008505CA2B4C08031DC72BC82BCA2BCC01BD
:10179200CC0AD701D70A0130FF007F08D70708001B
:1017A20083120313360837040319D82BD92B082CBC
:1017B200BA01BA0AE72B01300310B60DB70DFF3E8E
:1017C200031DDD2B0130FF007F08BA07B71FEA2B8C
:1017D200EB2BDC2B37083902031DF12B36083802BC
:1017E200031CF42BF52BFB2B3608B8023708031C1D
:1017F200B903B90201300310B70CB60CFF3E031D4A
:10180200FC2B0130BA02031D072C082CEB2B3908E4
:10181200B7003808B60008000A128A1556210A12C3
:101822008A150A128A156E200A128A150A128A1558
:101832003B210A128A150A168A11EA270A128A1508
:101842000A128A157A200A128A150A128A15622049
:101852000A128A150A168A11DC270A128A150A1236
:101862008A1524230A128A150A128A1519200A12C5
:101872008A150A128A1595200A128A150A128A15E1
:10188200A5200A128A150A128A155D230A128A15E0
:101892000A128A1112280230831203135406031DFE
:1018A200532C542C8F2C8830BC001330BD000A12EC
:1018B2008A1538220A128A15831203134A1C622CD3
:1018C200632C7A2CCA18662C672C7A2C4B30510662
:1018D20003196C2C6D2C7A2C0530FF007F08D10780
:1018E200D501D50A4A10CA10CC01CC0AD701D70AB1
:1018F2008F2CCA1C7D2C7E2C8F2C4A18812C822C7A
:101902008F2C233051060319872C882C8F2C0530FD
:10191200D102D501D50ACA104A10752C08008312CB
:101922000313B7000A128A152B200A128A15A03057
:101932000A168A11E4270A128A150A168A11F02752
:101942000A128A158312031337080A168A11E4272A
:101952000A128A150A168A11F0270A128A150A1221
:101962008A152B200A128A15A1300A168A11E42739
:101972000A128A150A168A11F0270A128A150A1201
:101982008A1586200A128A15FF007F088312031324
:10199200C6000A128A1522200A128A150A128A150C
:1019A20036200A128A15831203134608080083128E
:1019B200031328082704260425040319E12CE22C2A
:1019C200252DFD01FD0AF22C0130FC000310A50DAE
:1019D200A60DA70DA80DFC0BE72C0130FF007F0818
:1019E200FD07A81FF52CF62CE52C28082C02031D58
:1019F200042D27082B02031D042D26082A02031D8D
:101A0200042D25082902031C072D082D162D250853
:101A1200A9022608031C260FAA022708031C270F67
:101A2200AB022808031C280FAC0201300310A80CDB
:101A3200A70CA60CA50CFF3E031D172D0130FD02BD
:101A4200031D242D252DF62C2C08A8002B08A700F9
:101A52002A08A6002908A50008000A128A158F2262
:101A62000A128A150A128A15E2250A128A15592DB6
:101A72003F308800862D06308800862D5B30880036
:101A8200862D4F308800862D66308800862D6D3079
:101A92008800862D7D308800862D07308800862DAF
:101AA2007F308800862D6F308800862D8801862D34
:101AB200831203134508C000C1014108003A03190B
:101AC200632D862D4008003A0319392D013A031976
:101AD2003C2D033A03193F2D013A0319422D073ACF
:101AE2000319452D013A0319482D033A03194B2DC9
:101AF200013A03194E2D0F3A0319512D013A0319D8
:101B0200542D033A0319572D862D0800831203130F
:101B1200BB01B91F8D2D8E2D952DB809B909B80AB3
:101B22000319B90ABB01BB0AB71F982D992D9E2D27
:101B3200B609B709B60A0319B70A360837040319F2
:101B4200A32DA42DD32DBA01BA0AB22D0130031050
:101B5200B60DB70DFF3E031DA82D0130FF007F0813
:101B6200BA07B71FB52DB62DA72D37083902031DA9
:101B7200BC2D36083802031CBF2DC02DC62D3608D9
:101B8200B8023708031CB903B90201300310B70CBD
:101B9200B60CFF3E031DC72D0130BA02031DD22D24
:101BA200D32DB62D3B080319D72DD82DDD2DB8091D
:101BB200B909B80A0319B90A3908B7003808B600D2
:101BC20008008312031354080319E82DE92D3D2E52
:101BD2004C03031DED2DEE2D412E0A30B6000030D0
:101BE200B7004408BE00BF013E08B8003F08B90074
:101BF2000A128A1587250A128A15831203133608D8
:101C0200FF007F08C3000A30B6000030B700440866
:101C1200BE00BF013E08B8003F08B9000A128A118F
:101C220094270A128A15831203133608FF007F08CD
:101C3200C2000130FF007F08D6065608031D222E7F
:101C4200232E2D2E4308FF007F08C500EF30FF0032
:101C52007F0885058516412E5603031D312E322E2F
:101C62003C2E4208FF007F08C500DF30FF007F08DE
:101C720085050516412E412E0A30FF007F08C5005A
:101C8200080083120313B1010030F6000030F500A2
:101C92000030F4001430F3000530FF007F08F0003C
:101CA20031080A128A15C8200A128A15023E8400D7
:101CB2000A128A1500200A128A15F7000A128A15DA
:101CC20000200A128A15F8000A128A1500200A1248
:101CD2008A15F9000A128A1500200A128A15FA00DA
:101CE2000A128A150E270A128A157608831203131E
:101CF200A8007508A7007408A6007308A50030089C
:101D0200AC002F08AB002E08AA002D08A9000A1269
:101D12008A15D8240A128A15831203132808270465
:101D220026042504031D962E972E9D2E3108DB3E98
:101D3200840083138001800A0130FF007F08B1070D
:101D420003303102031CA62EA72E452E0800831253
:101D52000313521CAD2EAE2EFF2E5403031DB22EC2
:101D6200B32EFF2E5108FB3E83160313A000FF3053
:101D720003180030A100831203134F0883160313C4
:101D8200A200A30121082302031DC92E200822025A
:101D92000318CC2ECD2ED92EFB30FF007F088312E4
:101DA2000313870587160230FF007F08CB00082F38
:101DB200831203134F0883160313A000A101831299
:101DC20003135108053E83160313A20000300318C3
:101DD2000130A30021082302031DF12E2008220254
:101DE2000318F42EF52E082FDF30FF007F08831230
:101DF200031387050715CB01CB0A082FFB30FF0021
:101E02007F088705DF30FF007F088705CB010A12B4
:101E12008A15BD210A128A150800003083120313A5
:101E2200A3000030A2000030A1000030A00076081C
:101E320075047404730403191F2F202F6D2FA4013E
:101E4200A40A302F0130FB000310F30DF40DF50D41
:101E5200F60DFB0B252F0130FF007F08A407F61FAC
:101E6200332F342F232F0130FB000310A00DA10DBF
:101E7200A20DA30DFB0B362F76087A02031D4B2F02
:101E820075087902031D4B2F74087802031D4B2F2E
:101E920073087702031C4E2F4F2F5E2F7308F70231
:101EA2007408031C740FF8027508031C750FF902FD
:101EB2007608031C760FFA02201401300310F60C88
:101EC200F50CF40CF30CFF3E031D5F2F0130A4024E
:101ED200031D6C2F6D2F342F2308F6002208F50006
:101EE2002108F4002008F3000800003083160313D1
:101EF200A3000030A2000030A1000030A000831235
:101F0200031339083804370436040319892F8A2F3A
:101F1200E72F83160313A401A40A9E2F0130BE00EB
:101F22000310B60DB70DB80DB90DBE0B912F0130D0
:101F3200FF007F0883160313A40783120313B91F3C
:101F4200A32FA42F8F2F01308312BE0003108316FC
:101F52000313A00DA10DA20DA30D83120313BE0B3B
:101F6200A72F39083D02031DC02F38083C02031D6C
:101F7200C02F37083B02031DC02F36083A02031C4C
:101F8200C32FC42FD52F3608BA023708031C370FC8
:101F9200BB023808031C380FBC023908031C390F76
:101FA200BD02831603132014013003108312B90CEF
:101FB200B80CB70CB60CFF3E031DD62F01308316AA
:101FC2000313A402031DE62FE72FA42F8316031386
:101FD200230883120313B900831603132208831202
:101FE2000313B80083160313210883120313B700E7
:0E1FF20083160313200883120313B6000800A1
:102FB80083120313D4010800013401340A340134A4
:102FC80083120313B6003608930008000B16831605
:102FD800031301178B100800831203138C1DF52FA0
:102FE800F62FF02F8C11080064008001840A040673
:082FF800031900340406F92F4F
:02400E003A3F37
:00000001FF
