:020000040000FA
:060000000A128A11122809
:10000800FE00030E83120313B2000408B3000A08AB
:10001800B4007F08B5000A128A157E290A128A11CF
:1000280015280A168A11DA270A128A11D6000A1622
:100038008A11DB270A128A11D7000A168A11DC27CF
:100048000A128A11D8000A168A11DD270A128A11A3
:10005800D9008313A0308400CF300A128A151520E6
:100068000A128A114230840056300A128A15152065
:100078000A128A1183010A128A15172BFF00003011
:100088008A007F08820747280A128A155F280A1201
:100098008A151D280A128A1528288316031358085A
:1000A8008039FF007F08E2005808DD005D07FF0087
:1000B8007F08E800D71F6128622863286814680849
:1000C8000319672868287728680A031D6C286D2893
:1000D80075280030D8000030D7000030D600003036
:1000E800D500D7177F280030D8000030D70000305F
:1000F800D6000030D5005C088039FF007F08E20692
:100108005C08DD005D07FF007F08E300DB1F8D282A
:100118008E288F2863146308031993289428A3282A
:10012800630A031D98289928A1280030DC000030B4
:10013800DB000030DA000030D900DB17AB280030D4
:10014800DC000030DB000030DA000030D900630842
:100158000319AF28B028B5286808031DB428B528A6
:10016800BE280030D8000030D7000030D60000305C
:10017800D5000B2C5508FF007F0883120313B60027
:10018800831603135B080A128A15C9210A128A11F9
:1001980083120313370883160313EE008312031325
:1001A800360883160313ED006D08DD00DE01DF015C
:1001B800E0016008E7005F08E6005E08E5005D080A
:1001C800E4006E08DD00DE01DF01E0016008EC00FC
:1001D8005F08EB005E08EA005D08E9005608FF00CA
:1001E8007F0883120313B600831603135A080A12F2
:1001F8008A15C9210A128A11831203133708831634
:100208000313EE0083120313360883160313ED005D
:100218006D08DD00DE01DF01E0015D08E4075E082E
:1002280003110318013E03191A29E5075F08031192
:100238000318013E03192129E60760080311031872
:10024800013E03192829E7076E08DD00DE01DF01FA
:10025800E0015D08E9075E0803110318013E031970
:100268003629EA075F0803110318013E03193D29DF
:10027800EB07600803110318013E03194429EC0732
:100288005708FF007F0883120313B6008316031371
:1002980059080A128A15C9210A128A1183120313EE
:1002A800370883160313EE008312031336088316E8
:1002B8000313ED006D08DD00DE01DF01E0015D08DC
:1002C800E4075E0803110318013E03196C29E507CA
:1002D8005F0803110318013E03197329E607600834
:1002E80003110318013E03197A29E7076E08DD0098
:1002F800DE01DF01E0015D08E9075E08031103186C
:10030800013E03198829EA075F0803110318013E13
:1003180003198F29EB07600803110318013E03191D
:100328009629EC070830DD000310E40DE50DE60D15
:10033800E70DDD0B98295608FF007F088312031389
:10034800B6008316031359080A128A15C9210A121E
:100358008A1183120313370883160313EE008312DE
:100368000313360883160313ED006D08DD006E08CD
:10037800DE00DF01E0015D08E4075E0803110318F1
:10038800013E0319C829E5075F0803110318013E58
:100398000319CF29E607600803110318013E031962
:1003A800D629E7075508FF007F0883120313B60014
:1003B800831603135A080A128A15C9210A128A11C8
:1003C80083120313370883160313EE0083120313F3
:1003D800360883160313ED006D08DD006E08DE0095
:1003E800DF01E0015D08E4075E0803110318013E20
:1003F8000319FF29E5075F0803110318013E0319D4
:10040800062AE607600803110318013E03190D2A9E
:10041800E7070830DD000310E40DE50DE60DE70DF4
:10042800DD0B0F2A5508FF007F0883120313B6005F
:100438008316031359080A128A15C9210A128A1148
:1004480083120313370883160313EE008312031372
:10045800360883160313ED006D08DD006E08DE0014
:10046800DF01E0015D08E4075E0803110318013E9F
:1004780003193F2AE5075F0803110318013E031912
:10048800462AE607600803110318013E03194D2A9E
:10049800E7075608FF007F0883120313B600831688
:1004A80003135B080A128A15C9210A128A118312DA
:1004B8000313370883160313EE0083120313360859
:1004C80083160313ED006D08DD006E08DE00DF0102
:1004D800E0015D08E9075E0803110318013E0319EE
:1004E800762AEA075F0803110318013E03197D2ADB
:1004F800EB07600803110318013E0319842AEC076F
:100508005708FF007F0883120313B60083160313EE
:100518005A080A128A15C9210A128A11831203136A
:10052800370883160313EE00831203133608831665
:100538000313ED006D08DD006E08DE00DF01E00149
:100548005D08E9075E0803110318013E0319AD2A87
:10055800EA075F0803110318013E0319B42AEB07E1
:10056800600803110318013E0319BB2AEC0757085A
:10057800FF007F0883120313B600831603135B087A
:100588000A128A15C9210A128A118312031337081D
:1005980083160313EE00831203133608831603131E
:1005A800ED006D08DD006E08DE00DF01E0010830B7
:1005B8000310DD0DDE0DDF0DE00DFF3E031DDC2A0F
:1005C8005D08E9075E0803110318013E0319ED2AC7
:1005D800EA075F0803110318013E0319F42AEB0721
:1005E800600803110318013E0319FB2AEC0764088D
:1005F800DD006508DE006608DF006708E0001830E7
:100608000310E00CDF0CDE0CDD0CFF3E031D042B99
:100618005D08E9075E0803110318013E0319152B4D
:10062800EA075F0803110318013E03191C2BEB07A7
:10063800600803110318013E0319232BEC07083047
:10064800DD000310E40DE50DE60DE70DDD0B252BB0
:1006580068086307DD00DE01DE0D5D08823EED00FF
:100668005E080318013EFF3EEE00572B0130DD0007
:100678000310E90DEA0DEB0DEC0DDD0B3C2BE71F2C
:10068800462B472B482B69140130DD000310E40D7D
:10069800E50DE60DE70DDD0B4A2BFF30ED070318DE
:1006A800EE0AFF30EE07EB1F5A2B5B2B3A2BE301C8
:1006B800E71F5F2B602B7C2BFF306405DD00FF30CC
:1006C8006505DE00FF306605DF007F306705E00066
:1006D80060085F045E045D040319732B742B772B89
:1006E800E301E30A7C2B691C7A2B7B2B7C2B742B74
:1006F80063080319802B812BB22B0130E9070030E6
:1007080003180130EA07003003180130EB07003006
:1007180003180130EC076C1C922B932BB22B690841
:10072800DD006A08DE006B08DF006C08E0000130BD
:10073800E100600DE00CDF0CDE0CDD0CE10B9D2B05
:100748006008EC005F08EB005E08EA005D08E9005D
:100758000130ED070318EE0A0030EE076E08803A04
:10076800FF0080307F02031DBB2BFF306D02031C8E
:10077800BE2BBF2BCA2B7F3083160313EC008030AF
:10078800EB000030EA000030E900FF2B831603136A
:100798006E08803AFF0080307F02031DD52B0130A0
:1007A8006D020318D82BD92BE52B003083160313C1
:1007B800EC000030EB000030EA000030E900E20114
:1007C800FF2B831603136D08FF007F08E800FF3036
:1007D800E905FF30EA057F30EB050030EC05681CC1
:1007E800F62BF72BF82BEB176808DD0003105D0CD0
:1007F800FF007F08EC006208FF007F08EC046C082B
:10080800D8006B08D7006A08D6006908D500080028
:1008180083160313CF004F080319132C142C382CFC
:1008280083120313B91F192C1A2C382C3609831676
:100838000313D10083120313370983160313D2005D
:1008480083120313380983160313D3008312031387
:10085800390983160313D400D10A0319D20A0319DC
:10086800D30A0319D40A4F2C8312390883160313A9
:10087800D40083120313380883160313D30083129A
:100888000313370883160313D200831203133608A1
:1008980083160313D100831203133908380437046D
:1008A8003604031D582C592C622C0030B900003036
:1008B800B8000030B7000030B600162D9630FF00A3
:1008C8007F0883160313D000762C0130FF007F08C1
:1008D800D00701300310D40CD30CD20CD10CFF3E3E
:1008E800031D6E2CFE305405031D7B2C7C2C692CBB
:1008F800982C0130FF007F08D0070130D107003065
:1009080003180130D207003003180130D307003034
:1009180003180130D40701300310D40CD30CD20CC7
:10092800D10CFF3E031D902CFF305405031D9D2C58
:100938009E2C7D2CB02C0130D00201308312031381
:10094800BA00031083160313D10DD20DD30DD40DA5
:1009580083120313BA0BA52C83160313D31BB52CD0
:10096800B62CBC2C023050020318BB2CBC2C9F2C7C
:100978005018BF2CC02CC82CFF30D105FF30D20531
:100988007F30D305FF30D4050310D00C50088312F4
:100998000313BA00BB01BC01BD0118300310BA0D26
:1009A800BB0DBC0DBD0DFF3E031DD22C3A088316AE
:1009B8000313D104831203133B0883160313D204D1
:1009C800831203133C0883160313D30483120313FF
:1009D8003D0883160313D4044F080319F42CF52C8F
:1009E800FE2C83120313B91FFA2CFB2CFE2C831642
:1009F8000313D41783160313540883120313B9007F
:100A080083160313530883120313B80083160313C2
:100A1800520883120313B700831603135108831275
:100A28000313B6000800831203134603031D1D2D8C
:100A38001E2D252D5208FF007F08C900CF01CF0ABF
:100A48003E2D02304606031D2A2D2B2D302D53082E
:100A5800FF007F08C9003E2D4608031D342D352DA3
:100A68003E2DDF30FF007F088505EF30FF007F084F
:100A78008505880146080319422D432D162E4F037C
:100A8800031D472D482D022E0A30B6000030B7004E
:100A9800490883160313CF00D0014F0883120313AC
:100AA800B80083160313500883120313B9000A12FF
:100AB8008A1587250A128A11831203133608FF0044
:100AC8007F08CB000A30B6000030B700490883160B
:100AD8000313CF00D0014F0883120313B800831605
:100AE8000313500883120313B9000A128A150D273D
:100AF8000A128A11831203133608FF007F08CA00FE
:100B08000130FF007F08D7065708031D8C2D8D2D57
:100B1800972D4B08FF007F08C800EF30FF007F08C3
:100B280085058516D82D5703031D9B2D9C2DD82D83
:100B38004A08FF007F08C800DF30FF007F088505EE
:100B48000516D82D3F30831203138800022E063075
:100B5800831203138800022E5B308312031388006C
:100B6800022E4F30831203138800022E6630831240
:100B780003138800022E6D30831203138800022E9F
:100B88007D30831203138800022E0730831203136B
:100B98008800022E7F30831203138800022E6F30E4
:100BA800831203138800022E480883160313CF000C
:100BB800D0015008003A0319E22D022E4F08003ADE
:100BC8000319A62D013A0319AB2D033A0319B02DC9
:100BD800013A0319B52D073A0319BA2D013A031939
:100BE800BF2D033A0319C42D013A0319C92D0F3A31
:100BF8000319CE2D013A0319D32D022E0230831288
:100C08004606031D082E092E162EE830BC000330B8
:100C1800BD001430BE000030BF000A128A155123EF
:100C28000A128A11080083160313EF006F0883164F
:100C38000317980099019A019B011B08831203135B
:100C4800B900831603171A0883120313B800831612
:100C58000317190883120313B7008316031718081C
:100C680083120313B60001300A128A110C240A12E7
:100C78008A1183120313390883160313DC008312C5
:100C88000313380883160313DB0083120313370892
:100C980083160313DA00831203133608831603132B
:100CA800D9003E30D800F930D700F530D6005A3098
:100CB800D5000A128A1151200A128A1183160313C9
:100CC80058088316031793008316031357088316CF
:100CD800031792008316031356088316031791000F
:100CE8008316031355088316031790000A128A11F6
:100CF80049270A128A11831603171008FF007F0874
:100D080083120313D1005230FF007F08BF0051083F
:100D18000A128A11B1260A128A110A3083120313A1
:100D2800B6000030B7005508013EB800003003187F
:100D38000130B9000A128A158C230A128A1183120B
:100D480003133608FF007F08D50009305506031D38
:100D5800AE2EAF2EB02E5414080083120313C00019
:100D68000030C5000030C4000030C3000030C200AD
:100D7800400883160313D400D501D601D701831286
:100D88000313590883160313D80001300310D80D34
:100D9800FF3E031DCA2E0310580DA03E84005408C0
:100DA80083138000840A55088000840A560880004E
:100DB800840A570880000A3083120313B6000030F3
:100DC800B7005908013EB800003003180130B900D7
:100DD8000A128A158C230A128A1183120313360801
:100DE800FF007F08D900C101410883160313D4000E
:100DF80001300310D40DFF3E031DFD2E0310540DCA
:100E0800A03E84008313000883120313C207840AD8
:100E180000080318000F112F122FC307840A0008B7
:100E28000318000F182F192FC407840A0008031885
:100E3800000F1F2F202FC5070130FF007F08C107B3
:100E48000A304102031C292F2A2FF82E0030B9003E
:100E58000030B8000030B7000A30B6004508BD00C1
:100E68004408BC004308BB004208BA000A128A15AD
:100E780076270A128A11831203133608FF003F08E7
:100E880084007F088313800008000310831603176B
:100E9800120D130DFF007F0883120313C0004008D2
:100EA800031D572F582F632F003083160317930005
:100EB800003092000030910000309000DA2F831645
:100EC80003171008940011089500120896001308DB
:100ED80097001F300310970C960C950C940CFF3E4E
:100EE800031D6E2F1408FF007F0883120313BF0031
:100EF800831603179217FF309005FF309105FF30D6
:100F0800920500309305963083120313C002C01F68
:100F18008E2F8F2FAD2F4008803A973E0318952FBC
:100F2800962F972F582F0130031083160317930C11
:100F3800920C910C900CFF3E031D982F0130FF007E
:100F48007F0883120313C007031DAB2FAC2F972F05
:100F5800C82F20304002031CB22FB32FC32F582FA5
:100F680001308316031794000310900D910D920D14
:100F7800930D940BB82F013083120313C00240085D
:100F8800031DC72FC82FB42F3F080319CC2FCD2F0F
:100F9800DA2F831603179009910992099309900A89
:100FA8000319910A0319920A0319930A0800831274
:100FB8000313BB000A128A1594200A128A11A03062
:100FC8000A128A154D240A128A11831203133A0849
:100FD8000A128A154D240A128A11831203133B0838
:100FE8000A128A154D240A128A110A128A15A92092
:060FF8000A128A11080034
:1010000008308A000408840A820700340434143447
:1010100000340034003407346434003400340034C5
:101020000134F43401340034003464008001840A53
:10103000040603190034040616280A128A1117251B
:101040000A128A150A128A15E2250A128A15080060
:101050000A128A151F210A128A150A128A15A72256
:101060000A128A150800DF30FF007F08831203137D
:101070008505EF30FF007F0885053F3088000800B8
:10108000EF30FF007F08831203138605DF30FF0077
:101090007F088705FB30FF007F08870508000030C8
:1010A00083120313B600B7000330B8000030B90054
:1010B000CC300A128A155C210A128A1508000A121D
:1010C0008A15C8230A128A150A128A1594240A124C
:1010D0008A150A128A15EC200A128A15080083164E
:1010E0000313811281110114811401158B160B1742
:1010F0008B1764308312031381000B110800F20078
:10110000F101721C8428852889287008FF007F0857
:10111000F1070310F00D0310F20C7208031D912863
:101120009228812871080800831203138715071677
:101130000A168A11F6270A128A15EF30FF007F0877
:101140008312031387050A168A11F6270A128A15D5
:101150000800831203138715EF30FF007F0887050F
:101160000A168A11F6270A128A1583120313071624
:101170000A168A11F6270A128A150800023083120D
:10118000031346060319C528C628CB284603031DAA
:10119000CA28CB28CD28C601D4284608031DD1284B
:1011A000D228D428C601C60A080083120313B80047
:1011B000B701381CDC28DD28E1283608FF007F084D
:1011C000B7070310B60D0310B80C3808031DE92843
:1011D000EA28D9283708080083120313D41CF12801
:1011E000F22803295308FF007F08CC000A30FF00D3
:1011F0007F08BA004C080A128A11DB270A128A15E6
:1012000083120313D4100800831603139F1783124D
:1012100003131F179F13831603131F178312031340
:101220009F111F169F12831603131F109F141F1167
:101230009F11831203131F141F11501408008312EF
:101240000313501C242925293A29D01C282929298F
:101250003A294603031D2D292E293A291F19312920
:1012600032293A290A168A11ED270A128A158312A1
:1012700003131F150800DF30FF007F0883160313D8
:101280008705FB30FF007F088705EF30FF007F08F0
:101290008605DF30FF007F088505EF30FF007F08FF
:1012A00085058614061506140515F730FF007F081E
:1012B000870507168801080083120313BB003B084B
:1012C000FF007F08BA006F293608FF003A08840043
:1012D0007F08831380000130FF007F08BA070130C8
:1012E000B8020030031CB903B902380A031D7C2977
:1012F000390A031D7C297D29642908008B1C81295A
:10130000822989298B100A128A15BE200A128A1591
:1013100095290B1D8C298D2995290B11643081008D
:101320000A128A1547220A128A15831203133508F6
:10133000FF0034088A0033088400320E8300FE0E5A
:101340007E0E090083120313BA01BB01361CA929C2
:10135000AA29B0293808BA070318BB0A3908BB07FD
:1013600001300310B80DB90DFF3E031DB129013046
:101370000310B70CB60CFF3E031DB829360837041E
:10138000031DC329C429A6293B08B7003A08B600A3
:10139000080083120313BE00BA01BB013608B8006F
:1013A000B9013808BC003908BD003E1CD829D9292C
:1013B000DF293C08BA070318BB0A3D08BB07013008
:1013C0000310BC0DBD0DFF3E031DE0290310BE0C34
:1013D0003E08031DEC29ED29D5293B08B7003A0842
:1013E000B6000800831203135808C000C10140086A
:1013F000B6004108B7003F08B9003E08B8000A121D
:101400008A15A2210A128A15831203133D08370692
:10141000031D0C2A3C083606031D0F2A102A172A22
:101420001030FF007F088606D801D80A1B2A013039
:10143000FF007F08D8070800831203134708C00085
:10144000C1014008B6004108B7003F08B9003E0896
:10145000B8000A128A15A2210A128A1583120313F0
:101460003D083706031D362A3C083606031D392A77
:101470003A2A422AD414C601C60AC701C70A4D1027
:10148000CD10462A0130FF007F08C7070800013051
:1014900083160313C807003003180130C907003052
:1014A00003180130CA07003003180130CB074B087E
:1014B00083120313B000831603134A088312031325
:1014C000AF0083160313490883120313AE0083167B
:1014D0000313480883120313AD000A128A153F262E
:1014E0000A128A15080083120313BA000A128A1519
:1014F00094200A128A15A0300A128A154D240A1265
:101500008A15831203133A080A128A154D240A1207
:101510008A150A128A1594200A128A15A1300A1215
:101520008A154D240A128A150A128A15E2240A1213
:101530008A15FF007F0883120313BB000A128A1565
:10154000A9200A128A15831203133B0808000230EF
:10155000831203134E06031DAE2AAF2AC22A460386
:10156000031DB32AB42AC22AE830BC000330BD00F0
:101570006430BE000030BF000A128A15F2210A1240
:101580008A15DD2A4E03031DC62AC72ACE2A460322
:10159000031DCB2ACC2ACE2A0616DD2A46080319BB
:1015A000D22AD32AD92A02304606031DD82AD92A9C
:1015B000DD2AEF30FF007F08860508008316031739
:1015C0009C011C08CC3E840083130003031DE92A00
:1015D000EA2A0B2B0530FF007F0883120313B600A5
:1015E000831603171C080A128A15D5200A128A15B9
:1015F000013E84000A128A1500200A128A150A1276
:101600008A1142200A128A15831603171C08CC3E41
:101610008400831380010130FF007F089C070330A2
:101620001C02031C142B152BE12ADE2A08000A12C7
:101630008A153B210A128A150A128A1504210A12F8
:101640008A150A168A11DE270A128A150A128A15C5
:1016500033200A128A150A128A1540200A128A15A6
:101660000A168A11D6270A128A150A128A1509241F
:101670000A128A150A168A11E4270A128A150A1212
:101680008A154F200A128A150A128A156F200A122B
:101690008A150A128A15DE220A128A150A128A117E
:1016A0001228831203135608C000C1014008B60077
:1016B0004108B7003F08B9003E08B8000A128A1571
:1016C000A2210A128A15831203133D083706031D4F
:1016D0006B2B3C083606031D6E2B6F2B872B4F039D
:1016E000031D732B742B7E2BCF01DF30FF007F088F
:1016F0008505EF30FF007F088505852B4F08031D0A
:10170000822B832B852BCF01CF0AD601D60A01303D
:10171000FF007F08D607080083120313360837043A
:101720000319932B942BC32BBA01BA0AA22B0130B5
:101730000310B60DB70DFF3E031D982B0130FF00BF
:101740007F08BA07B71FA52BA62B972B370839029E
:10175000031DAC2B36083802031CAF2BB02BB62B65
:101760003608B8023708031CB903B9020130031068
:10177000B70CB60CFF3E031DB72B0130BA02031D98
:10178000C22BC32BA62B3908B7003808B6000800B7
:101790000230831203134606031DCF2BD02B082CD7
:1017A0008830BC001330BD00F430BE000130BF00F3
:1017B0000A128A151C220A128A15831203134D1C61
:1017C000E22BE32BF52BCD18E62BE72BF52B4B303B
:1017D00053060319EC2BED2BF52B0530FF007F088A
:1017E000D307C701C70A4D10082CCD1CF82BF92BC5
:1017F000082C4D18FC2BFD2B082C23305306031905
:10180000022C032C082C0530D302C701C70ACD10C7
:10181000080000300A128A1573220A128A15003A4B
:10182000031D132C142C092C0A300A128A1573225A
:101830000A128A15FF007F0883120313CC004C3074
:101840004C020318242C252C482C23304C02031C5A
:101850002A2C2B2C482C0530B6000030B7004C0841
:10186000BC00BD013C08B8003D08B9000A128A1549
:1018700087250A128A158312031336083704031DBD
:10188000422C432C482C4C08FF007F08D3004C2CE2
:101890003C30FF007F08D300080083120313B80018
:1018A000F730FF007F088705B9013808B60039080E
:1018B000073C013E5D2C0310B60CFF3E031D5B2C64
:1018C00036080139B700B70E07083706EF39370673
:1018D000870087150A168A11F6270A128A15F7302B
:1018E000FF007F088312031387050130FF007F0884
:1018F000B90708303902031C7E2C7F2C552C0716A3
:101900000A168A11F6270A128A15831203138715FD
:101910000A168A11F6270A128A15F730FF007F0887
:10192000831203138705080083120313541C992C98
:101930009A2CD92C4603031D9E2C9F2CD92C53087E
:10194000FB3EB600FF3003180030B7005208B80065
:10195000B90137083902031DAF2C360838020318C5
:10196000B22CB32CBD2CFB30FF007F0887058716F7
:101970000230FF007F08CE00E12C5208B600B7010C
:101980005308053EB800003003180130B90037088D
:101990003902031DCD2C360838020318D02CD12C67
:1019A000E12CDF30FF007F0887050715CE01CE0A46
:1019B000E12CFB30FF007F088705DF30FF007F0848
:1019C0008705080083120313B701F730FF007F0873
:1019D0008705831603130716831203130716B8012E
:1019E00087150A168A11F6270A128A15831203131D
:1019F000070E0139B6003808073C013E012D0310DF
:101A0000B60DFF3E031DFF2C3608FF007F08B7040C
:101A1000F730FF007F0887050130FF007F08B80717
:101A200008303802031C152D162DF02CEF30FF0066
:101A30007F088316031387050A168A11F6270A12F0
:101A40008A158312031387150A168A11F6270A12BC
:101A50008A15F730FF007F088312031387053708C4
:101A600008008312031328082704260425040319F9
:101A70003A2D3B2D7E2DFD01FD0A4B2D0130FC0042
:101A80000310A50DA60DA70DA80DFC0B402D0130D0
:101A9000FF007F08FD07A81F4E2D4F2D3E2D280863
:101AA0002C02031D5D2D27082B02031D5D2D26082A
:101AB0002A02031D5D2D25082902031C602D612DBE
:101AC0006F2D2508A9022608031C260FAA02270845
:101AD000031C270FAB022808031C280FAC0201309F
:101AE0000310A80CA70CA60CA50CFF3E031D702D1F
:101AF0000130FD02031D7D2D7E2D4F2D2C08A800E9
:101B00002B08A7002A08A6002908A50008008312B0
:101B10000313BB01B91F8D2D8E2D952DB809B90961
:101B2000B80A0319B90ABB01BB0AB71F982D992D32
:101B30009E2DB609B709B60A0319B70A3608370445
:101B40000319A32DA42DD32DBA01BA0AB22D013049
:101B50000310B60DB70DFF3E031DA82D0130FF0089
:101B60007F08BA07B71FB52DB62DA72D3708390244
:101B7000031DBC2D36083802031CBF2DC02DC62DF9
:101B80003608B8023708031CB903B9020130031044
:101B9000B70CB60CFF3E031DC72D0130BA02031D62
:101BA000D22DD32DB62D3B080319D72DD82DDD2DE1
:101BB000B809B909B80A0319B90A3908B7003808C9
:101BC000B6000800831203130608B60002300310A3
:101BD000B60CFF3E031DE72D361CEF2DF02DFC2D1E
:101BE0000608B60001300310B60CFF3E031DF32DAE
:101BF0003618FB2DFC2D3E2E4603031D002E012E14
:101C0000062E0230FF007F08C6003E2E0230460638
:101C1000031D0B2E0C2E3E2E0608B60002300310BC
:101C2000B60CFF3E031D0F2E3618172E182E252E2C
:101C30004D144D181C2E202E831203134D14232EE9
:101C4000831203134D10CD103E2E0608B60001304E
:101C50000310B60CFF3E031D282E3618302E312EF1
:101C60003E2ECD14CD18352E392E83120313CD14EC
:101C70003C2E83120313CD104D103E2E080083120C
:101C80000313B1010030F6000030F5000030F4001D
:101C90001430F3000530FF007F08F00031080A120D
:101CA0008A157F200A128A15023E84000A128A15BC
:101CB00000200A128A15F7000A128A1500200A125B
:101CC0008A15F8000A128A1500200A128A15F900EE
:101CD0000A128A1500200A128A15FA000A128A15B9
:101CE000A5260A128A15760883120313A800750820
:101CF000A7007408A6007308A5003008AC002F08E0
:101D0000AB002E08AA002D08A9000A128A15312559
:101D10000A128A15831203132808270426042504AF
:101D2000031D932E942E9A2E3108CC3E84008313EB
:101D30008001800A0130FF007F08B10703303102C3
:101D4000031CA32EA42E422E08000030831203137E
:101D5000A3000030A2000030A1000030A0007608EF
:101D60007504740473040319B62EB72E042FA4014E
:101D7000A40AC72E0130FB000310F30DF40DF50D7E
:101D8000F60DFB0BBC2E0130FF007F08A407F61FE9
:101D9000CA2ECB2EBA2E0130FB000310A00DA10DD0
:101DA000A20DA30DFB0BCD2E76087A02031DE22EA9
:101DB00075087902031DE22E74087802031DE22ED5
:101DC00073087702031CE52EE62EF52E7308F70242
:101DD0007408031C740FF8027508031C750FF902D0
:101DE0007608031C760FFA02201401300310F60C5B
:101DF000F50CF40CF30CFF3E031DF62E0130A4028B
:101E0000031D032F042FCB2E2308F6002208F50014
:101E10002108F4002008F300080083120313BB011B
:101E2000B71F132F142F1B2FB609B709B60A0319B2
:101E3000B70ABB01BB0AB91F1E2F1F2F282FB809D5
:101E4000B909B80A0319B90A0130FF007F08BB06B7
:101E5000BC01BD013608370403192F2F302F672F1F
:101E6000BA01BA0A3E2F01300310B60DB70DFF3E7E
:101E7000031D342F0130FF007F08BA07B71F412F21
:101E8000422F332F01300310BC0DBD0DFF3E031D4B
:101E9000432F37083902031D4F2F36083802031C21
:101EA000522F532F5A2F3608B8023708031CB90394
:101EB000B9023C1401300310B70CB60CFF3E031DF1
:101EC0005B2F0130BA02031D662F672F422F3B089C
:101ED00003196B2F6C2F712FBC09BD09BC0A0319A4
:101EE000BD0A3D08B7003C08B60008000030831664
:101EF0000313D2000030D1000030D0000030CF00FA
:101F00008312031339083804370436040319892F60
:101F10008A2FE72F83160313D301D30A9E2F013094
:101F2000BE000310B60DB70DB80DB90DBE0B912F45
:101F30000130FF007F0883160313D30783120313B6
:101F4000B91FA32FA42F8F2F01308312BE000310BF
:101F500083160313CF0DD00DD10DD20D83120313B1
:101F6000BE0BA72F39083D02031DC02F38083C02C5
:101F7000031DC02F37083B02031DC02F36083A024D
:101F8000031CC32FC42FD52F3608BA023708031CF1
:101F9000370FBB023808031C380FBC023908031C7A
:101FA000390FBD02831603134F140130031083123F
:101FB000B90CB80CB70CB60CFF3E031DD62F013080
:101FC00083160313D302031DE62FE72FA42F8316D6
:101FD0000313520883120313B90083160313510825
:101FE00083120313B80083160313500883120313DC
:101FF000B700831603134F0883120313B6000800BB
:102FAC0083120313C60108000134013401340A34BE
:102FBC000B168316031301178B10080083120313CF
:102FCC00501CE92FEA2FEC2F1F15D0140800831684
:102FDC0003131E080A128A1117260A168A110800F2
:102FEC0000000000000000000000000000000000D5
:042FFC0000000800C9
:02400E003A3F37
:00000001FF
