:020000040000FA
:060000000A128A11122809
:10000800FE00030E83120313B6000408B7000A08A3
:10001800B8007F08B9000A128A15442A0A128A1100
:1000280015280A128A15F5200A128A11D2000A1216
:100038008A15F6200A128A11D3000A128A15F720A7
:100048000A128A11D4000A128A15F8200A128A1193
:10005800D500831790308400B8300A128A1505211C
:100068000A128A1183160313D601D701D801D901C0
:10007800DA01DB0183133F30840052300A128A15FB
:1000880005210A128A1183010A128A158E2AFF0095
:1000980000308A007F08820750280A128A150D2925
:1000A8000A128A15FF280A128A15182983160313BB
:1000B8002D088039FF007F08B7002D08B2003207ED
:1000C800FF007F08BD00AC1F6A286B286C283D1410
:1000D8003D0803197028712880283D0A031D7528DA
:1000E80076287E280030AD000030AC000030AB0030
:1000F8000030AA00AC1788280030AD000030AC00F2
:100108000030AB000030AA0031088039FF007F08BA
:10011800B7063108B2003207FF007F08B800B01FE9
:100128009628972898283814380803199C289D2859
:10013800AC28380A031DA128A228AA280030B1003B
:100148000030B0000030AF000030AE00B017B42867
:100158000030B1000030B0000030AF000030AE0019
:1001680038080319B828B928BE283D08031DBD283A
:10017800BE28C7280030AD000030AC000030AB000E
:100188000030AA00142C2A08FF007F0883120313EA
:10019800BA008316031330080A128A15FB220A12C2
:1001A8008A11831203133B0883160313C3008312B7
:1001B80003133A0883160313C2004208B200B301BE
:1001C800B401B5013508BC003408BB003308BA00D7
:1001D8003208B9004308B200B301B401B5013508CB
:1001E800C1003408C0003308BF003208BE002B0825
:1001F800FF007F0883120313BA00831603132F0826
:100208000A128A15FB220A128A11831203133B0869
:1002180083160313C300831203133A0883160313C8
:10022800C2004208B200B301B401B5013208B907EF
:10023800330803110318013E03192329BA073408A8
:1002480003110318013E03192A29BB0735080311B6
:100258000318013E03193129BC074308B200B30152
:10026800B401B5013208BE07330803110318013E73
:1002780003193F29BF07340803110318013E031966
:100288004629C007350803110318013E03194D29F3
:10029800C1072C08FF007F0883120313BA008316D6
:1002A80003132E080A128A15FB220A128A118312D6
:1002B80003133B0883160313C300831203133A087E
:1002C80083160313C2004208B200B301B401B5019A
:1002D8003208B907330803110318013E03197529B9
:1002E800BA07340803110318013E03197C29BB0718
:1002F800350803110318013E03198329BC07430875
:10030800B200B301B401B5013208BE0733080311C6
:100318000318013E03199129BF0734080311031874
:10032800013E03199829C007350803110318013E37
:1003380003199F29C1070830B2000310B90DBA0D7F
:10034800BB0DBC0DB20BA1292B08FF007F0883123F
:100358000313BA00831603132E080A128A15FB2208
:100368000A128A11831203133B0883160313C3006E
:10037800831203133A0883160313C2004208B2001B
:100388004308B300B401B5013208B90733080311B3
:100398000318013E0319D129BA07340803110318B9
:1003A800013E0319D829BB07350803110318013E7C
:1003B8000319DF29BC072A08FF007F0883120313EB
:1003C800BA00831603132F080A128A15FB220A1291
:1003D8008A11831203133B0883160313C300831285
:1003E80003133A0883160313C2004208B2004308F5
:1003F800B300B401B5013208B90733080311031873
:10040800013E0319082ABA07340803110318013EEC
:1004180003190F2ABB07350803110318013E0319F6
:10042800162ABC070830B2000310B90DBA0DBB0D6F
:10043800BC0DB20B182A2A08FF007F088312031389
:10044800BA00831603132E080A128A15FB220A1211
:100458008A11831203133B0883160313C300831204
:1004680003133A0883160313C2004208B200430874
:10047800B300B401B5013208B907330803110318F2
:10048800013E0319482ABA07340803110318013E2C
:1004980003194F2ABB07350803110318013E031936
:1004A800562ABC072B08FF007F0883120313BA00E3
:1004B8008316031330080A128A15FB220A128A11BE
:1004C800831203133B0883160313C3008312031319
:1004D8003A0883160313C2004208B2004308B30067
:1004E800B401B5013208BE07330803110318013EF1
:1004F80003197F2ABF07340803110318013E0319A3
:10050800862AC007350803110318013E03198D2AEE
:10051800C1072C08FF007F0883120313BA00831653
:1005280003132F080A128A15FB220A128A11831252
:1005380003133B0883160313C300831203133A08FB
:1005480083160313C2004208B2004308B300B40183
:10055800B5013208BE07330803110318013E031919
:10056800B62ABF07340803110318013E0319BD2A30
:10057800C007350803110318013E0319C42AC1072F
:100588002C08FF007F0883120313BA008316031395
:1005980030080A128A15FB220A128A1183120313E1
:1005A8003B0883160313C300831203133A08831608
:1005B8000313C2004208B2004308B300B401B501F6
:1005C80008300310B20DB30DB40DB50DFF3E031D79
:1005D800E52A3208BE07330803110318013E031940
:1005E800F62ABF07340803110318013E0319FD2A30
:1005F800C007350803110318013E0319042BC1076E
:100608003908B2003A08B3003B08B4003C08B5000A
:1006180018300310B50CB40CB30CB20CFF3E031D1C
:100628000D2B3208BE07330803110318013E0319C6
:100638001E2BBF07340803110318013E0319252B8D
:10064800C007350803110318013E03192C2BC107F5
:100658000830B2000310B90DBA0DBB0DBC0DB20BBA
:100668002E2B3D083807B200B301B30D3208823E85
:10067800C20033080318013EFF3EC300602B01305F
:10068800B2000310BE0DBF0DC00DC10DB20B452B3E
:10069800BC1F4F2B502B512B3E140130B2000310BE
:1006A800B90DBA0DBB0DBC0DB20B532BFF30C207F1
:1006B8000318C30AFF30C307C01F632B642B432BE7
:1006C800B801BC1F682B692B852BFF303905B20098
:1006D800FF303A05B300FF303B05B4007F303C05DE
:1006E800B500350834043304320403197C2B7D2B00
:1006F800802BB801B80A852B3E1C832B842B852BB5
:100708007D2B38080319892B8A2BBB2B0130BE0798
:10071800003003180130BF07003003180130C0074C
:10072800003003180130C107411C9B2B9C2BBB2BAD
:100738003E08B2003F08B3004008B4004108B500C5
:100748000130B600350DB50CB40CB30CB20CB60BB9
:10075800A62B3508C1003408C0003308BF00320892
:10076800BE000130C2070318C30A0030C30743089C
:10077800803AFF0080307F02031DC42BFF30420205
:10078800031CC72BC82BD32B7F3083160313C10040
:100798008030C0000030BF000030BE00082C831637
:1007A80003134308803AFF0080307F02031DDE2BCD
:1007B800013042020318E12BE22BEE2B00308316A6
:1007C8000313C1000030C0000030BF000030BE007D
:1007D800B701082C831603134208FF007F08BD00E9
:1007E800FF30BE05FF30BF057F30C0050030C105B2
:1007F8003D1CFF2B002C012CC0173D08B200031034
:10080800320CFF007F08C1003708FF007F08C104D1
:100818004108AD004008AC003F08AB003E08AA0004
:100828000800831603135603031D1B2C1C2C252CB0
:10083800831203134E08FF007F08C800CC01CC0ABE
:10084800412C02305606031D2A2C2B2C322C8312E5
:1008580003134F08FF007F08C800412C5608031DEA
:10086800362C372C412CDF30FF007F08831203130E
:100878008505EF30FF007F088505831603135608AA
:100888000319472C482C1E2D831203134C03031DF8
:100898004E2C4F2C092D0A30BA000030BB004808F6
:1008A80083160313A800A901280883120313BC00A8
:1008B80083160313290883120313BD000A128A152D
:1008C8009E260A128A11831203133A08FF007F0832
:1008D800CA000A30BA000030BB0048088316031368
:1008E800A800A901280883120313BC008316031368
:1008F800290883120313BD000A128A114C270A1211
:100908008A11831203133A08FF007F08C9000130D7
:10091800FF007F08D4065408031D932C942C9E2CAA
:100928004A08FF007F08C700EF30FF007F088505F1
:100938008516DF2C5403031DA22CA32CDF2C490899
:10094800FF007F08C700DF30FF007F088505051618
:10095800DF2C3F30831203138800092D06308312E1
:1009680003138800092D5B30831203138800092DB7
:100978004F30831203138800092D66308312031346
:100988008800092D6D30831203138800092D7D30EE
:10099800831203138800092D07308312031388007C
:1009A800092D7F30831203138800092D6F308312BD
:1009B80003138800092D470883160313A800A9010B
:1009C8002908003A0319E92C092D2808003A0319C7
:1009D800AD2C013A0319B22C033A0319B72C013A8A
:1009E8000319BC2C073A0319C12C013A0319C62C68
:1009F800033A0319CB2C013A0319D02C0F3A0319E7
:100A0800D52C013A0319DA2C092D02308316031369
:100A18005606031D102D112D1E2DE830A20003309F
:100A2800A3001430A4000030A5000A128A15692416
:100A38000A128A11080083160313A4002408031954
:100A4800262D272D4B2D83120313BD1F2C2D2D2D45
:100A58004B2D3A0983160313A600831203133B098F
:100A680083160313A700831203133C098316031389
:100A7800A800831203133D0983160313A900A60ACD
:100A88000319A70A0319A80A0319A90A622D8312D0
:100A98003D0883160313A900831203133C08831629
:100AA8000313A800831203133B0883160313A7003C
:100AB800831203133A0883160313A6008312031341
:100AC8003D083C043B043A04031D6B2D6C2D752D29
:100AD8000030BD000030BC000030BB000030BA0060
:100AE800112E9630FF007F0883160313A500892D69
:100AF8000130FF007F08A50701300310A90CA80CDE
:100B0800A70CA60CFF3E031D812DFE302905031DF1
:100B18008E2D8F2D7C2DAB2D0130FF007F08A50772
:100B28000130A607003003180130A707003003186A
:100B38000130A807003003180130A907013003105D
:100B4800A90CA80CA70CA60CFF3E031DA32DFF3073
:100B58002905031DB02DB12D902DBD2D0130A50205
:100B68000130A0000310A60DA70DA80DA90DA00B1C
:100B7800B62DA81BC02DC12DC72D02302502031884
:100B8800C62DC72DB22D2518CA2DCB2DD32DFF303C
:100B9800A605FF30A7057F30A805FF30A90503107B
:100BA800A50C2508A000A101A201A301183003107B
:100BB800A00DA10DA20DA30DFF3E031DDB2D2008E6
:100BC800A6042108A7042208A8042308A9042408C5
:100BD8000319EF2DF02DF92D83120313BD1FF52DE9
:100BE800F62DF92D83160313A91783160313290865
:100BF80083120313BD0083160313280883120313FB
:100C0800BC0083160313270883120313BB00831643
:100C18000313260883120313BA000800831603136C
:100C2800B300003083120313C6000030C500003043
:100C3800C4000030C300831603133308AE00AF01AD
:100C4800B001B10183120313550883160313B200D0
:100C580001300310B20DFF3E031D2D2E0310320D7F
:100C6800903E84002E0883178000840A2F08800095
:100C7800840A30088000840A310880000A30831210
:100C88000313BA000030BB005508013EBC00003019
:100C980003180130BD000A128A156B230A128A1143
:100CA800831203133A08FF007F08D5008316031345
:100CB800B4013408AE0001300310AE0DFF3E031D31
:100CC800602E03102E0D903E8400831700088312B7
:100CD8000313C307840A00080318000F742E752E27
:100CE800C407840A00080318000F7B2E7C2EC50752
:100CF800840A00080318000F822E832EC6070130CD
:100D0800FF007F0883160313B4070A303402031C5C
:100D18008E2E8F2E5D2E0030A3000030A2000030F2
:100D2800A1000A30A0008312031346088316031398
:100D3800A70083120313450883160313A600831222
:100D48000313440883160313A500831203134308EF
:100D580083160313A4000A128A150C270A128A1193
:100D6800831603132008FF002D0884007F088313CF
:100D78008000080083160313D2005208CE00CF016A
:100D8800D001D101510883120313BD008316031348
:100D9800500883120313BC00831603134F088312F1
:100DA8000313BB00831603134E0883120313BA0000
:100DB80001300A128A111F250A128A11831203139D
:100DC8003D0883160313B100831203133C088316EE
:100DD8000313B000831203133B0883160313AF00F9
:100DE800831203133A0883160313AE003E30AD0096
:100DF800F930AC00F530AB005A30AA000A128A115B
:100E08005A200A128A11831603132D08C7002C08CA
:100E1800C6002B08C5002A08C4000A128A158427B0
:100E28000A128A11831603134408FF007F088312ED
:100E38000313CD004E30FF007F0883160313AD0067
:100E4800831203134D080A128A1112260A128A11F4
:100E58000A3083120313BA000030BB005108013E68
:100E6800BC00003003180130BD000A128A156B233C
:100E78000A128A11831203133A08FF007F08D1006F
:100E880009305106031D492F4A2F4B2F50140800D3
:100E980083160313A10183120313BB1F542F552F6D
:100EA8005E2FBA09BB09BA0A0319BB0A83160313D2
:100EB800A101A10A8312BD1F622F632F6E2FBC09E7
:100EC800BD09BC0A0319BD0A0130FF007F0883165B
:100ED8000313A10683160313A201A30183120313AC
:100EE8003A083B040319792F7A2FC02F831603136E
:100EF800A001A00A8C2F01300310BA0DBB0DFF3ED4
:100F0800031D802F0130FF007F0883160313A007FD
:100F180083120313BB1F912F922F7F2F013083164B
:100F280003130310A20DA30DFF3E031D952F83127B
:100F380003133B083D02031DA32F3A083C02031C80
:100F4800A62FA72FB02F3A08BC023B08031CBD03ED
:100F5800BD02831603132214013083120310BB0C45
:100F6800BA0CFF3E031DB22F013083160313A002F3
:100F7800031DBF2FC02F922F8316031321080319B7
:100F8800C62FC72FCC2FA209A309A20A0319A30AA7
:100F9800230883120313BB0083160313220883124A
:100FA8000313BA000800831203130608BA000230BC
:100FB8000310BA0CFF3E031DDC2F3A1CE42FE52F6B
:100FC800F12F0608BA0001300310BA0CFF3E031DCA
:100FD800E82F3A18F02FF12FFC2F8316031356032E
:100FE800031DF72FF82FFC2F0230FF007F08D600D3
:020FF8000800EF
:1010000008308A000408840A820700340434143447
:1010100000340034003407346434003400340034C5
:0A1020000134C834003400340034F9
:1011EA000134013401340A340B1683160313011730
:1011FA008B1008000A128A1115240A128A1508008F
:10120A0064008001840A04060319003404060629CE
:10121A000A128A1563250A128A150A128A15BA242D
:10122A000A128A1508000A128A1505220A128A1554
:10123A000A128A1527240A128A150800831603132C
:10124A00D601D701D70A3C30FF007F088312031367
:10125A00CF00080083160313581C342935293B296B
:10126A00831203131F1583160313D8140800DF30E3
:10127A00FF007F08831203138505EF30FF007F0804
:10128A0085053F3088000800EF30FF007F08831291
:10129A0003138605DF30FF007F088705FB30FF0058
:1012AA007F0887050800831203131E088316031399
:1012BA00D4001E08D30053080A128A11BE260A1245
:1012CA008A150800003083120313BA00BB000330EA
:1012DA00BC000030BD00D9300A128A1568220A12F1
:1012EA008A150800831603138112811101148114CF
:1012FA0001158B160B178B176430831203138100A9
:10130A000B110800F200F101721C8C298D29912918
:10131A007008FF007F08F1070310F00D0310F20CAC
:10132A007208031D99299A2989297108080002302F
:10133A008316031356060319A329A429A9295603B8
:10134A00031DA829A929AB29D601B2295608031DCC
:10135A00AF29B029B229D601D60A0800831203138D
:10136A00BC00BB013C1CBA29BB29BF293A08FF00B3
:10137A007F08BB070310BA0D0310BC0C3C08031D01
:10138A00C729C829B7293B080800831603139F17E2
:10139A00831203131F179F13831603131F17831236
:1013AA0003139F111F169F12831603131F109F14F6
:1013BA001F119F11831203131F141F118316031386
:1013CA0058140800013083120313BF0700300318B2
:1013DA000130C007003003180130C107003003187C
:1013EA000130C2074208B0004108AF004008AE0011
:1013FA003F08AD000A128A1530260A128A1508001B
:10140A0083160313581C0A2A0B2A222AD81C0E2ACE
:10141A000F2A222A5603031D132A142A222A831268
:10142A0003131F19192A1A2A222A0A128A1558215D
:10143A000A128A15831203131F150800DF30FF00F2
:10144A007F08831603138705FB30FF007F08870593
:10145A00EF30FF007F088605DF30FF007F08850533
:10146A00EF30FF007F08850586140615061405155A
:10147A00F730FF007F0887050716880108008B1CD4
:10148A00472A482A4F2A8B100A128A159C210A12C7
:10149A008A155B2A0B1D522A532A5B2A0B116430C8
:1014AA0081000A128A15E7210A128A158312031388
:1014BA003908FF0038088A0037088400360E83008E
:1014CA00FE0E7E0E090083160313A1002108FF00F9
:1014DA007F08A0007D2A3A08FF008316031320081C
:1014EA0084007F08831380000130FF007F08A00773
:1014FA00013083120313BC020030031CBD03BD027A
:10150A003C0A031D8C2A3D0A031D8C2A8D2A702A47
:10151A0008000A128A1523220A128A150A128A1543
:10152A00CA210A128A150A128A15F9200A128A157C
:10153A000A128A153C210A128A150A128A154921A9
:10154A000A128A150A128A1523210A128A150A1200
:10155A008A152F210A128A150A128A1567210A1278
:10156A008A150A128A1577210A128A150A128A1509
:10157A0032230A128A15C02A0A128A1112288316DD
:10158A000313A001A10183123A1CCC2ACD2AD92A1D
:10159A003C0883160313A0070318A10A8312031336
:1015AA003D0883160313A107013083120310BC0DF3
:1015BA00BD0DFF3E031DDB2A01300310BB0CBA0C24
:1015CA00FF3E031DE22A3A083B04031DED2AEE2AD8
:1015DA00C82A83160313210883120313BB00831638
:1015EA000313200883120313BA0008008316031397
:1015FA00A400A001A101831203133A08BC00BD0193
:10160A003C0883160313A200831203133D088316B2
:10161A000313A300241C122B132B192B2208A00737
:10162A000318A10A2308A10701300310A20DA30D74
:10163A00FF3E031D1A2B0310A40C2408031D262B9E
:10164A00272B0F2B210883120313BB0083160313C6
:10165A00200883120313BA00080083160313D50166
:10166A005508D93E840083130003031D3D2B3E2BEE
:10167A005F2B0530FF007F0883120313BA0083161D
:10168A00031355080A128A15B3210A128A15013E54
:10169A0084000A128A1500200A128A150A128A116F
:1016AA004B200A128A15831603135508D93E840063
:1016BA00831380010130FF007F08D50703305502EC
:1016CA00031C682B692B352B322B0800831203135A
:1016DA003A083B040319722B732BA22BBE01BE0AD4
:1016EA00812B01300310BA0DBB0DFF3E031D772B72
:1016FA000130FF007F08BE07BB1F842B852B762B8A
:10170A003B083D02031D8B2B3A083C02031C8E2B1F
:10171A008F2B952B3A08BC023B08031CBD03BD0264
:10172A0001300310BB0CBA0CFF3E031D962B01308F
:10173A00BE02031DA12BA22B852B3D08BB003C0832
:10174A00BA00080083120313520883160313A60073
:10175A00A701260883120313BA0083160313270866
:10176A0083120313BB008316031325088312031382
:10177A00BD0083160313240883120313BC000A1244
:10178A008A15C4220A128A158316031323088312A0
:10179A0003133B06031DD72B831603132208831258
:1017AA0003133A06031DDA2BDB2BE22B1030FF0062
:1017BA007F088606D201D20AE62B0130FF007F0895
:1017CA00D2070800831603135708A600A7012608A4
:1017DA0083120313BA008316031327088312031311
:1017EA00BB0083160313250883120313BD00831657
:1017FA000313240883120313BC000A128A15C42295
:10180A000A128A15831603132308831203133B064D
:10181A00031D152C831603132208831203133A0699
:10182A00031D182C192C202C83160313D601D60A53
:10183A00D701D70A262C0130FF007F08831603132D
:10184A00D70708000230831203134B06031D2E2C00
:10185A002F2C442C831603135603031D352C362CC8
:10186A00442CE830A2000330A3006430A400003006
:10187A00A5000A128A15A7230A128A15682C831250
:10188A004B03031D492C4A2C552C8316031356036C
:10189A00031D502C512C552C831203130616682C49
:1018AA0083160313560803195B2C5C2C622C023036
:1018BA005606031D612C622C682CEF30FF007F084E
:1018CA008312031386050800831203135308831631
:1018DA000313A600A701260883120313BA0083166E
:1018EA000313270883120313BB0083160313250867
:1018FA0083120313BD0083160313240883120313F0
:10190A00BC000A128A15C4220A128A158316031306
:10191A002308831203133B06031D992C8316031312
:10192A002208831203133A06031D9C2C9D2CB52C06
:10193A004C03031DA12CA22CAC2CCC01DF30FF00E0
:10194A007F088505EF30FF007F088505B32C4C081A
:10195A00031DB02CB12CB32CCC01CC0AD301D30A71
:10196A000130FF007F08D307080083120313501CBD
:10197A00BF2CC02C032D831603135603031DC62C3C
:10198A00C72C032D831203134F08FB3EBA00FF3006
:10199A0003180030BB004E08BC00BD013B083D02E5
:1019AA00031DD92C3A083C020318DC2CDD2CE72C49
:1019BA00FB30FF007F08870587160230FF007F088B
:1019CA00CB000C2D4E08BA00BB014F08053EBC00E7
:1019DA00003003180130BD003B083D02031DF72CFF
:1019EA003A083C020318FA2CFB2C0C2DDF30FF00BE
:1019FA007F0887050715CB01CB0A0C2DFB30FF00AA
:101A0A007F0883128705DF30FF007F0887050800FB
:101A1A008312031328082704260425040319162D04
:101A2A00172D5A2DFD01FD0A272D0130FC00031048
:101A3A00A50DA60DA70DA80DFC0B1C2D0130FF004E
:101A4A007F08FD07A81F2A2D2B2D1A2D28082C02E6
:101A5A00031D392D27082B02031D392D26082A02BA
:101A6A00031D392D25082902031C3C2D3D2D4B2D24
:101A7A002508A9022608031C260FAA022708031C08
:101A8A00270FAB022808031C280FAC0201300310F1
:101A9A00A80CA70CA60CA50CFF3E031D4C2D01306B
:101AAA00FD02031D592D5A2D2B2D2C08A8002B0899
:101ABA00A7002A08A6002908A50008000A128A1108
:101ACA00D7270A128A150230831603135606031DF6
:101ADA006F2D702DC72D8830A2001330A300C83097
:101AEA00A4000030A5000A128A15E7230A128A15F3
:101AFA00831203130608BE0002300310BE0CFF3E19
:101B0A00031D822D3E188A2D8B2DA62D0608BE0098
:101B1A0001300310BE0CFF3E031D8E2D3E1C962D78
:101B2A00972DA62D4B304F0603199C2D9D2DA62DC2
:101B3A000530FF007F08CF0783160313D701D70AA2
:101B4A00C72D0608BE0002300310BE0CFF3E031D5F
:101B5A00A92D3E1CB12DB22DC72D0608BE0001309D
:101B6A000310BE0CFF3E031DB52D3E18BD2DBE2D24
:101B7A00C72D23304F060319C32DC42DC72D053099
:101B8A00CF02A12D0800003083120313A3000030F6
:101B9A00A2000030A1000030A00076087504740489
:101BAA0073040319D92DDA2D272EA401A40AEA2DCC
:101BBA000130FB000310F30DF40DF50DF60DFB0BD0
:101BCA00DF2D0130FF007F08A407F61FED2DEE2D53
:101BDA00DD2D0130FB000310A00DA10DA20DA30DF8
:101BEA00FB0BF02D76087A02031D052E7508790283
:101BFA00031D052E74087802031D052E730877024B
:101C0A00031C082E092E182E7308F7027408031CE9
:101C1A00740FF8027508031C750FF9027608031C85
:101C2A00760FFA02201401300310F60CF50CF40CAE
:101C3A00F30CFF3E031D192E0130A402031D262EAC
:101C4A00272EEE2D2308F6002208F5002108F400BD
:101C5A002008F3000800831203133008B4002F0889
:101C6A00B3002E08B2002D08B100B5010030F6000D
:101C7A000030F5000030F4001430F3000530FF00A6
:101C8A007F08F00035080A128A1587210A128A1578
:101C9A00023E84000A128A1500200A128A15F700E9
:101CAA000A128A1500200A128A15F8000A128A15E1
:101CBA0000200A128A15F9000A128A1500200A124F
:101CCA008A15FA000A128A15C8250A128A15760890
:101CDA0083120313A8007508A7007408A6007308E6
:101CEA00A5003408AC003308AB003208AA0031085A
:101CFA00A9000A128A150D250A128A1583120313DE
:101D0A002808270426042504031D8C2E8D2E932EC5
:101D1A003508D93E840083138001800A0130FF0010
:101D2A007F08B50703303502031C9C2E9D2E3B2EDF
:101D3A00080083160313A10183120313BD1FA62EE5
:101D4A00A72EB02EBC09BD09BC0A0319BD0A831609
:101D5A000313A101A10A8312BB1FB42EB52EBA2EFA
:101D6A00BA09BB09BA0A0319BB0A3A083B040319A0
:101D7A00BF2EC02EF82E83160313A001A00AD22E5E
:101D8A0001300310BA0DBB0DFF3E031DC62E0130F4
:101D9A00FF007F0883160313A00783120313BB1FD8
:101DAA00D72ED82EC52E83123B083D02031DDF2EE7
:101DBA003A083C02031CE22EE32EE92E3A08BC0242
:101DCA003B08031CBD03BD0201300310BB0CBA0C57
:101DDA00FF3E031DEA2E013083160313A002031DE2
:101DEA00F72EF82ED82E8316031321080319FE2E78
:101DFA00FF2E062F83120313BC09BD09BC0A03195F
:101E0A00BD0A83123D08BB003C08BA000800003036
:101E1A0083160313AB000030AA000030A90000307B
:101E2A00A800230822042104200403191D2F1E2FB1
:101E3A007B2FAC01AC0A362F013083120313BA0090
:101E4A00031083160313A00DA10DA20DA30D831277
:101E5A000313BA0B252F0130FF007F0883160313E3
:101E6A00AC07A31F392F3A2F212F013083120313F6
:101E7A00BA00031083160313A80DA90DAA0DAB0D02
:101E8A0083120313BA0B3E2F831603132308270268
:101E9A00031D592F22082602031D592F2108250246
:101EAA00031D592F20082402031C5C2F5D2F6C2F61
:101EBA002008A4022108031C210FA5022208031CE2
:101ECA00220FA6022308031C230FA702281401309D
:101EDA000310A30CA20CA10CA00CFF3E031D6D2F36
:101EEA000130AC02031D7A2F7B2F3A2F2B08A30057
:101EFA002A08A2002908A1002808A0000800031047
:101F0A0083160313460D470DFF007F08CD004D08C9
:101F1A00031D902F912F9A2F0030C7000030C60062
:101F2A000030C5000030C400FF2F4408C80045082F
:101F3A00C9004608CA004708CB001F300310CB0C63
:101F4A00CA0CC90CC80CFF3E031DA32F4808FF008A
:101F5A007F08CC00C617FF30C405FF30C505FF3027
:101F6A00C6050030C7059630CD02CD1FBD2FBE2F46
:101F7A00D82F4D08803A973E0318C42FC52FC62F75
:101F8A00912F01300310C70CC60CC50CC40CFF3EC0
:101F9A00031DC72F0130FF007F08CD07031DD62F71
:101FAA00D72FC62FEF2F20304D02031CDD2FDE2F37
:101FBA00EA2F912F0130C8000310C40DC50DC60DBC
:101FCA00C70DC80BE12F0130CD024D08031DEE2FBE
:101FDA00EF2FDF2F4C080319F32FF42FFF2FC4091B
:101FEA00C509C609C709C40A0319C50A0319C60AD5
:061FFA000319C70A0800EC
:02400E003A3F37
:00000001FF
