:020000040000FA
:060000000A128A11122809
:10000800FE00030E83120313B2000408B3000A08AB
:10001800B4007F08B5000A128A158A290A128A11C3
:1000280015280A128A1534200A128A11D6000A12D3
:100038008A1535200A128A11D7000A128A15362025
:100048000A128A11D8000A128A1537200A128A1150
:10005800D9008313A0308400D3300A128A154420B3
:100068000A128A114430840056300A128A15442034
:100078000A128A1183010A128A154C2BFF000030DC
:100088008A007F08820747280A128A159F280A12C1
:100098008A153E280A128A156828831603135608FB
:1000A8008039FF007F08E0005608DB005B07FF008F
:1000B8007F08E600D51F6128622863286614660851
:1000C8000319672868287728660A031D6C286D2895
:1000D80075280030D6000030D5000030D40000303C
:1000E800D300D5177F280030D6000030D500003067
:1000F800D4000030D3005A088039FF007F08E0069A
:100108005A08DB005B07FF007F08E100D91F8D2834
:100118008E288F2861146108031993289428A3282E
:10012800610A031D98289928A1280030DA000030B8
:10013800D9000030D8000030D700D917AB280030DC
:10014800DA000030D9000030D8000030D70061084C
:100158000319AF28B028B5286608031DB428B528A8
:10016800BE280030D6000030D5000030D400003062
:10017800D3000B2C5308FF007F0883120313B6002B
:100188008316031359080A128A15F9210A128A11CB
:1001980083120313370883160313EC008312031327
:1001A800360883160313EB006B08DB00DC01DD0166
:1001B800DE015E08E5005D08E4005C08E3005B081A
:1001C800E2006C08DB00DC01DD01DE015E08EA000C
:1001D8005D08E9005C08E8005B08E7005408FF00D8
:1001E8007F0883120313B6008316031358080A12F4
:1001F8008A15F9210A128A11831203133708831604
:100208000313EC0083120313360883160313EB0061
:100218006B08DB00DC01DD01DE015B08E2075C083E
:1002280003110318013E03191A29E3075D08031196
:100238000318013E03192129E4075E080311031876
:10024800013E03192829E5076C08DB00DC01DD0104
:10025800DE015B08E7075C0803110318013E031978
:100268003629E8075D0803110318013E03193D29E3
:10027800E9075E0803110318013E03194429EA0738
:100288005508FF007F0883120313B6008316031373
:1002980057080A128A15F9210A128A1183120313C0
:1002A800370883160313EC008312031336088316EA
:1002B8000313EB006B08DB00DC01DD01DE015B08EA
:1002C800E2075C0803110318013E03196C29E307D0
:1002D8005D0803110318013E03197329E4075E083A
:1002E80003110318013E03197A29E5076C08DB009E
:1002F800DC01DD01DE015B08E7075C080311031878
:10030800013E03198829E8075D0803110318013E17
:1003180003198F29E9075E0803110318013E031921
:100328009629EA070830DB000310E20DE30DE40D1F
:10033800E50DDB0B98295408FF007F08831203138F
:10034800B6008316031357080A128A15F9210A12F0
:100358008A1183120313370883160313EC008312E0
:100368000313360883160313EB006B08DB006C08D5
:10037800DC00DD01DE015B08E2075C0803110318FD
:10038800013E0319C829E3075D0803110318013E5C
:100398000319CF29E4075E0803110318013E031966
:1003A800D629E5075308FF007F0883120313B60018
:1003B8008316031358080A128A15F9210A128A119A
:1003C80083120313370883160313EC0083120313F5
:1003D800360883160313EB006B08DB006C08DC009F
:1003E800DD01DE015B08E2075C0803110318013E2A
:1003F8000319FF29E3075D0803110318013E0319D8
:10040800062AE4075E0803110318013E03190D2AA2
:10041800E5070830DB000310E20DE30DE40DE50D00
:10042800DB0B0F2A5308FF007F0883120313B60063
:100438008316031357080A128A15F9210A128A111A
:1004480083120313370883160313EC008312031374
:10045800360883160313EB006B08DB006C08DC001E
:10046800DD01DE015B08E2075C0803110318013EA9
:1004780003193F2AE3075D0803110318013E031916
:10048800462AE4075E0803110318013E03194D2AA2
:10049800E5075408FF007F0883120313B60083168C
:1004A800031359080A128A15F9210A128A118312AC
:1004B8000313370883160313EC008312031336085B
:1004C80083160313EB006B08DB006C08DC00DD010E
:1004D800DE015B08E7075C0803110318013E0319F6
:1004E800762AE8075D0803110318013E03197D2ADF
:1004F800E9075E0803110318013E0319842AEA0775
:100508005508FF007F0883120313B60083160313F0
:1005180058080A128A15F9210A128A11831203133C
:10052800370883160313EC00831203133608831667
:100538000313EB006B08DB006C08DC00DD01DE0157
:100548005B08E7075C0803110318013E0319AD2A8D
:10055800E8075D0803110318013E0319B42AE907E7
:100568005E0803110318013E0319BB2AEA07550860
:10057800FF007F0883120313B6008316031359087C
:100588000A128A15F9210A128A11831203133708ED
:1005980083160313EC008312031336088316031320
:1005A800EB006B08DB006C08DC00DD01DE010830C5
:1005B8000310DB0DDC0DDD0DDE0DFF3E031DDC2A17
:1005C8005B08E7075C0803110318013E0319ED2ACD
:1005D800E8075D0803110318013E0319F42AE90727
:1005E8005E0803110318013E0319FB2AEA07620893
:1005F800DB006308DC006408DD006508DE001830F5
:100608000310DE0CDD0CDC0CDB0CFF3E031D042BA1
:100618005B08E7075C0803110318013E0319152B53
:10062800E8075D0803110318013E03191C2BE907AD
:100638005E0803110318013E0319232BEA0708304B
:10064800DB000310E20DE30DE40DE50DDB0B252BBC
:1006580066086107DB00DC01DC0D5B08823EEB000D
:100668005C080318013EFF3EEC00572B0130DB000D
:100678000310E70DE80DE90DEA0DDB0B3C2BE51F38
:10068800462B472B482B67140130DB000310E20D83
:10069800E30DE40DE50DDB0B4A2BFF30EB070318E8
:1006A800EC0AFF30EC07E91F5A2B5B2B3A2BE101D0
:1006B800E51F5F2B602B7C2BFF306205DB00FF30D2
:1006C8006305DC00FF306405DD007F306505DE0072
:1006D8005E085D045C045B040319732B742B772B91
:1006E800E101E10A7C2B671C7A2B7B2B7C2B742B7A
:1006F80061080319802B812BB22B0130E7070030EA
:1007080003180130E807003003180130E90700300A
:1007180003180130EA076A1C922B932BB22B670847
:10072800DB006808DC006908DD006A08DE000130CB
:10073800DF005E0DDE0CDD0CDC0CDB0CDF0B9D2B13
:100748005E08EA005D08E9005C08E8005B08E7006D
:100758000130EB070318EC0A0030EC076C08803A0C
:10076800FF0080307F02031DBB2BFF306B02031C90
:10077800BE2BBF2BCA2B7F3083160313EA008030B1
:10078800E9000030E8000030E700FF2B8316031370
:100798006C08803AFF0080307F02031DD52B0130A2
:1007A8006B020318D82BD92BE52B003083160313C3
:1007B800EA000030E9000030E8000030E700E0011E
:1007C800FF2B831603136B08FF007F08E600FF303A
:1007D800E705FF30E8057F30E9050030EA05661CCB
:1007E800F62BF72BF82BE9176608DB0003105B0CD8
:1007F800FF007F08EA006008FF007F08EA046A0833
:10080800D6006908D5006808D4006708D300080036
:10081800831203134403031D122C132C1A2C5208A1
:10082800FF007F08CB00CF01CF0A322C02304406EC
:10083800031D1F2C202C252C5308FF007F08CB00FC
:10084800322C4408031D292C2A2C322CDF30FF00BF
:100858007F088505EF30FF007F08850544080319E8
:10086800362C372CE32C4F03031D3B2C3C2CD02C6F
:100878000A30B6000030B7004B08C200C301420876
:10088800B8004308B9000A128A1553250A128A11BA
:10089800831203133608FF007F08CD000A30B60024
:1008A8000030B7004B08C200C3014208B800430833
:1008B800B9000A128A1178270A128A1183120313BF
:1008C8003608FF007F08CC000130FF007F08D806FB
:1008D8005808031D702C712C7B2C4D08FF007F08D5
:1008E800CA00EF30FF007F0885058516A82C58033D
:1008F800031D7F2C802CA82C4C08FF007F08CA0001
:10090800DF30FF007F0885050516A82C3F308800DA
:10091800D02C06308800D02C5B308800D02C4F308B
:100928008800D02C66308800D02C6D308800D02C00
:100938007D308800D02C07308800D02C7F3088008C
:10094800D02C6F308800D02C4A08C200C30143085D
:10095800003A0319B02CD02C4208003A03198A2C0B
:10096800013A03198D2C033A0319902C013A031903
:10097800932C073A0319962C013A0319992C033A38
:1009880003199C2C013A03199F2C0F3A0319A22C26
:10099800013A0319A52CD02C02304406031DD52C8E
:1009A800D62CE32CE830BC000330BD001430BE0068
:1009B8000030BF000A128A1511230A128A11080092
:1009C80083120313BE003E080319EB2CEC2C002DF8
:1009D800B91FEF2CF02C002D3609C0003709C100D3
:1009E8003809C2003909C300C00A0319C10A03192A
:1009F800C20A0319C30A082D3908C3003808C200FF
:100A08003708C1003608C0003908380437043604EE
:100A1800031D0F2D102D192D0030B9000030B8001E
:100A28000030B7000030B6009F2D9630FF007F08D9
:100A3800BF002B2D0130FF007F08BF0701300310D6
:100A4800C30CC20CC10CC00CFF3E031D232DFE308D
:100A58004305031D302D312D1E2D4D2D0130FF0076
:100A68007F08BF070130C007003003180130C107F5
:100A7800003003180130C207003003180130C307E3
:100A880001300310C30CC20CC10CC00CFF3E031D87
:100A9800452DFF304305031D522D532D322D5F2D5B
:100AA8000130BF020130BA000310C00DC10DC20DE4
:100AB800C30DBA0B582DC21B622D632D692D023050
:100AC8003F020318682D692D542D3F186C2D6D2D8C
:100AD800752DFF30C005FF30C1057F30C205FF30DE
:100AE800C3050310BF0C3F08BA00BB01BC01BD0120
:100AF80018300310BA0DBB0DBC0DBD0DFF3E031D14
:100B08007D2D3A08C0043B08C1043C08C2043D08D6
:100B1800C3043E080319912D922D972DB91F952DC9
:100B2800962D972DC3174308B9004208B80041080D
:100B3800B7004008B600080083160313D900003038
:100B4800CF000030CE000030CD000030CC00590876
:100B5800D400D501D601D70183120313590883168F
:100B68000313D80001300310D80DFF3E031DB72D25
:100B78000310580DA03E8400540883138000840A93
:100B880055088000840A56088000840A57088000A7
:100B98000A3083120313B6000030B7005908013E2B
:100BA800B800003003180130B9000A128A158723EB
:100BB8000A128A11831203133608FF007F08D9002E
:100BC80083160313DA015A08D40001300310D40D38
:100BD800FF3E031DEA2D0310540DA03E840083132D
:100BE8000008CC07840A00080318000FFC2DFD2D0F
:100BF800CD07840A00080318000F032E042ECE0721
:100C0800840A00080318000F0A2E0B2ECF070130A4
:100C1800FF007F08DA070A305A02031C142E152E2B
:100C2800E72D003083120313B9000030B8000030FC
:100C3800B7000A30B600831603134F088312031354
:100C4800BD00831603134E0883120313BC008316DA
:100C580003134D0883120313BB00831603134C08B8
:100C680083120313BA000A128A1598270A128A11E6
:100C7800831203133608FF008316031353088400F6
:100C88007F0883138000080083160313EF006F08A2
:100C980083160317980099019A019B011B08831278
:100CA8000313B900831603171A0883120313B80035
:100CB80083160317190883120313B7008316031743
:100CC800180883120313B60001300A128A11E424AB
:100CD8000A128A1183120313390883160313DA00E0
:100CE80083120313380883160313D90083120313DE
:100CF800370883160313D8008312031336088316A4
:100D08000313D7003E30D600F930D500F530D400B3
:100D18005A30D3000A128A1151200A128A118316F6
:100D280003135608831603179300831603135508F5
:100D380083160317920083160313540883160317A8
:100D480091008316031353088316031790000A12A1
:100D58008A11E6260A128A11831603171008FF0063
:100D68007F0883120313D1005230FF007F088316D7
:100D78000313D3008312031351080A128A11A02502
:100D88000A128A110A3083120313B6000030B70022
:100D98005508013EB800003003180130B9000A12A6
:100DA8008A1587230A128A11831203133608FF0053
:100DB8007F08D50009305506031DE32EE42EE52EE5
:100DC80054140800031083160317120D130DFF00A7
:100DD8007F0883160313EE006E08031DF42EF52E0C
:100DE800002F003083160317930000309200003064
:100DF800910000309000772F831603171008940095
:100E08001108950012089600130897001F30031068
:100E1800970C960C950C940CFF3E031D0B2F140891
:100E2800FF007F0883160313ED008316031792173C
:100E3800FF309005FF309105FF3092050030930593
:100E4800963083160313EE02EE1F2B2F2C2F4A2FFA
:100E58006E08803A973E0318322F332F342FF52E21
:100E68000130031083160317930C920C910C900C0D
:100E7800FF3E031D352F0130FF007F088316031343
:100E8800EE07031D482F492F342F652F20306E029F
:100E9800031C4F2F502F602FF52E01308316031798
:100EA80094000310900D910D920D930D940B552FF6
:100EB800013083160313EE026E08031D642F652F9D
:100EC800512F6D080319692F6A2F772F831603177F
:100ED8009009910992099309900A0319910A031933
:100EE800920A0319930A080083120313BB01B71F60
:100EF8007E2F7F2F862FB609B709B60A0319B70ABE
:100F0800BB01BB0AB91F892F8A2F932FB809B909CA
:100F1800B80A0319B90A0130FF007F08BB06BC01F3
:100F2800BD013608370403199A2F9B2FD22FBA0117
:100F3800BA0AA92F01300310B60DB70DFF3E031DE5
:100F48009F2F0130FF007F08BA07B71FAC2FAD2FC6
:100F58009E2F01300310BC0DBD0DFF3E031DAE2FAB
:100F680037083902031DBA2F36083802031CBD2F73
:100F7800BE2FC52F3608B8023708031CB903B902BB
:100F88003C1401300310B70CB60CFF3E031DC62FEE
:100F98000130BA02031DD12FD22FAD2F3B08031900
:100FA800D62FD72FDC2FBC09BD09BC0A0319BD0AEF
:100FB8003D08B7003C08B600080083120313501C14
:100FC800E62FE72FFC2FD01CEA2FEB2FFC2F440332
:100FD800031DEF2FF02FFC2F1F19F32FF42FFC2FD9
:100FE8000A128A1555200A128A11831203131F1533
:020FF8000800EF
:1010000008308A000408840A820700340434143447
:1010100000340034003407346434003400340034C5
:0A1020000134C834003400340034F9
:1010600083120313C40108000134013401340A342B
:101070000B168316031301178B1008000A128A112E
:101080000C240A128A15080064008001840A0406F0
:10109000031900340406452883120313501C5128F9
:1010A000522854281F15D0140800831603131E0855
:1010B0000A128A1148260A128A1508000000000048
:1010C0000000000000000000000000000000080018
:1010D0000A128A11E1270A128A150A128A15A12218
:1010E0000A128A150800DF30FF007F0883120313FD
:1010F0008505EF30FF007F0885053F308800080038
:10110000EF30FF007F08831203138605DF30FF00F6
:101110007F088705FB30FF007F0887050800003047
:1011200083120313B600B7000330B8000030B900D3
:10113000D0300A128A1568210A128A1508000A128C
:101140008A1567260A128A150A128A1556240A1267
:101150008A150A128A15AE250A128A150800831606
:101160000313811281110114811401158B160B17C1
:101170008B1764308312031381000B110800F200F7
:10118000F101721CC428C528C9287008FF007F0817
:10119000F1070310F00D0310F20C7208031DD128A3
:1011A000D228C12871080800831203138715071677
:1011B0000A128A155E200A128A15EF30FF007F0896
:1011C0008312031387050A128A155E200A128A15F4
:1011D0000800831203138715EF30FF007F0887058F
:1011E0000A128A155E200A128A1583120313071643
:1011F0000A128A155E200A128A150800023083122C
:10120000031344060319052906290B294403031D6A
:101210000A290B290D29C40114294408031D112989
:1012200012291429C401C40A080083120313B80048
:10123000B701381C1C291D2921293608FF007F0809
:10124000B7070310B60D0310B80C3808031D292981
:101250002A29192937080800831603139F178312B8
:1012600003131F179F13831603131F1783120313F0
:101270009F111F169F12831603131F109F141F1117
:101280009F11831203131F141F1150140800DF3025
:10129000FF007F08831603138705FB30FF007F08DC
:1012A0008705EF30FF007F088605DF30FF007F08ED
:1012B0008505EF30FF007F088505861406150614A6
:1012C0000515F730FF007F0887050716880108001D
:1012D00083120313BB003B08FF007F08BA007B2981
:1012E0003608FF003A0884007F088313800001302D
:1012F000FF007F08BA070130B8020030031CB903B1
:10130000B902380A031D8829390A031D8829892949
:10131000702908008B1C8D298E2995298B100A12A3
:101320008A15FE200A128A15A1290B1D98299929D0
:10133000A1290B11643081000A128A1575220A1244
:101340008A15831203133508FF0034088A00330816
:101350008400320E8300FE0E7E0E090083120313FA
:101360000608B60002300310B60CFF3E031DB32979
:10137000361CBB29BC29C8290608B6000130031059
:10138000B60CFF3E031DBF293618C729C829D1292D
:101390004403031DCC29CD29D1290230FF007F0849
:1013A000C400080083120313BA01BB01361CD929FB
:1013B000DA29E0293808BA070318BB0A3908BB073D
:1013C00001300310B80DB90DFF3E031DE1290130B6
:1013D0000310B70CB60CFF3E031DE829360837048E
:1013E000031DF329F429D6293B08B7003A08B600B3
:1013F000080083120313BE00BA01BB013608B8000F
:10140000B9013808BC003908BD003E1C082A092A69
:101410000F2A3C08BA070318BB0A3D08BB07013076
:101420000310BC0DBD0DFF3E031D102A0310BE0CA2
:101430003E08031D1C2A1D2A052A3B08B7003A084E
:10144000B6000800831203134508C000C10140081C
:10145000B6004108B7003F08B9003E08B8000A12BC
:101460008A15D2210A128A15831203133D08370602
:10147000031D3C2A3C083606031D3F2A402A462A03
:10148000D414C401C40AC501C50A4A2A0130FF00A8
:101490007F08C5070800831203135608C000C10166
:1014A0004008B6004108B7003F08B9003E08B80040
:1014B0000A128A15D2210A128A15831203133D08D3
:1014C0003706031D652A3C083606031D682A692A6B
:1014D000702A1030FF007F088606D601D60A742ACB
:1014E0000130FF007F08D607080001308316031380
:1014F000C807003003180130C90700300318013055
:10150000CA07003003180130CB074B0883120313BE
:10151000B000831603134A0883120313AF00831627
:101520000313490883120313AE00831603134808FC
:1015300083120313AD000A128A15CA260A128A15ED
:1015400008000230831203134E06031DA82AA92A9D
:10155000BC2A4403031DAD2AAE2ABC2AE830BC00D5
:101560000330BD006430BE000030BF000A128A158F
:101570004B220A128A15D72A4E03031DC02AC12AFC
:10158000C82A4403031DC52AC62AC82A0616D72A14
:1015900044080319CC2ACD2AD32A02304406031D5D
:1015A000D22AD32AD72AEF30FF007F088605080009
:1015B000831603179C011C08D03E8400831300038C
:1015C000031DE32AE42A052B0530FF007F08831260
:1015D0000313B600831603171C080A128A15152177
:1015E0000A128A15013E84000A128A1500200A1286
:1015F0008A150A128A1142200A128A1583160317C5
:101600001C08D03E8400831380010130FF007F0856
:101610009C0703301C02031C0E2B0F2BDB2AD82A3D
:101620000800831203135708C000C1014008B60028
:101630004108B7003F08B9003E08B8000A128A15F1
:10164000D2210A128A15831203133D083706031D9F
:101650002B2B3C083606031D2E2B2F2B472B4F031D
:10166000031D332B342B3E2BCF01DF30FF007F08CF
:101670008505EF30FF007F088505452B4F08031DCA
:10168000422B432B452BCF01CF0AD701D70A01307C
:10169000FF007F08D70708000A128A1547210A129F
:1016A0008A150A128A152C210A128A150A128A151D
:1016B00038200A128A150A128A1573200A128A150E
:1016C0000A128A1580200A128A150A128A153020F9
:1016D0000A128A150A128A150A240A128A150A128F
:1016E0008A154C200A128A150A128A158F200A12AE
:1016F0008A150A128A15AF200A128A150A128A154B
:10170000D8220A128A15832B0A128A1112288312F0
:1017100003133608370403198E2B8F2BBE2BBA0107
:10172000BA0A9D2B01300310B60DB70DFF3E031D05
:10173000932B0130FF007F08BA07B71FA02BA12B06
:10174000922B37083902031DA72B36083802031CD9
:10175000AA2BAB2BB12B3608B8023708031CB903F0
:10176000B90201300310B70CB60CFF3E031DB22BBB
:101770000130BA02031DBD2BBE2BA12B3908B700C7
:101780003808B600080083120313B800F730FF00D2
:101790007F088705B9013808B6003908073C013EC3
:1017A000D32B0310B60CFF3E031DD12B3608013995
:1017B000B700B70E07083706EF39370687008715D9
:1017C0000A128A155E200A128A15F730FF007F0878
:1017D0008312031387050130FF007F08B907083023
:1017E0003902031CF42BF52BCB2B07160A128A1592
:1017F0005E200A128A158312031387150A128A15AE
:101800005E200A128A15F730FF007F088312031347
:1018100087050800003083120313BA00BB000A12C8
:101820008A15FA240A128A15003A031D182C192C5D
:101830000A2C0A3083120313BA000030BB000A12CC
:101840008A15FA240A128A15FF007F0883120313EF
:10185000C9004908BF0007300310BF0CFF3E031D3D
:101860002C2C3F080139FF007F08C00049087F3950
:10187000FF007F08C1004003031D3F2C402C512C6A
:101880004C304102031C452C462C4C2C2330410289
:10189000031C4B2C4C2C512C4108FF007F08D3001B
:1018A000552C3C30FF007F08D3000800831203133F
:1018B000541C5B2C5C2C9B2C4403031D602C612C62
:1018C0009B2C5308FB3EB600FF3003180030B700D6
:1018D0005208B800B90137083902031D712C3608C7
:1018E00038020318742C752C7F2CFB30FF007F0806
:1018F000870587160230FF007F08CE00A32C520810
:10190000B600B7015308053EB80000300318013097
:10191000B90037083902031D8F2C36083802031826
:10192000922C932CA32CDF30FF007F08870507152E
:10193000CE01CE0AA32CFB30FF007F088705DF30E5
:10194000FF007F0887050800831203132808270477
:10195000260425040319AD2CAE2CF12CFD01FD0A43
:10196000BE2C0130FC000310A50DA60DA70DA80D7F
:10197000FC0BB32C0130FF007F08FD07A81FC12C12
:10198000C22CB12C28082C02031DD02C27082B02B6
:10199000031DD02C26082A02031DD02C250829025D
:1019A000031CD32CD42CE22C2508A9022608031CE6
:1019B000260FAA022708031C270FAB022808031CC6
:1019C000280FAC0201300310A80CA70CA60CA50C24
:1019D000FF3E031DE32C0130FD02031DF02CF12C12
:1019E000C22C2C08A8002B08A7002A08A60029084A
:1019F000A5000800831203133B080139FF007F088C
:101A0000BE003A08FF007F08BD000A128A15D420E4
:101A10000A128A15831203133E080319102D112D83
:101A2000182DA2300A128A15C3230A128A151E2DF8
:101A3000A0300A128A15C3230A128A1583120313CF
:101A40003D080A128A15C3230A128A150A128A153A
:101A5000D4200A128A15831203133E080319312D6C
:101A6000322D392DA3300A128A15C3230A128A1582
:101A70003F2DA1300A128A15C3230A128A1501309C
:101A80000A128A150A260A128A15FF007F08831295
:101A90000313BC000A128A15E9200A128A15831260
:101AA00003133C08080083120313BB01B91F592D0F
:101AB0005A2D612DB809B909B80A0319B90ABB0131
:101AC000BB0AB71F642D652D6A2DB609B709B60A82
:101AD0000319B70A3608370403196F2D702D9F2D8F
:101AE000BA01BA0A7E2D01300310B60DB70DFF3EC4
:101AF000031D742D0130FF007F08BA07B71F812D29
:101B0000822D732D37083902031D882D36083802BF
:101B1000031C8B2D8C2D922D3608B8023708031C20
:101B2000B903B90201300310B70CB60CFF3E031D18
:101B3000932D0130BA02031D9E2D9F2D822D3B084F
:101B40000319A32DA42DA92DB809B909B80A0319A1
:101B5000B90A3908B7003808B60008008312031321
:101B6000D41CB32DB42D092E53088038FF007F08F4
:101B7000C900C8010A30FF007F08C700C6010A1269
:101B80008A15D4200A128A158312031348080319F0
:101B9000CA2DCB2DD22DA2300A128A15C3230A12C8
:101BA0008A15D82DA0300A128A15C3230A128A1565
:101BB0008312031347080A128A15C3230A128A15CF
:101BC0008312031349080A128A15C3230A128A15BD
:101BD0000A128A15E9200A128A150130FF007F08CF
:101BE00083120313C6070A30BA000030BB000A1282
:101BF0008A15FA240A128A15831203134906031957
:101C0000022E032E092E0A304602031C082E092E2E
:101C1000BF2D080083120313B700B801F730FF008F
:101C20007F0887058316031307168312031307160D
:101C3000B90187150A128A155E200A128A158312C5
:101C40000313070E0139B6003908073C013E2A2E5E
:101C50000310B60DFF3E031D282E3608FF007F0837
:101C6000B804F730FF007F0887050130FF007F08C8
:101C7000B90708303902031C3E2E3F2E192EEF30D3
:101C8000FF007F08831603138705831203133708A9
:101C900003194B2E4C2E512EEF30FF007F08870585
:101CA000522E07160A128A155E200A128A1583120E
:101CB000031387150A128A155E200A128A15F73057
:101CC000FF007F08831203138705380808000A12F3
:101CD0008A15AE210A128A150230831203134406B4
:101CE000031D732E742EC92E8830BC001330BD0026
:101CF000C830BE000030BF000A128A1522220A1224
:101D00008A15831203130608C20002300310C20CA6
:101D1000FF3E031D862E42188E2E8F2EA82E0608FB
:101D2000C20001300310C20CFF3E031D922E421C64
:101D30009A2E9B2EA82E4B3053060319A02EA12EAF
:101D4000A82E0530FF007F08D307C501C50AC92E9C
:101D50000608C20002300310C20CFF3E031DAB2E6A
:101D6000421CB32EB42EC92E0608C2000130031047
:101D7000C20CFF3E031DB72E4218BF2EC02EC92E27
:101D8000233053060319C52EC62EC92E0530D302A3
:101D9000A52E080083120313B1010030F6000030B5
:101DA000F5000030F4001430F3000530FF007F0828
:101DB000F00031080A128A15BF200A128A15023E65
:101DC00084000A128A1500200A128A15F7000A12E6
:101DD0008A1500200A128A15F8000A128A150020B6
:101DE0000A128A15F9000A128A1500200A128A15A9
:101DF000FA000A128A1530270A128A157608831209
:101E00000313A8007508A7007408A6007308A500AE
:101E10003008AC002F08AB002E08AA002D08A9003E
:101E20000A128A15A4240A128A1583120313280899
:101E3000270426042504031D1E2F1F2F252F3108DC
:101E4000D03E840083138001800A0130FF007F08A8
:101E5000B10703303102031C2E2F2F2FCD2E080087
:101E6000003083120313A3000030A2000030A10051
:101E70000030A00076087504740473040319412F20
:101E8000422F8F2FA401A40A522F0130FB00031010
:101E9000F30DF40DF50DF60DFB0B472F0130FF0090
:101EA0007F08A407F61F552F562F452F0130FB0042
:101EB0000310A00DA10DA20DA30DFB0B582F76084A
:101EC0007A02031D6D2F75087902031D6D2F7408AA
:101ED0007802031D6D2F73087702031C702F712F7A
:101EE000802F7308F7027408031C740FF80275083A
:101EF000031C750FF9027608031C760FFA022014F2
:101F000001300310F60CF50CF40CF30CFF3E031D2E
:101F1000812F0130A402031D8E2F8F2F562F2308EF
:101F2000F6002208F5002108F4002008F30008005C
:101F3000003083120313C2000030C1000030C00023
:101F40000030BF0039083804370436040319A92FBC
:101F5000AA2FF72FC301C30ABA2F0130BE00031006
:101F6000B60DB70DB80DB90DBE0BAF2F0130FF0088
:101F70007F08C307B91FBD2FBE2FAD2F0130BE0094
:101F80000310BF0DC00DC10DC20DBE0BC02F39080F
:101F90003D02031DD52F38083C02031DD52F3708FD
:101FA0003B02031DD52F36083A02031CD82FD92F28
:101FB000E82F3608BA023708031C370FBB0238086F
:101FC000031C380FBC023908031C390FBD023F1433
:101FD00001300310B90CB80CB70CB60CFF3E031D52
:101FE000E92F0130C302031DF62FF72FBE2F420841
:101FF000B9004108B8004008B7003F08B600080023
:02400E003A3F37
:00000001FF
