:020000040000FA
:060000000A128A11122809
:10000800FE00030E83120313A9000408AA000A08BD
:10001800AB007F08AC000A128A15DB2A0A128A1183
:1000280015280A128A154D210A128A11DF000A12B0
:100038008A154E210A128A11E0000A128A154F21E8
:100048000A128A11E1000A128A1550210A128A112D
:10005800E2008313A0308400CE300A128A155E2194
:100068000A128A11543084005F300A128A155E2100
:100078000A128A1183010A128A15DC2BFF0000304C
:100088008A007F08820747280A128A15A1290A12BE
:100098008A1551290A128A157C29831203133E08EE
:1000A8008039FF007F0883160313CE0083120313E1
:1000B8003E08C3004307FF007F0883160313D400DC
:1000C80083120313BD1F69286A286D28831603133A
:1000D80054148316031354080319732874288628A4
:1000E800540A031D782879288328003083120313C3
:1000F800BE000030BD000030BC000030BB008312E1
:10010800BD179028003083120313BE000030BD00D5
:100118000030BC000030BB0042088039FF007F0877
:1001280083160313CE06831203134208C300430742
:10013800FF007F0883160313CF0083120313C11F28
:10014800A628A728AA28831603134F148316031377
:100158004F080319B028B128C3284F0A031DB52832
:10016800B628C028003083120313C2000030C10033
:100178000030C0000030BF008312C117CD28003006
:1001880083120313C2000030C1000030C0000030E9
:10019800BF00831603134F080319D328D428D9287E
:1001A8005408031DD828D928E428003083120313E3
:1001B800BE000030BD000030BC000030BB00A72DE1
:1001C800831203133B08FF007F08AD0041080A12A1
:1001D8008A1526230A128A11831203132E088316FE
:1001E8000313DA00831203132D0883160313D900AF
:1001F800590883120313C300C401C501C601460888
:1002080083160313D30083120313450883160313BD
:10021800D20083120313440883160313D1008312F8
:100228000313430883160313D0005A0883120313D9
:10023800C300C401C501C601460883160313D800CC
:1002480083120313450883160313D700831203137D
:10025800440883160313D600831203134308831636
:100268000313D500831203133C08FF007F08AD0079
:1002780040080A128A1526230A128A1183120313C8
:100288002E0883160313DA00831203132D0883162E
:100298000313D900590883120313C300C401C5010D
:1002A800C601430883160313D007831203134408B7
:1002B80003110318013E0319642983160313D10798
:1002C80083120313450803110318013E03196F290C
:1002D80083160313D2078312031346080311031866
:1002E800013E03197A2983160313D30783120313D4
:1002F800831603135A0883120313C300C401C501EC
:10030800C601430883160313D50783120313440851
:1003180003110318013E0319942983160313D60702
:1003280083120313450803110318013E03199F297B
:1003380083160313D7078312031346080311031800
:10034800013E0319AA2983160313D807831203133E
:1003580083160313831203133D08FF007F08AD00C3
:100368003F080A128A1526230A128A1183120313D8
:100378002E0883160313DA00831203132D0883163D
:100388000313D900590883120313C300C401C5011C
:10039800C601430883160313D007831203134408C6
:1003A80003110318013E0319DC2983160313D1072F
:1003B80083120313450803110318013E0319E729A3
:1003C80083160313D2078312031346080311031875
:1003D800013E0319F22983160313D307831203136B
:1003E800831603135A0883120313C300C401C501FB
:1003F800C601430883160313D50783120313440861
:1004080003110318013E03190C2A83160313D60798
:1004180083120313450803110318013E0319172A11
:1004280083160313D707831203134608031103180F
:10043800013E0319222A83160313D80783120313D4
:1004480083160313083083120313C30003108316A3
:100458000313D00DD10DD20DD30D83120313C30B8B
:100468002A2A3C08FF007F08AD003F080A128A15B7
:1004780026230A128A11831203132E0883160313E4
:10048800DA00831203132D0883160313D9005908C1
:1004980083120313C300831603135A08831203132A
:1004A800C400C501C601430883160313D00783128D
:1004B8000313440803110318013E0319662A83161F
:1004C8000313D10783120313450803110318013ED0
:1004D8000319712A83160313D207831203134608DC
:1004E80003110318013E03197C2A83160313D3074B
:1004F8008312031383160313831203133B08FF00AD
:100508007F08AD0040080A128A1526230A128A11AC
:10051800831203132E0883160313DA0083120313BE
:100528002D0883160313D900590883120313C30037
:10053800831603135A0883120313C400C501C601A6
:10054800430883160313D0078312031344080311C7
:100558000318013E0319B32A83160313D107831224
:100568000313450803110318013E0319BE2A831615
:100578000313D20783120313460803110318013E1D
:100588000319C92A83160313D30783120313831687
:100598000313083083120313C300031083160313D5
:1005A800D00DD10DD20DD30D83120313C30BD12A55
:1005B8003B08FF007F08AD003F080A128A15262372
:1005C8000A128A11831203132E0883160313DA0002
:1005D800831203132D0883160313D90059088312B5
:1005E8000313C300831603135A0883120313C400AA
:1005F800C501C601430883160313D00783120313EA
:10060800440803110318013E03190D2B8316031325
:10061800D10783120313450803110318013E031978
:10062800182B83160313D2078312031346080311EA
:100638000318013E0319232B83160313D3078312D0
:10064800031383160313831203133C08FF007F0868
:10065800AD0041080A128A1526230A128A1183124C
:1006680003132E0883160313DA00831203132D08CD
:1006780083160313D900590883120313C300831682
:1006880003135A0883120313C400C501C6014308A3
:1006980083160313D50783120313440803110318A1
:1006A800013E03195A2B83160313D607831203132B
:1006B800450803110318013E0319652B831603131C
:1006C800D70783120313460803110318013E0319C1
:1006D800702B83160313D80783120313831603138F
:1006E800831203133D08FF007F08AD0040080A127B
:1006F8008A1526230A128A11831203132E088316D9
:100708000313DA00831203132D0883160313D90089
:10071800590883120313C300831603135A0883125C
:100728000313C400C501C601430883160313D50784
:1007380083120313440803110318013E0319A72B5E
:1007480083160313D60783120313450803110318EE
:10075800013E0319B22B83160313D7078312031321
:10076800460803110318013E0319BD2B8316031312
:10077800D8078312031383160313831203133D0848
:10078800FF007F08AD0041080A128A1526230A12C5
:100798008A11831203132E0883160313DA008312B7
:1007A80003132D0883160313D90059088312031362
:1007B800C300831603135A0883120313C400C50128
:1007C800C60108300310C30DC40DC50DC60DFF3E8C
:1007D800031DE62B430883160313D507831203135F
:1007E800440803110318013E0319FD2B8316031354
:1007F800D60783120313450803110318013E031992
:10080800082C83160313D707831203134608031112
:100818000318013E0319132C83160313D8078312F8
:10082800031383160313500883120313C30083169C
:100838000313510883120313C400831603135208C9
:1008480083120313C500831603135308831203137B
:10085800C60018300310C60CC50CC40CC30CFF3EF0
:10086800031D2E2C430883160313D5078312031385
:10087800440803110318013E0319452C831603137A
:10088800D60783120313450803110318013E031901
:10089800502C83160313D70783120313460803113A
:1008A8000318013E03195B2C83160313D807831220
:1008B800031383160313083083120313C3000310B2
:1008C80083160313D00DD10DD20DD30D831203134C
:1008D800C30B632C8316031354084F0783120313A7
:1008E800C300C401C40D4308823E83160313D90014
:1008F8008312031344080318013EFF3E83160313B3
:10090800DA00B32C013083120313C30003108316DB
:100918000313D50DD60DD70DD80D83120313C30BB2
:100928008A2C83160313D31F9A2C9B2C9C2C5514AA
:10093800013083120313C300031083160313D00D71
:10094800D10DD20DD30D83120313C30BA02CFF308E
:1009580083160313D9070318DA0AFF30DA07D71FFB
:10096800B62CB72C862CCF01D31FBB2CBC2CEA2C61
:10097800FF30500583120313C300FF30831603139F
:10098800510583120313C400FF3083160313520565
:1009980083120313C5007F30831603135305831294
:1009A8000313C60046084504440443040319DD2C18
:1009B800DE2CE32C83160313CF01CF0AEA2C83160F
:1009C8000313551CE82CE92CEA2CDE2C4F080319DC
:1009D800EE2CEF2C3C2D0130D507003003180130E8
:1009E800D607003003180130D7070030031801304C
:1009F800D807581C002D012D3C2D550883120313D0
:100A0800C30083160313560883120313C400831606
:100A18000313570883120313C500831603135808DA
:100A280083120313C6000130C700460DC60CC50C5F
:100A3800C40CC30CC70B192D460883160313D80022
:100A480083120313450883160313D7008312031375
:100A5800440883160313D60083120313430883162E
:100A68000313D5000130D9070318DA0A0030DA0772
:100A78005A08803AFF0080307F02031D452DFF3061
:100A88005902031C482D492D542D7F30831603131A
:100A9800D8008030D7000030D6000030D5008D2D2A
:100AA800831603135A08803AFF0080307F02031D23
:100AB8005F2D013059020318622D632D6F2D003010
:100AC80083160313D8000030D7000030D60000305A
:100AD800D500CE018D2D831603135908FF007F081A
:100AE800D400FF30D505FF30D6057F30D70500305C
:100AF800D805541C802D812D822DD71754088312B8
:100B08000313C3000310430CFF007F08831603136D
:100B1800D8004E08FF007F08D80458088312031332
:100B2800BE0083160313570883120313BD008316F0
:100B38000313560883120313BC00831603135508C6
:100B480083120313BB00080083120313BC01BE0108
:100B5800BD01831603134803031DB32DB42DBD2D0A
:100B6800831203135B08FF007F08BE00D901D90A6E
:100B7800D42D02304806031DC22DC32DCA2D831261
:100B880003135C08FF007F08BE00D42D4808031D2E
:100B9800CE2DCF2DD42D0A128A1566210A128A115C
:100BA8008316031348080319DA2DDB2D722E8312DE
:100BB80003135903031DE12DE22D5B2E0A30AD000E
:100BC8000030AE003E08B900BA013908AF003A0853
:100BD800B0000A128A15DC250A128A11831203133F
:100BE8002D08FF007F08BB000A30AD000030AE00C2
:100BF8003E08B900BA013908AF003A08B0000A1235
:100C08008A159F260A128A1183120313E1013B08F1
:100C1800FF007F08BD00EF30FF007F0885058516BF
:100C2800332E3F3088005B2E063088005B2E5B3009
:100C380088005B2E4F3088005B2E663088005B2E64
:100C48006D3088005B2E7D3088005B2E4730880031
:100C58005B2E7F3088005B2E6F3088005B2E3D084E
:100C6800B900BA013A08003A03193B2E5B2E39083D
:100C7800003A0319152E013A0319182E033A0319DD
:100C88001B2E013A03191E2E073A0319212E013A89
:100C98000319242E033A0319272E013A03192A2E81
:100CA8000F3A03192D2E013A0319302E5B2E02300C
:100CB800831603134806031D622E632E722EE83036
:100CC80083120313B3000330B4001430B5000030AE
:100CD800B6000A128A1512240A128A110800831211
:100CE8000313B500350803197A2E7B2E8F2EB01FFB
:100CF8007E2E7F2E8F2E2D09B7002E09B8002F09C2
:100D0800B9003009BA00B70A0319B80A0319B90AB1
:100D18000319BA0A972E3008BA002F08B9002E080E
:100D2800B8002D08B70030082F042E042D04031D29
:100D38009E2E9F2EA82E0030B0000030AF0000304D
:100D4800AE000030AD002E2F9630FF007F08B600B1
:100D5800BA2E0130FF007F08B60701300310BA0C25
:100D6800B90CB80CB70CFF3E031DB22EFE303A0585
:100D7800031DBF2EC02EAD2EDC2E0130FF007F08D4
:100D8800B6070130B707003003180130B807003044
:100D980003180130B907003003180130BA070130D1
:100DA8000310BA0CB90CB80CB70CFF3E031DD42EB7
:100DB800FF303A05031DE12EE22EC12EEE2E013042
:100DC800B6020130B1000310B70DB80DB90DBA0D58
:100DD800B10BE72EB91BF12EF22EF82E0230360297
:100DE8000318F72EF82EE32E3618FB2EFC2E042FB0
:100DF800FF30B705FF30B8057F30B905FF30BA05B9
:100E08000310B60C3608B100B201B301B4011830B2
:100E18000310B10DB20DB30DB40DFF3E031D0C2F21
:100E28003108B7043208B8043308B9043408BA04DE
:100E380035080319202F212F262FB01F242F252FE7
:100E4800262FBA173A08B0003908AF003808AE00A4
:100E58003708AD00080083120313C1000030C50035
:100E68000030C4000030C3000030C2004108BC009C
:100E7800BD01BE01BF016208C00001300310C00DF2
:100E8800FF3E031D422F0310400DA03E84003C0886
:100E980083138000840A3D088000840A3E0880008D
:100EA800840A3F0880000A30AD000030AE006208B6
:100EB800013EAF00003003180130B0000A128A1555
:100EC8004C240A128A11831203132D08FF007F088D
:100ED800E200C6014608BC0001300310BC0DFF3E0D
:100EE800031D712F03103C0DA03E840083130008DE
:100EF800C207840A00080318000F832F842FC30732
:100F0800840A00080318000F8A2F8B2FC407840A4D
:100F180000080318000F912F922FC5070130FF001A
:100F28007F08C6070A304602031C9B2F9C2F6E2F92
:100F38000030B0000030AF000030AE000A30AD0025
:100F48004508B4004408B3004308B2004208B100A1
:100F58000A128A1537260A128A11831203132D08DA
:100F6800FF003B0884007F088313800008000230DC
:100F7800831203135806031DC22FC32FDA2F8316BB
:100F880003134803031DC92FCA2FDA2FE830831231
:100F98000313B3000330B4006430B5000030B6006A
:100FA8000A128A154F230A128A11FE2F8312580338
:100FB800031DDF2FE02FEB2F831603134803031DB8
:100FC800E62FE72FEB2F831203130616FE2F831647
:100FD800031348080319F12FF22FF82F023048069F
:100FE800031DF72FF82FFE2FEF30FF007F08831225
:100FF800031386050800080008308A000408840ADC
:1010080082070034043414340034003400340734C4
:1010180064340034003400340134F43401340034CE
:02102800003492
:10129A000134013401340A340A128A11A8250A12C7
:1012AA008A1508008316031306140B160B10011770
:1012BA00080064008001840A040603190034040645
:1012CA005F29DF30FF007F08831203138505EF30A3
:1012DA00FF007F08850508000230831603134806BD
:1012EA00031D782979297B29C901C90A08000A122C
:1012FA008A157D220A128A150A128A11BB270A1236
:10130A008A150800831603134A1C8C298D299329F0
:10131A00831203131F1583160313CA1408003C30E3
:10132A00FF007F0883120313DC0083160313C8012E
:10133A00C80AC901C90A0800831203135B080A1202
:10134A008A152C250A128A150A128A1588240A1265
:10135A008A150800EF30FF007F0883120313860501
:10136A00DF30FF007F088705FB30FF007F08870515
:10137A000800831203131E0883160313E0001E08D5
:10138A00DF005F080A128A1584270A128A150800E4
:10139A00003083120313AD00AE000330AF000030FB
:1013AA00B000CB300A128A15B9220A128A1508002F
:1013BA0083160313811281110110811401118B16F6
:1013CA000B178B1706308312031381000B110800C9
:1013DA0083160313880105128512DF30FF007F0888
:1013EA00831203138505EF30FF007F088505880106
:1013FA000800F200F101721C032A042A082A700864
:10140A00FF007F08F1070310F00D0310F20C7208B9
:10141A00031D102A112A002A7108080002308316B7
:10142A000313480603191A2A1B2A202A4803031DF4
:10143A001F2A202A222AC801292A4808031D262AE7
:10144A00272A292AC801C80A080083120313AF00F1
:10145A00AE012F1C312A322A362A2D08FF007F08B6
:10146A00AE070310AD0D0310AF0C2F08031D3E2A63
:10147A003F2A2E2A2E080800013083120313D407AC
:10148A00003003180130D507003003180130D607A1
:10149A00003003180130D7075708A3005608A200E6
:1014AA005508A1005408A0000A128A1581250A12BB
:1014BA008A1508008316031305159F178312031351
:1014CA001F179F13831603131F17831203139F11EA
:1014DA001F169F12831603131F109F141F119F11AB
:1014EA00831203131F141F11831603134A140800CF
:1014FA00831603134A1C822A832A9A2ACA1C862A1A
:10150A00872A9A2A4803031D8B2A8C2A9A2A83122D
:10151A0003131F19912A922A9A2A0A128A15BE219E
:10152A000A128A15831203131F1508000430831246
:10153A0003130605AD002D030319A42AA52AAD2A13
:10154A0002300605AD002D03031DAC2AAD2AB82AC8
:10155A00831603134803031DB32AB42AB82A023098
:10156A00FF007F08C800080083120313B200320884
:10157A00FF007F08B100CC2A2D08FF003108840043
:10158A007F08831380000130FF007F08B107013014
:10159A00AF020030031CB003B0022F0A031DD92A80
:1015AA00300A031DD92ADA2AC12A08000B1CDE2AAE
:1015BA00DF2AE62A0B100A128A1513220A128A1542
:1015CA00F22A0B1DE92AEA2AF22A0B1106308100B7
:1015DA000A128A1541220A128A15831203132C0849
:1015EA00FF002B088A002A088400290E8300FE0EB9
:1015FA007E0E090083120313B101B2012D1C062BC2
:10160A00072B0D2B2F08B1070318B20A3008B207AF
:10161A0001300310AF0DB00DFF3E031D0E2B01303C
:10162A000310AE0CAD0CFF3E031D152B2D082E0426
:10163A00031D202B212B032B3208AE003108AD00ED
:10164A00080083120313B500B101B2012D08AF00DF
:10165A00B0012F08B3003008B400351C352B362BE7
:10166A003C2B3308B1070318B20A3408B207013019
:10167A000310B30DB40DFF3E031D3D2B0310B50C33
:10168A003508031D492B4A2B322B3208AE0031088C
:10169A00AD000800831203135F08B700B8013708CA
:1016AA00AD003808AE003608B0003508AF000A129F
:1016BA008A15FF220A128A158312031334082E068A
:1016CA00031D692B33082D06031D6C2B6D2B742B00
:1016DA001030FF007F088606DF01DF0A782B013011
:1016EA00FF007F08DF0708008316031349088312E7
:1016FA000313B700B8013708AD003808AE00360842
:10170A00B0003508AF000A128A15FF220A128A159C
:10171A008312031334082E06031D952B33082D0656
:10172A00031D982B992BA02B83160313C801C80AF3
:10173A00C901C90AA62B0130FF007F0883160313CB
:10174A00C907080083120313D3015308CB3E840050
:10175A0083130003031DB22BB32BD02B0530FF00DC
:10176A007F08AD0053080A128A152A220A128A151E
:10177A00013E84000A128A1500200A128A150A12EA
:10178A008A1142200A128A15831203135308CB3E88
:10179A008400831380010130FF007F08D3070330E0
:1017AA005302031CD92BDA2BAA2BA72B08000A12E7
:1017BA008A11FF270A128A150A128A155F220A124B
:1017CA008A150A128A1557210A128A150A128A15C7
:1017DA00ED210A128A150A128A15AF210A128A15F0
:1017EA000A128A1594210A128A150A128A15872161
:1017FA000A128A150A128A15CD210A128A150A12A4
:10180A008A15DD210A128A150A128A15A7230A12D5
:10181A008A150E2C0A128A111228831203136008E1
:10182A00B700B8013708AD003808AE003608B00076
:10183A003508AF000A128A15FF220A128A15831286
:10184A00031334082E06031D2C2C33082D06031D02
:10185A002F2C302C472C5903031D342C352C3C2CAF
:10186A00D9010A128A1566210A128A15432C5908C7
:10187A00031D402C412C432CD901D90A831203138E
:10188A00E001E00A0130FF007F08E0070800831248
:10189A0003132D082E040319532C542C832CB10145
:1018AA00B10A622C01300310AD0DAE0DFF3E031DCF
:1018BA00582C0130FF007F08B107AE1F652C662C3B
:1018CA00572C2E083002031D6C2C2D082F02031CE6
:1018DA006F2C702C762C2D08AF022E08031CB00337
:1018EA00B00201300310AE0CAD0CFF3E031D772C85
:1018FA000130B102031D822C832C662C3008AE0005
:10190A002F08AD0008000A128A159B220A128A15AE
:10191A000230831603134806031D942C952CD72CEA
:10192A00883083120313B3001330B400F430B500C7
:10193A000130B6000A128A1579230A128A15043070
:10194A00831203130605B9003903031DAD2CAE2C0F
:10195A00C22C8618B12CB22CC22C4B305C0603194F
:10196A00B72CB82CC22C0530FF007F08DC070A12FE
:10197A008A1571210A128A15D72C0619C52CC62C6C
:10198A00D72C02300605B9003903031DCD2CCE2C05
:10199A00D72C23305C060319D32CD42CD72C053032
:1019AA00DC02BC2C0800760875047404730403195D
:1019BA00DF2CE02C232DFC01FC0AF02C0130FB006B
:1019CA000310F30DF40DF50DF60DFB0BE52C0130AC
:1019DA00FF007F08FC07F61FF32CF42CE32C760893
:1019EA007A02031D022D75087902031D022D74085F
:1019FA007802031D022D73087702031C052D062D9C
:101A0A00142D7308F7027408031C740FF802750882
:101A1A00031C750FF9027608031C760FFA020130CF
:101A2A000310F60CF50CF40CF30CFF3E031D152DF8
:101A3A000130FC02031D222D232DF42C7A08F60016
:101A4A007908F5007808F4007708F3000800831293
:101A5A000313B1005D1C322D332D772D831603132A
:101A6A004803031D392D3A2D772D831203135C0881
:101A7A00FB3EAD00FF3003180030AE003108AF0066
:101A8A00B0012E083002031D4C2D2D082F02031819
:101A9A004F2D502D5A2DFB30FF007F0887058716E2
:101AAA000230FF007F08D800802D3108AD00AE015A
:101ABA005C08053EAF00003003180130B0002E0864
:101ACA003002031D6A2D2D082F0203186D2D6E2D6D
:101ADA00802DDF30FF007F08870507150616D8011D
:101AEA00D80A802DFB30FF007F0883128705DF307C
:101AFA00FF007F0887050800831203132308A70045
:101B0A002208A6002108A5002008A400A801053083
:101B1A00FF007F08F00028080A128A15FE210A121F
:101B2A008A15023E84000A128A1500200A128A15B2
:101B3A00F3000A128A1500200A128A15F4000A1202
:101B4A008A1500200A128A15F5000A128A15002041
:101B5A000A128A15F600831203132708FA002608C8
:101B6A00F9002508F8002408F7000A128A15D82473
:101B7A000A128A157608750474047304031DC62DA7
:101B8A00C72DCF2D831203132808CB3E840083135D
:101B9A008001800A0130FF007F0883120313A8071F
:101BAA0003302802031CDA2DDB2D8C2D080083124A
:101BBA000313B201B01FE22DE32DEA2DAF09B009DC
:101BCA00AF0A0319B00AB201B20AAE1FED2DEE2D0B
:101BDA00F32DAD09AE09AD0A0319AE0A2D082E047C
:101BEA000319F82DF92D282EB101B10A072E01305B
:101BFA000310AD0DAE0DFF3E031DFD2D0130FF009C
:101C0A007F08B107AE1F0A2E0B2EFC2D2E083002BC
:101C1A00031D112E2D082F02031C142E152E1B2E08
:101C2A002D08AF022E08031CB003B00201300310C6
:101C3A00AE0CAD0CFF3E031D1C2E0130B102031D7C
:101C4A00272E282E0B2E320803192C2E2D2E322E3B
:101C5A00AF09B009AF0A0319B00A3008AE002F085D
:101C6A00AD000800003083120313B9000030B80039
:101C7A000030B7000030B60030082F042E042D04BF
:101C8A000319482E492E962EBA01BA0A592E013046
:101C9A00B5000310AD0DAE0DAF0DB00DB50B4E2E48
:101CAA000130FF007F08BA07B01F5C2E5D2E4C2E54
:101CBA000130B5000310B60DB70DB80DB90DB50B4F
:101CCA005F2E30083402031D742E2F083302031DC1
:101CDA00742E2E083202031D742E2D083102031CA5
:101CEA00772E782E872E2D08B1022E08031C2E0F70
:101CFA00B2022F08031C2F0FB3023008031C300F47
:101D0A00B402361401300310B00CAF0CAE0CAD0C9B
:101D1A00FF3E031D882E0130BA02031D952E962E12
:101D2A005D2E3908B0003808AF003708AE00360813
:101D3A00AD00080083120313B201AE1FA52EA62E12
:101D4A00AD2EAD09AE09AD0A0319AE0AB201B20A47
:101D5A00B01FB02EB12EBA2EAF09B009AF0A0319BF
:101D6A00B00A0130FF007F08B206B301B4012D08A2
:101D7A002E040319C12EC22EF92EB101B10AD02E9A
:101D8A0001300310AD0DAE0DFF3E031DC62E01300E
:101D9A00FF007F08B107AE1FD32ED42EC52E013007
:101DAA000310B30DB40DFF3E031DD52E2E083002CD
:101DBA00031DE12E2D082F02031CE42EE52EEC2E26
:101DCA002D08AF022E08031CB003B00233140130F1
:101DDA000310AE0CAD0CFF3E031DED2E0130B10217
:101DEA00031DF82EF92ED42E32080319FD2EFE2ECD
:101DFA00032FB309B409B30A0319B40A3408AE00AD
:101E0A003308AD0008000310831203134A0D4B0D6B
:101E1A00FF007F08D1005108031D142F152F1E2F14
:101E2A000030CB000030CA000030C9000030C800C2
:101E3A00832F4808CC004908CD004A08CE004B0839
:101E4A00CF001F300310CF0CCE0CCD0CCC0CFF3EB4
:101E5A00031D272F4C08FF007F08D000CA17FF3048
:101E6A00C805FF30C905FF30CA050030CB059630DA
:101E7A00D102D11F412F422F5C2F5108803A973E41
:101E8A000318482F492F4A2F152F01300310CB0C66
:101E9A00CA0CC90CC80CFF3E031D4B2F0130FF00B2
:101EAA007F08D107031D5A2F5B2F4A2F732F20302B
:101EBA005102031C612F622F6E2F152F0130CC00A7
:101ECA000310C80DC90DCA0DCB0DCC0B652F0130FF
:101EDA00D1025108031D722F732F632F5008031963
:101EEA00772F782F832FC809C909CA09CB09C80ACD
:101EFA000319C90A0319CA0A0319CB0A080083126B
:101F0A000313D200520883160313DB00DC01DD0140
:101F1A00DE015E0883120313B000831603135D0803
:101F2A0083120313AF00831603135C08831203138F
:101F3A00AE00831603135B0883120313AD0001304E
:101F4A000A128A1173260A128A1583120313300899
:101F5A00C2002F08C1002E08C0002D08BF003E3065
:101F6A00BE00F930BD00F530BC005A30BB000A1281
:101F7A008A1151200A128A15831203133E08CB00D4
:101F8A003D08CA003C08C9003B08C8000A128A1565
:101F9A0008270A128A15831203134808FF007F08CC
:101FAA00DA005B30FF007F08BB005A080A128A1168
:101FBA002F270A128A150A3083120313AD00003044
:101FCA00AE005E08013EAF00003003180130B000D9
:101FDA000A128A154C240A128A15831203132D0831
:101FEA00FF007F08DE0009305E06031DFD2FFE2F6D
:061FFA00FF2F5D1408003A
:02400E003A3F37
:00000001FF
