:020000040000FA
:060000000A128A11122809
:10000800FE00030E83120313B2000408B3000A08AB
:10001800B4007F08B5000A128A15532B0A128A11F8
:1000280015280A128A15A5200A128A11D6000A1262
:100038008A15A6200A128A11D7000A128A15A72043
:100048000A128A11D8000A128A15A8200A128A11DF
:10005800D9008313A0308400D3300A128A15C32034
:100068000A128A114430840056300A128A15C320B5
:100078000A128A1183010A128A15A12CFF00003086
:100088008A007F0882074728482849280A128A15C3
:10009800F3280A128A15B5280A128A154129FF0081
:1000A80000308A007F08820758280A128A15892991
:1000B8000A128A15F72A8316031356088039FF0097
:1000C8007F08E0005608DB005B07FF007F08E600BA
:1000D800D51F6F28702871286614660803197528BB
:1000E80076288528660A031D7A287B28832800300D
:1000F800D6000030D5000030D4000030D300D5172A
:100108008D280030D6000030D5000030D4000030F3
:10011800D3005A088039FF007F08E0065A08DB0040
:100128005B07FF007F08E100D91F9B289C289D28BA
:10013800611461080319A128A228B128610A031DC6
:10014800A628A728AF280030DA000030D9000030F0
:10015800D8000030D700D917B9280030DA000030AD
:10016800D9000030D8000030D70061080319BD2835
:10017800BE28C3286608031DC228C328CC2800301F
:10018800D6000030D5000030D4000030D300192C40
:100198005308FF007F0883120313B6008316031366
:1001A80059080A128A1579220A128A11831203132E
:1001B800370883160313EC008312031336088316DB
:1001C8000313EB006B08DB00DC01DD01DE015E08D8
:1001D800E5005D08E4005C08E3005B08E2006C08E9
:1001E800DB00DC01DD01DE015E08EA005D08E900F4
:1001F8005C08E8005B08E7005408FF007F088312EA
:100208000313B6008316031358080A128A157922B5
:100218000A128A1183120313370883160313EC009A
:1002280083120313360883160313EB006B08DB00F5
:10023800DC01DD01DE015B08E2075C08031103183D
:10024800013E03192829E3075D0803110318013E3D
:1002580003192F29E4075E0803110318013E031947
:100268003629E5076C08DB00DC01DD01DE015B08EF
:10027800E7075C0803110318013E03194429E8073E
:100288005D0803110318013E03194B29E9075E08AD
:1002980003110318013E03195229EA075508FF0004
:1002A8007F0883120313B6008316031357080A1234
:1002B8008A1579220A128A118312031337088316C2
:1002C8000313EC0083120313360883160313EB00A1
:1002D8006B08DB00DC01DD01DE015B08E2075C087E
:1002E80003110318013E03197A29E3075D08031176
:1002F8000318013E03198129E4075E080311031856
:10030800013E03198829E5076C08DB00DC01DD01E3
:10031800DE015B08E7075C0803110318013E0319B7
:100328009629E8075D0803110318013E03199D2962
:10033800E9075E0803110318013E0319A429EA0717
:100348000830DB000310E20DE30DE40DE50DDB0BD7
:10035800A6295408FF007F0883120313B6008316EA
:10036800031357080A128A1579220A128A1183126E
:100378000313370883160313EC008312031336089C
:1003880083160313EB006B08DB006C08DC00DD014F
:10039800DE015B08E2075C0803110318013E03193C
:1003A800D629E3075D0803110318013E0319DD2967
:1003B800E4075E0803110318013E0319E429E50761
:1003C8005308FF007F0883120313B6008316031334
:1003D80058080A128A1579220A128A1183120313FD
:1003E800370883160313EC008312031336088316A9
:1003F8000313EB006B08DB006C08DC00DD01DE0199
:100408005B08E2075C0803110318013E03190D2A73
:10041800E3075D0803110318013E0319142AE407D2
:100428005E0803110318013E03191B2AE50708306B
:10043800DB000310E20DE30DE40DE50DDB0B1D2AD7
:100448005308FF007F0883120313B60083160313B3
:1004580057080A128A1579220A128A11831203137D
:10046800370883160313EC00831203133608831628
:100478000313EB006B08DB006C08DC00DD01DE0118
:100488005B08E2075C0803110318013E03194D2AB3
:10049800E3075D0803110318013E0319542AE40712
:1004A8005E0803110318013E03195B2AE507540887
:1004B800FF007F0883120313B6008316031359083D
:1004C8000A128A1579220A128A118312031337082D
:1004D80083160313EC0083120313360883160313E1
:1004E800EB006B08DB006C08DC00DD01DE015B085B
:1004F800E7075C0803110318013E0319842AE8077B
:100508005D0803110318013E03198B2AE9075E08E9
:1005180003110318013E0319922AEA075508FF0040
:100528007F0883120313B6008316031358080A12B0
:100538008A1579220A128A1183120313370883163F
:100548000313EC0083120313360883160313EB001E
:100558006B08DB006C08DC00DD01DE015B08E707E7
:100568005C0803110318013E0319BB2AE8075D085C
:1005780003110318013E0319C22AE9075E08031193
:100588000318013E0319C92AEA075508FF007F0826
:1005980083120313B6008316031359080A128A1527
:1005A80079220A128A118312031337088316031358
:1005B800EC0083120313360883160313EB006B0851
:1005C800DB006C08DC00DD01DE0108300310DB0D08
:1005D800DC0DDD0DDE0DFF3E031DEA2A5B08E70793
:1005E8005C0803110318013E0319FB2AE8075D089C
:1005F80003110318013E0319022BE9075E080311D2
:100608000318013E0319092BEA076208DB00630897
:10061800DC006408DD006508DE0018300310DE0C1D
:10062800DD0CDC0CDB0CFF3E031D122B5B08E7071F
:100638005C0803110318013E0319232BE8075D0822
:1006480003110318013E03192A2BE9075E08031159
:100658000318013E0319312BEA070830DB000310A9
:10066800E20DE30DE40DE50DDB0B332B66086107A6
:10067800DB00DC01DC0D5B08823EEB005C08031844
:10068800013EFF3EEC00652B0130DB000310E70D57
:10069800E80DE90DEA0DDB0B4A2BE51F542B552B12
:1006A800562B67140130DB000310E20DE30DE40D57
:1006B800E50DDB0B582BFF30EB070318EC0AFF3076
:1006C800EC07E91F682B692B482BE101E51F6D2B0F
:1006D8006E2B8A2BFF306205DB00FF306305DC00E0
:1006E800FF306405DD007F306505DE005E085D04CF
:1006F8005C045B040319812B822B852BE101E10A41
:100708008A2B671C882B892B8A2B822B610803195B
:100718008E2B8F2BC02B0130E707003003180130D8
:10072800E807003003180130E907003003180130EA
:10073800EA076A1CA02BA12BC02B6708DB006808FE
:10074800DC006908DD006A08DE000130DF005E0DAC
:10075800DE0CDD0CDC0CDB0CDF0BAB2B5E08EA00DF
:100768005D08E9005C08E8005B08E7000130EB077A
:100778000318EC0A0030EC076C08803AFF00803060
:100788007F02031DC92BFF306B02031CCC2BCD2B22
:10079800D82B7F3083160313EA008030E90000303D
:1007A800E8000030E7000D2C831603136C08803A2C
:1007B800FF0080307F02031DE32B01306B0203181A
:1007C800E62BE72BF32B003083160313EA000030E7
:1007D800E9000030E8000030E700E0010D2C831646
:1007E80003136B08FF007F08E600FF30E705FF30C2
:1007F800E8057F30E9050030EA05661C042C052C65
:10080800062CE9176608DB0003105B0CFF007F0865
:10081800EA006008FF007F08EA046A08D600690851
:10082800D5006808D4006708D300080083120313B2
:10083800BE003E080319212C222C362CB91F252C6A
:10084800262C362C3609C0003709C1003809C200E9
:100858003909C300C00A0319C10A0319C20A0319D6
:10086800C30A3E2C3908C3003808C2003708C10043
:100878003608C0003908380437043604031D452CEF
:10088800462C4F2C0030B9000030B8000030B700BB
:100898000030B600D52C9630FF007F08BF00612CD1
:1008A8000130FF007F08BF0701300310C30CC20CE2
:1008B800C10CC00CFF3E031D592CFE304305031D1F
:1008C800662C672C542C832C0130FF007F08BF074F
:1008D8000130C007003003180130C1070030031889
:1008E8000130C207003003180130C307013003107C
:1008F800C30CC20CC10CC00CFF3E031D7B2CFF3087
:100908004305031D882C892C682C952C0130BF02C7
:100918000130BA000310C00DC10DC20DC30DBA0BD2
:100928008E2CC21B982C992C9F2C02303F02031846
:100938009E2C9F2C8A2C3F18A22CA32CAB2CFF306A
:10094800C005FF30C1057F30C205FF30C305031065
:10095800BF0C3F08BA00BB01BC01BD011830031031
:10096800BA0DBB0DBC0DBD0DFF3E031DB32C3A08DF
:10097800C0043B08C1043C08C2043D08C3043E0847
:100988000319C72CC82CCD2CB91FCB2CCC2CCD2CA3
:10099800C3174308B9004208B8004108B700400827
:1009A800B600080083160313D9000030CF000030CA
:1009B800CE000030CD000030CC005908D400D5015D
:1009C800D601D70183120313580883160313D800DE
:1009D80001300310D80DFF3E031DED2C0310580DF8
:1009E800A03E8400540883138000840A55088000C0
:1009F800840A56088000840A570880000A30831247
:100A08000313B6000030B7005808013EB8000030A4
:100A180003180130B9000A128A1565240A128A11CE
:100A2800831203133608FF007F08D80083160313C8
:100A3800DA015A08D40001300310D40DFF3E031D1B
:100A4800202D0310540DA03E840083130008CC070A
:100A5800840A00080318000F322D332DCD07840AAD
:100A680000080318000F392D3A2DCE07840A000814
:100A78000318000F402D412DCF070130FF007F08DC
:100A8800DA070A305A02031C4A2D4B2D1D2D00305F
:100A980083120313B9000030B8000030B7000A30E1
:100AA800B600831603134F0883120313BD00831681
:100AB80003134E0883120313BC00831603134D0857
:100AC80083120313BB00831603134C08831203130A
:100AD800BA000A128A1116270A128A1183120313FE
:100AE8003608FF0083160313530884007F08831316
:100AF8008000080083120313500883160317980018
:100B080099019A019B011B0883120313B9008316EC
:100B180003171A0883120313B8008316031719085A
:100B280083120313B70083160317180883120313DD
:100B3800B60001300A128A111A240A128A11831285
:100B48000313390883160313DA00831203133808D2
:100B580083160313D900831203133708831603136C
:100B6800D80083120313360883160313D7003E30C8
:100B7800D600F930D500F530D4005A30D3000A1227
:100B88008A115F200A128A118316031356088316E6
:100B9800031793008316031355088316031792004F
:100BA800831603135408831603179100831603133F
:100BB80053088316031790000A128A111B260A127B
:100BC8008A11831603171008FF007F088312031386
:100BD800CE004F30FF007F0883160313D300831223
:100BE80003134E080A128A11D6240A128A110A30EF
:100BF80083120313B6000030B7005308013EB80053
:100C0800003003180130B9000A128A1565240A1247
:100C18008A11831203133608FF007F08D3000930B6
:100C28005306031D182E192E1A2E521408000310ED
:100C380083160317120D130DFF007F088316031385
:100C4800EE006E08031D292E2A2E352E003083163D
:100C5800031793000030920000309100003090009C
:100C6800AC2E83160317100894001108950012087B
:100C78009600130897001F300310970C960C950CDC
:100C8800940CFF3E031D402E1408FF007F088316B6
:100C98000313ED00831603179217FF309005FF30FA
:100CA8009105FF30920500309305963083160313A3
:100CB800EE02EE1F602E612E7F2E6E08803A973E60
:100CC8000318672E682E692E2A2E0130031083160A
:100CD8000317930C920C910C900CFF3E031D6A2E87
:100CE8000130FF007F0883160313EE07031D7D2ED6
:100CF8007E2E692E9A2E20306E02031C842E852E9D
:100D0800952E2A2E01308316031794000310900D98
:100D1800910D920D930D940B8A2E013083160313B7
:100D2800EE026E08031D992E9A2E862E6D08031961
:100D38009E2E9F2EAC2E83160317900991099209B7
:100D48009309900A0319910A0319920A0319930A3D
:100D5800080083120313BB01B71FB32EB42EBB2E9A
:100D6800B609B709B60A0319B70ABB01BB0AB91F06
:100D7800BE2EBF2EC82EB809B909B80A0319B90A78
:100D88000130FF007F08BB06BC01BD0136083704EF
:100D98000319CF2ED02E072FBA01BA0ADE2E013042
:100DA8000310B60DB70DFF3E031DD42E0130FF0012
:100DB8007F08BA07B71FE12EE22ED32E01300310A9
:100DC800BC0DBD0DFF3E031DE32E37083902031D80
:100DD800EF2E36083802031CF22EF32EFA2E3608B0
:100DE800B8023708031CB903B9023C1401300310D8
:100DF800B70CB60CFF3E031DFB2E0130BA02031DD3
:100E0800062F072FE22E3B0803190B2F0C2F112F4B
:100E1800BC09BD09BC0A0319BD0A3D08B7003C0856
:100E2800B6000800003083120313C2000030C1006E
:100E38000030C0000030BF003908380437043604D9
:100E48000319272F282F752FC301C30A382F013004
:100E5800BE000310B60DB70DB80DB90DBE0B2D2F82
:100E68000130FF007F08C307B91F3B2F3C2F2B2FF2
:100E78000130BE000310BF0DC00DC10DC20DBE0B69
:100E88003E2F39083D02031D532F38083C02031D2D
:100E9800532F37083B02031D532F36083A02031C11
:100EA800562F572F662F3608BA023708031C370FFC
:100EB800BB023808031C380FBC023908031C390F61
:100EC800BD023F1401300310B90CB80CB70CB60CB6
:100ED800FF3E031D672F0130C302031D742F752FBA
:100EE8003C2F4208B9004108B8004008B7003F0845
:100EF800B6000800003083120313A3000030A200DC
:100F08000030A1000030A000760875047404730452
:100F180003198F2F902FDD2FA401A40AA02F0130D1
:100F2800FB000310F30DF40DF50DF60DFB0B952FDB
:100F38000130FF007F08A407F61FA32FA42F932FCB
:100F48000130FB000310A00DA10DA20DA30DFB0B9A
:100F5800A62F76087A02031DBB2F75087902031D98
:100F6800BB2F74087802031DBB2F73087702031C7C
:100F7800BE2FBF2FCE2F7308F7027408031C740FFF
:100F8800F8027508031C750FF9027608031C760F22
:100F9800FA02201401300310F60CF50CF40CF30CD3
:100FA800FF3E031DCF2F0130A402031DDC2FDD2FD0
:100FB800A42F2308F6002208F5002108F4002008D1
:100FC800F300080083120313D21CEB2FEC2FFD2F24
:100FD8005108FF007F08C9000A30FF007F08B700EA
:100FE80049080A128A1585230A128A1183120313E3
:040FF800D21008000B
:1010000008308A000408840A820700340634143445
:1010100000340034003409346434003400340034C3
:0E1020000334F4340134003400340134043459
:1011420083120313D4010800013401340A34013438
:1011520083120313B6003608930008000B16831699
:10116200031301178B1008000A128A15C3250A12ED
:101172008A150800831203138C1DC028C128BB28BE
:101182008C11080064008001840A040603190034EB
:101192000406C428831203134D1CD028D128D32857
:1011A2001F15CD1408008316031391161116111A78
:1011B200DB28DC28D8280800831603131114111821
:1011C200E328E428E028831203138C110800831615
:1011D200031311151119EE28EF28EB2883120313BC
:1011E2008C1108000A128A15E0240A128A150A12C2
:1011F2008A11E6270A128A15080083120313CB010B
:10120200DF30FF007F088705FB30FF007F0887057E
:101212000800133083160313930083120313141070
:1012220094101411941594160800DF30FF007F0803
:10123200831203138505EF30FF007F0885058801BF
:101242000800831603139115141C2829292925291E
:10125200831203131308FF007F08B6003608080044
:10126200003083120313B600B7000330B800003019
:10127200B900D0300A128A1508220A128A1508000B
:101282000A128A1577260A128A150A128A1561210C
:101292000A128A150A128A159A270A128A15080052
:1012A20083160313811281110114811401158B1607
:1012B2000B178B1764308312031381000B11080084
:1012C200831203135403031D672968296E295030C2
:1012D2000A128A15B7210A128A150A128A117E2564
:1012E2000A128A150800F200F101721C79297A2982
:1012F2007E297008FF007F08F1070310F00D03102C
:10130200F20C7208031D86298729762971080800C4
:101312000230831203135406031990299129962946
:101322005403031D952996299829D4019F2954080D
:10133200031D9C299D299F29D401D40A08008312E8
:101342000313B800B701381CA729A829AC2936080D
:10135200FF007F08B7070310B60D0310B80C38085A
:10136200031DB429B529A4293708080083120313E1
:10137200B600CD1CBD29BE29CE291F19C129C229FB
:10138200CE29831603131E08FF00831203133608A7
:1013920084007F08831380001F150800831603133F
:1013A2009F17831203131F179F13831603131F170D
:1013B200831203139F111F169F12831603131F100C
:1013C2009F141F119F11831203131F141F114D1419
:1013D2000800DF30FF007F08831603138705FB3008
:1013E200FF007F088705EF30FF007F088605DF30AA
:1013F200FF007F088505EF30FF007F088505861412
:1014020006150614051587150716880108008312AC
:101412000313BB003B08FF007F08BA001B2A3608F3
:10142200FF003A0884007F08831380000130FF0028
:101432007F08BA070130B8020030031CB903B902B1
:10144200380A031D282A390A031D282A292A102AA4
:10145200080083120313BA01BB01361C312A322A57
:10146200382A3808BA070318BB0A3908BB07013003
:101472000310B80DB90DFF3E031D392A01300310C8
:10148200B70CB60CFF3E031D402A36083704031D75
:101492004B2A4C2A2E2A3B08B7003A08B60008000D
:1014A200632AE830BC000330BD000A128A15A2226A
:1014B2000A128A15782A0616782AEF30FF007F086A
:1014C2008605782A831203134B08C000C101410824
:1014D200003A03196D2A782A4008003A03195E2A55
:1014E200013A03195C2A033A0319522A782A08009E
:1014F20083120313BE00BA01BB013608B800B9015A
:101502003808BC003908BD003E1C882A892A8F2A67
:101512003C08BA070318BB0A3D08BB070130031099
:10152200BC0DBD0DFF3E031D902A0310BE0C3E08EC
:10153200031D9C2A9D2A852A3B08B7003A08B6005B
:101542000800831203135908BE00BF013E08B6000B
:101552003F08B7006430B8000030B9000A128A159B
:101562002A220A128A15831203133D083706031D25
:10157200BC2A3C083606031DBF2AC02AC72A1030DF
:10158200FF007F088606D901D90ACB2A0130FF0065
:101592007F08D9070800831203135508BE00BF0154
:1015A2003E08B6003F08B700F430B8000130B90079
:1015B2000A128A152A220A128A15831203133D0877
:1015C2003706031DE62A3C083606031DE92AEA2AE5
:1015D200F22AD214D401D40AD501D50A4A10CA106B
:1015E200F62A0130FF007F08D50708000130831674
:1015F2000313C807003003180130C907003003186D
:101602000130CA07003003180130CB074B088312A0
:101612000313B000831603134A0883120313AF00A7
:1016220083160313490883120313AE0083160313B0
:10163200480883120313AD000A128A1534270A12CE
:101642008A150800831203135403031D292B2A2B26
:10165200312B4E08FF007F08C600CC01CC0A522B6A
:1016620002305406031D362B372B452B5108FF0041
:101672007F08C600E830BC000330BD000A128A159C
:101682002A240A128A15522B5408031D492B4A2B6D
:10169200522BDF30FF007F088505EF30FF007F0807
:1016A200850508008B1C562B572B652B8B10103091
:1016B20084000A128A1500200A128A150A128A1157
:1016C20053200A128A15782B0B1D682B692B782B55
:1016D2000B1164308100113084000A128A15002037
:1016E2000A128A150A128A1153200A128A158312C3
:1016F20003133508FF0034088A0033088400320ED1
:101702008300FE0E7E0E090083120313B8000A1234
:101712008A15DD200A128A15A0300A128A15A9201C
:101722000A128A150A128A15BB200A128A15831216
:10173200031337080A128A15A9200A128A150A12F7
:101742008A15BB200A128A158312031338080A125B
:101752008A15A9200A128A150A128A15BB200A12B2
:101762008A150A128A15E8200A128A1508000A3018
:101772000A128A1525250A128A15FF007F0883128C
:101782000313C9004C3049020318C82BC92BEC2B98
:1017920023304902031CCE2BCF2BEC2B0530B60095
:1017A2000030B7004908BC00BD013C08B8003D0844
:1017B200B9000A128A151C260A128A15831203130B
:1017C20036083704031DE62BE72BEC2B4908FF00F4
:1017D2007F08D100F02B3C30FF007F08D1000800C9
:1017E20083160313EF016F08D03E840083130003B6
:1017F200031DFC2BFD2B1E2C0530FF007F088312DE
:101802000313B600831603136F080A128A15A02168
:101812000A128A15013E84000A128A1500200A1251
:101822008A150A128A1142200A128A158316031394
:101832006F08D03E8400831380010130FF007F08CF
:10184200EF0703306F02031C272C282CF42BF12BFB
:101852000800831203135708BE00BF013E08B600FA
:101862003F08B7001430B8000030B9000A128A15D8
:101872002A220A128A15831203133D083706031D12
:10188200442C3C083606031D472C482C602C4C0384
:10189200031D4C2C4D2C572CCC01DF30FF007F0850
:1018A2008505EF30FF007F0885055E2C4C08031D7F
:1018B2005B2C5C2C5E2CCC01CC0AD701D70A013000
:1018C200FF007F08D7070800831203133608370486
:1018D20003196C2C6D2C9C2CBA01BA0A7B2C01309A
:1018E2000310B60DB70DFF3E031D712C0130FF0032
:1018F2007F08BA07B71F7E2C7F2C702C370839025D
:10190200031D852C36083802031C882C892C8F2C49
:101912003608B8023708031CB903B90201300310B4
:10192200B70CB60CFF3E031D902C0130BA02031D0A
:101932009B2C9C2C7F2C3908B7003808B600080075
:101942000A128A15EA210A128A150A128A150A212E
:101952000A128A150A128A15CF210A128A150A1248
:101962008A15AF200A128A150A128A1516210A123E
:101972008A150A128A15FE200A128A150A128A1577
:10198200A1200A128A150A128A15B8230A128A1588
:101992000A128A15CB200A128A150A128A153121D7
:1019A2000A128A150A128A1551210A128A150A1276
:1019B2008A15F1230A128A150A128A111228023094
:1019C200831203135406031DE72CE82C242D8830C0
:1019D200BC001330BD000A128A15CC220A128A15E5
:1019E200831203134A1CF62CF72C0D2DCA18FA2C5D
:1019F200FB2C0D2D4B3051060319002D012D0D2D01
:101A02000530FF007F08D107CC01CC0AD701D70AE5
:101A1200D501D50A4A10242DCA1C102D112D242DB2
:101A22004A18142D152D242D2330510603191A2D71
:101A32001B2D242D0530D102CC01CC0AD701D70AA7
:101A4200D501D50ACA10080083120313B7000A127F
:101A52008A15DD200A128A15A0300A128A15A920D9
:101A62000A128A150A128A15BB200A128A158312D3
:101A7200031337080A128A15A9200A128A150A12B4
:101A82008A15BB200A128A150A128A15DD200A124B
:101A92008A15A1300A128A15A9200A128A150A1279
:101AA2008A15BB200A128A150A128A1522210A12E5
:101AB2008A15FF007F0883120313C8000A128A15D1
:101AC200D4200A128A150A128A15E8200A128A15E7
:101AD20083120313480808008312031328082704FB
:101AE200260425040319762D772DBA2DFD01FD0A52
:101AF200872D0130FC000310A50DA60DA70DA80D22
:101B0200FC0B7C2D0130FF007F08FD07A81F8A2DEA
:101B12008B2D7A2D28082C02031D992D27082B02C4
:101B2200031D992D26082A02031D992D2508290235
:101B3200031C9C2D9D2DAB2D2508A9022608031CF4
:101B4200260FAA022708031C270FAB022808031C32
:101B5200280FAC0201300310A80CA70CA60CA50C90
:101B6200FF3E031DAC2D0130FD02031DB92DBA2D20
:101B72008B2D2C08A8002B08A7002A08A6002908EC
:101B8200A50008000A128A1523230A128A150A12CE
:101B92008A15D4260A128A15EE2D3F3088001B2E94
:101BA200063088001B2E5B3088001B2E4F308800C9
:101BB2001B2E663088001B2E6D3088001B2E7D3058
:101BC20088001B2E073088001B2E7F3088001B2EBA
:101BD2006F3088001B2E88011B2E831203134708C7
:101BE200C000C1014108003A0319F82D1B2E40081C
:101BF200003A0319CE2D013A0319D12D033A0319E4
:101C0200D42D013A0319D72D073A0319DA2D013AD7
:101C12000319DD2D033A0319E02D013A0319E32DCF
:101C22000F3A0319E62D013A0319E92D033A031974
:101C3200EC2D1B2E080083120313BB01B91F222EA9
:101C4200232E2A2EB809B909B80A0319B90ABB0109
:101C5200BB0AB71F2D2E2E2E332EB609B709B60A90
:101C62000319B70A360837040319382E392E682E9D
:101C7200BA01BA0A472E01300310B60DB70DFF3E66
:101C8200031D3D2E0130FF007F08BA07B71F4A2E01
:101C92004B2E3C2E37083902031D512E36083802CE
:101CA200031C542E552E5B2E3608B8023708031C2F
:101CB200B903B90201300310B70CB60CFF3E031D85
:101CC2005C2E0130BA02031D672E682E4B2E3B0894
:101CD20003196C2E6D2E722EB809B909B80A0319B0
:101CE200B90A3908B7003808B6000800831203138E
:101CF2000608B60002300310B60CFF3E031D7C2E10
:101D0200361C842E852E912E0608B6000130031053
:101D1200B60CFF3E031D882E3618902E912ED32E20
:101D22005403031D952E962E9B2E0230FF007F0832
:101D3200D400D32E02305406031DA02EA12ED32E82
:101D42000608B60002300310B60CFF3E031DA42E97
:101D52003618AC2EAD2EBA2E4A144A18B12EB52E14
:101D6200831203134A14B82E831203134A10CA10A3
:101D7200D32E0608B60001300310B60CFF3E031D39
:101D8200BD2E3618C52EC62ED32ECA14CA18CA2E78
:101D9200CE2E83120313CA14D12E83120313CA1038
:101DA2004A10D32E08008312031354080319DA2EA3
:101DB200DB2E2F2F4C03031DDF2EE02E332F0A3094
:101DC200B6000030B7004608BE00BF013E08B800AA
:101DD2003F08B9000A128A151C260A128A158312B4
:101DE20003133608FF007F08C5000A30B600003032
:101DF200B7004608BE00BF013E08B8003F08B90060
:101E02000A128A11AD260A128A15831203133608A2
:101E1200FF007F08C4000130FF007F08D606560885
:101E2200031D142F152F1F2F4508FF007F08C70021
:101E3200EF30FF007F0885058516332F5603031DFB
:101E4200232F242F2E2F4408FF007F08C700DF30E6
:101E5200FF007F0885050516332F332F0A30FF0058
:101E62007F08C700080083120313B1010030F60097
:101E72000030F5000030F4001430F3000530FF00AC
:101E82007F08F00031080A128A1574210A128A1595
:101E9200023E84000A128A1500200A128A15F700EF
:101EA2000A128A1500200A128A15F8000A128A15E7
:101EB20000200A128A15F9000A128A1500200A1255
:101EC2008A15FA000A128A117E270A128A157608E2
:101ED20083120313A8007508A7007408A6007308EC
:101EE200A5003008AC002F08AB002E08AA002D0870
:101EF200A9000A128A156D250A128A158312031384
:101F02002808270426042504031D882F892F8F2FD4
:101F12003108D03E840083138001800A0130FF0023
:101F22007F08B10703303102031C982F992F372FF6
:101F3200080083120313521C9F2FA02FF12F54036A
:101F4200031DA42FA52FF12F5108FB3E8316031367
:101F5200D300FF3003180030D400831203134F085C
:101F620083160313D500D60154085602031DBB2F56
:101F7200530855020318BE2FBF2FCB2FFB30FF0093
:101F82007F0883120313870587160230FF007F083C
:101F9200CB00FA2F831203134F0883160313D300C7
:101FA200D401831203135108053E83160313D5008F
:101FB200003003180130D60054085602031DE32FE7
:101FC200530855020318E62FE72FFA2FDF30FF00E0
:101FD2007F088312031387050715CB01CB0AFA2F5B
:101FE200FB30FF007F088705DF30FF007F08870591
:0E1FF200CB010A128A1551220A128A15080024
:02400E003A3F37
:00000001FF
