:020000040000FA
:060000000A128A11122809
:10000800FE00030E83120313B2000408B3000A08AB
:10001800B4007F08B5000A128A158D290A128A11C0
:1000280015280A128A1515200A128A11D6000A12F2
:100038008A1516200A128A11D7000A128A15172063
:100048000A128A11D8000A128A1518200A128A116F
:10005800D9008313A0308400CF300A168A11EF2705
:100068000A128A114330840056300A168A11EF2783
:100078000A128A1183010A128A15492BFF000030DF
:100088008A007F08820747280A128A156E280A12F2
:100098008A152C280A128A1537288316031358083C
:1000A8008039FF007F08E2005808DD005D07FF0087
:1000B8007F08E800D71F6128622863286814680849
:1000C8000319672868287728680A031D6C286D2893
:1000D80075280030D8000030D7000030D600003036
:1000E800D500D7177F280030D8000030D70000305F
:1000F800D6000030D5005C088039FF007F08E20692
:100108005C08DD005D07FF007F08E300DB1F8D282A
:100118008E288F2863146308031993289428A3282A
:10012800630A031D98289928A1280030DC000030B4
:10013800DB000030DA000030D900DB17AB280030D4
:10014800DC000030DB000030DA000030D900630842
:100158000319AF28B028B5286808031DB428B528A6
:10016800BE280030D8000030D7000030D60000305C
:10017800D5000B2C5508FF007F0883120313B60027
:10018800831603135B080A128A15FC210A128A11C6
:1001980083120313370883160313EE008312031325
:1001A800360883160313ED006D08DD00DE01DF015C
:1001B800E0016008E7005F08E6005E08E5005D080A
:1001C800E4006E08DD00DE01DF01E0016008EC00FC
:1001D8005F08EB005E08EA005D08E9005608FF00CA
:1001E8007F0883120313B600831603135A080A12F2
:1001F8008A15FC210A128A11831203133708831601
:100208000313EE0083120313360883160313ED005D
:100218006D08DD00DE01DF01E0015D08E4075E082E
:1002280003110318013E03191A29E5075F08031192
:100238000318013E03192129E60760080311031872
:10024800013E03192829E7076E08DD00DE01DF01FA
:10025800E0015D08E9075E0803110318013E031970
:100268003629EA075F0803110318013E03193D29DF
:10027800EB07600803110318013E03194429EC0732
:100288005708FF007F0883120313B6008316031371
:1002980059080A128A15FC210A128A1183120313BB
:1002A800370883160313EE008312031336088316E8
:1002B8000313ED006D08DD00DE01DF01E0015D08DC
:1002C800E4075E0803110318013E03196C29E507CA
:1002D8005F0803110318013E03197329E607600834
:1002E80003110318013E03197A29E7076E08DD0098
:1002F800DE01DF01E0015D08E9075E08031103186C
:10030800013E03198829EA075F0803110318013E13
:1003180003198F29EB07600803110318013E03191D
:100328009629EC070830DD000310E40DE50DE60D15
:10033800E70DDD0B98295608FF007F088312031389
:10034800B6008316031359080A128A15FC210A12EB
:100358008A1183120313370883160313EE008312DE
:100368000313360883160313ED006D08DD006E08CD
:10037800DE00DF01E0015D08E4075E0803110318F1
:10038800013E0319C829E5075F0803110318013E58
:100398000319CF29E607600803110318013E031962
:1003A800D629E7075508FF007F0883120313B60014
:1003B800831603135A080A128A15FC210A128A1195
:1003C80083120313370883160313EE0083120313F3
:1003D800360883160313ED006D08DD006E08DE0095
:1003E800DF01E0015D08E4075E0803110318013E20
:1003F8000319FF29E5075F0803110318013E0319D4
:10040800062AE607600803110318013E03190D2A9E
:10041800E7070830DD000310E40DE50DE60DE70DF4
:10042800DD0B0F2A5508FF007F0883120313B6005F
:100438008316031359080A128A15FC210A128A1115
:1004480083120313370883160313EE008312031372
:10045800360883160313ED006D08DD006E08DE0014
:10046800DF01E0015D08E4075E0803110318013E9F
:1004780003193F2AE5075F0803110318013E031912
:10048800462AE607600803110318013E03194D2A9E
:10049800E7075608FF007F0883120313B600831688
:1004A80003135B080A128A15FC210A128A118312A7
:1004B8000313370883160313EE0083120313360859
:1004C80083160313ED006D08DD006E08DE00DF0102
:1004D800E0015D08E9075E0803110318013E0319EE
:1004E800762AEA075F0803110318013E03197D2ADB
:1004F800EB07600803110318013E0319842AEC076F
:100508005708FF007F0883120313B60083160313EE
:100518005A080A128A15FC210A128A118312031337
:10052800370883160313EE00831203133608831665
:100538000313ED006D08DD006E08DE00DF01E00149
:100548005D08E9075E0803110318013E0319AD2A87
:10055800EA075F0803110318013E0319B42AEB07E1
:10056800600803110318013E0319BB2AEC0757085A
:10057800FF007F0883120313B600831603135B087A
:100588000A128A15FC210A128A11831203133708EA
:1005980083160313EE00831203133608831603131E
:1005A800ED006D08DD006E08DE00DF01E0010830B7
:1005B8000310DD0DDE0DDF0DE00DFF3E031DDC2A0F
:1005C8005D08E9075E0803110318013E0319ED2AC7
:1005D800EA075F0803110318013E0319F42AEB0721
:1005E800600803110318013E0319FB2AEC0764088D
:1005F800DD006508DE006608DF006708E0001830E7
:100608000310E00CDF0CDE0CDD0CFF3E031D042B99
:100618005D08E9075E0803110318013E0319152B4D
:10062800EA075F0803110318013E03191C2BEB07A7
:10063800600803110318013E0319232BEC07083047
:10064800DD000310E40DE50DE60DE70DDD0B252BB0
:1006580068086307DD00DE01DE0D5D08823EED00FF
:100668005E080318013EFF3EEE00572B0130DD0007
:100678000310E90DEA0DEB0DEC0DDD0B3C2BE71F2C
:10068800462B472B482B69140130DD000310E40D7D
:10069800E50DE60DE70DDD0B4A2BFF30ED070318DE
:1006A800EE0AFF30EE07EB1F5A2B5B2B3A2BE301C8
:1006B800E71F5F2B602B7C2BFF306405DD00FF30CC
:1006C8006505DE00FF306605DF007F306705E00066
:1006D80060085F045E045D040319732B742B772B89
:1006E800E301E30A7C2B691C7A2B7B2B7C2B742B74
:1006F80063080319802B812BB22B0130E9070030E6
:1007080003180130EA07003003180130EB07003006
:1007180003180130EC076C1C922B932BB22B690841
:10072800DD006A08DE006B08DF006C08E0000130BD
:10073800E100600DE00CDF0CDE0CDD0CE10B9D2B05
:100748006008EC005F08EB005E08EA005D08E9005D
:100758000130ED070318EE0A0030EE076E08803A04
:10076800FF0080307F02031DBB2BFF306D02031C8E
:10077800BE2BBF2BCA2B7F3083160313EC008030AF
:10078800EB000030EA000030E900FF2B831603136A
:100798006E08803AFF0080307F02031DD52B0130A0
:1007A8006D020318D82BD92BE52B003083160313C1
:1007B800EC000030EB000030EA000030E900E20114
:1007C800FF2B831603136D08FF007F08E800FF3036
:1007D800E905FF30EA057F30EB050030EC05681CC1
:1007E800F62BF72BF82BEB176808DD0003105D0CD0
:1007F800FF007F08EC006208FF007F08EC046C082B
:10080800D8006B08D7006A08D6006908D500080028
:1008180083160313CF004F080319132C142C382CFC
:1008280083120313B91F192C1A2C382C3609831676
:100838000313D10083120313370983160313D2005D
:1008480083120313380983160313D3008312031387
:10085800390983160313D400D10A0319D20A0319DC
:10086800D30A0319D40A4F2C8312390883160313A9
:10087800D40083120313380883160313D30083129A
:100888000313370883160313D200831203133608A1
:1008980083160313D100831203133908380437046D
:1008A8003604031D582C592C622C0030B900003036
:1008B800B8000030B7000030B600162D9630FF00A3
:1008C8007F0883160313D000762C0130FF007F08C1
:1008D800D00701300310D40CD30CD20CD10CFF3E3E
:1008E800031D6E2CFE305405031D7B2C7C2C692CBB
:1008F800982C0130FF007F08D0070130D107003065
:1009080003180130D207003003180130D307003034
:1009180003180130D40701300310D40CD30CD20CC7
:10092800D10CFF3E031D902CFF305405031D9D2C58
:100938009E2C7D2CB02C0130D00201308312031381
:10094800BA00031083160313D10DD20DD30DD40DA5
:1009580083120313BA0BA52C83160313D31BB52CD0
:10096800B62CBC2C023050020318BB2CBC2C9F2C7C
:100978005018BF2CC02CC82CFF30D105FF30D20531
:100988007F30D305FF30D4050310D00C50088312F4
:100998000313BA00BB01BC01BD0118300310BA0D26
:1009A800BB0DBC0DBD0DFF3E031DD22C3A088316AE
:1009B8000313D104831203133B0883160313D204D1
:1009C800831203133C0883160313D30483120313FF
:1009D8003D0883160313D4044F080319F42CF52C8F
:1009E800FE2C83120313B91FFA2CFB2CFE2C831642
:1009F8000313D41783160313540883120313B9007F
:100A080083160313530883120313B80083160313C2
:100A1800520883120313B700831603135108831275
:100A28000313B6000800831203134703031D1D2D8B
:100A38001E2D252D5208FF007F08CA00CF01CF0ABE
:100A48003E2D02304706031D2A2D2B2D302D53082D
:100A5800FF007F08CA003E2D4708031D342D352DA1
:100A68003E2DDF30FF007F088505EF30FF007F084F
:100A78008505880147080319422D432D162E4F037B
:100A8800031D472D482D022E0A30B6000030B7004E
:100A98004A0883160313CF00D0014F0883120313AB
:100AA800B80083160313500883120313B9000A12FF
:100AB8008A1529250A128A11831203133608FF00A2
:100AC8007F08CC000A30B6000030B7004A08831609
:100AD8000313CF00D0014F0883120313B800831605
:100AE8000313500883120313B9000A128A150D273D
:100AF8000A128A11831203133608FF007F08CB00FD
:100B08000130FF007F08D7065708031D8C2D8D2D57
:100B1800972D4C08FF007F08C900EF30FF007F08C1
:100B280085058516D82D5703031D9B2D9C2DD82D83
:100B38004B08FF007F08C900DF30FF007F088505EC
:100B48000516D82D3F30831203138800022E063075
:100B5800831203138800022E5B308312031388006C
:100B6800022E4F30831203138800022E6630831240
:100B780003138800022E6D30831203138800022E9F
:100B88007D30831203138800022E0730831203136B
:100B98008800022E7F30831203138800022E6F30E4
:100BA800831203138800022E490883160313CF000B
:100BB800D0015008003A0319E22D022E4F08003ADE
:100BC8000319A62D013A0319AB2D033A0319B02DC9
:100BD800013A0319B52D073A0319BA2D013A031939
:100BE800BF2D033A0319C42D013A0319C92D0F3A31
:100BF8000319CE2D013A0319D32D022E0230831288
:100C08004706031D082E092E162EE830BC000330B7
:100C1800BD001430BE000030BF000A128A158323BD
:100C28000A128A110800031083120313410D420DA2
:100C3800FF007F088316031795001508031D252E4E
:100C4800262E312E003083120313C2000030C1005B
:100C58000030C0000030BF00B42E831203133F08D9
:100C68008316031790008312031340088316031793
:100C7800910083120313410883160317920083120D
:100C8800031342088316031793001F300310930CB5
:100C9800920C910C900CFF3E031D4A2E1008FF0089
:100CA8007F08940083120313C117FF30BF05FF307C
:100CB800C005FF30C1050030C20596308316031702
:100CC8009502951F682E692E872E1508803A973E43
:100CD80003186F2E702E712E262E013003108312EA
:100CE8000313C20CC10CC00CBF0CFF3E031D722EB7
:100CF8000130FF007F08831603179507031D852E13
:100D0800862E712EA22E20301502031C8C2E8D2EBD
:100D18009D2E262E01309000031083120313BF0D61
:100D2800C00DC10DC20D83160317900B902E013014
:100D380095021508031DA12EA22E8E2E1408031944
:100D4800A62EA72EB42E83120313BF09C009C1090A
:100D5800C209BF0A0319C00A0319C10A0319C20A42
:100D6800080083160313EF006F0883160317960015
:100D7800970198019901190883120313B900831682
:100D88000317180883120313B800831603171708EC
:100D980083120313B700831603171608831203136D
:100DA800B60001300A128A110C240A128A11831221
:100DB8000313390883160313DC008312031338085E
:100DC80083160313DB0083120313370883160313F8
:100DD800DA0083120313360883160313D9003E3052
:100DE800D800F930D700F530D6005A30D5000A12AD
:100DF8008A1151200A128A11831603135808831284
:100E08000313C20083160313570883120313C10088
:100E180083160313560883120313C00083160313A3
:100E2800550883120313BF000A128A1117260A12E3
:100E38008A11831203133F08FF007F08D100523044
:100E4800FF007F08BF0051080A128A114D270A12B5
:100E58008A110A3083120313B6000030B700550810
:100E6800013EB800003003180130B9000A128A1593
:100E7800BE230A128A11831203133608FF007F0863
:100E8800D50009305506031D4A2F4B2F4C2F5414FB
:100E9800080083120313C0000030C6000030C500EC
:100EA8000030C4000030C300400883160313D40088
:100EB800D501D601D70183120313590883160313EA
:100EC800D80001300310D80DFF3E031D662F031014
:100ED800580DA03E8400540883138000840A5508E6
:100EE8008000840A56088000840A570880000A3067
:100EF80083120313B6000030B7005908013EB8004A
:100F0800003003180130B9000A128A15BE230A12EC
:100F18008A11831203133608FF007F08D900C10124
:100F2800410883160313D40001300310D40DFF3E8B
:100F3800031D992F0310540DA03E8400831300084D
:100F480083120313C307840A00080318000FAD2F88
:100F5800AE2FC407840A00080318000FB42FB52F5A
:100F6800C507840A00080318000FBB2FBC2FC6074B
:100F78000130FF007F08C1070A304102031CC52F5A
:100F8800C62F942F0030B9000030B8000030B700E9
:100F98000A30B6004608BD004508BC004408BB003E
:100FA8004308BA000A128A1576270A128A11831290
:100FB80003133608FF003F0884007F08831380006E
:100FC8000800831603139F17831203131F179F1319
:100FD800831603131F17831203139F111F169F12E3
:100FE800831603131F109F141F119F1183120313DD
:100FF8001F141F115014080008308A000408840ABE
:1010080082070034043414340034003400340734C4
:1010180064340034003400340134C83400340034FB
:1010280000340134013401340A34831603131E08D2
:101038000A128A11B5260A128A1508000000000053
:101048000000000000000000000000000000080090
:101058000A128A1117250A128A150A128A15B1214D
:101068000A128A1508000A128A150F210A128A150F
:101078000A128A15D9220A128A150800DF30FF00E1
:101088007F08831203138505EF30FF007F0885056D
:101098003F3088000800EF30FF007F0883120313F9
:1010A8008605DF30FF007F088705FB30FF007F08DB
:1010B80087050800003083120313B600B700033019
:1010C800B8000030B900CC300A128A156B210A1218
:1010D8008A1508000A128A15E1250A128A150A12C9
:1010E8008A1585240A128A150A128A158E200A1270
:1010F8008A150800831603138112811101148114C3
:1011080001158B160B178B1764308312031381009C
:101118000B11080083120313D41C93289428A128C8
:101128005308FF007F08CD004D080A128A152B21AD
:101138000A128A1583120313D4100800F200F10171
:10114800721CA728A828AC287008FF007F08F107A0
:101158000310F00D0310F20C7208031DB428B52813
:10116800A4287108080083120313871507160A12AA
:101178008A1522200A128A15EF30FF007F08831291
:10118800031387050A128A1522200A128A150800F5
:10119800831203138715EF30FF007F0887050A12B3
:1011A8008A1522200A128A158312031307160A12B7
:1011B8008A1522200A128A150800023083120313A6
:1011C80047060319E828E928EE284703031DED28F8
:1011D800EE28F028C701F7284708031DF428F5284A
:1011E800F728C701C70A080083120313B800B7011C
:1011F800381CFF28002904293608FF007F08B70794
:101208000310B60D0310B80C3808031D0C290D295E
:10121800FC283708080083120313501C14291529C9
:101228002A29D01C182919292A294703031D1D29F1
:101238001E292A291F19212922292A290A128A1531
:1012480019200A128A15831203131F1508000A129F
:101258008A15B7200A128A15A0300A128A153E2468
:101268000A128A150A300A128A153E240A128A15A9
:10127800831203134D080A128A153E240A128A158E
:101288000A128A15CC200A128A150800DF30FF00DE
:101298007F08831603138705FB30FF007F08870547
:1012A800EF30FF007F088605DF30FF007F088505E7
:1012B800EF30FF007F08850586140615061405150E
:1012C800F730FF007F08870507168801080083129A
:1012D8000313BB003B08FF007F08BA007E293608CD
:1012E800FF003A0884007F08831380000130FF0064
:1012F8007F08BA070130B8020030031CB903B902ED
:10130800380A031D8B29390A031D8B298C29732957
:1013180008008B1C9029912998298B100A128A158C
:10132800E1200A128A15A4290B1D9B299C29A429AE
:101338000B11643081000A128A1578220A128A1564
:10134800831203133508FF0034088A003308840029
:10135800320E8300FE0E7E0E090083120313060868
:10136800B60002300310B60CFF3E031DB629361C2A
:10137800BE29BF29CB290608B60001300310B60CD8
:10138800FF3E031DC2293618CA29CB29D429470391
:10139800031DCF29D029D4290230FF007F08C700B8
:1013A800080083120313BA01BB01361CDC29DD29AE
:1013B800E3293808BA070318BB0A3908BB07013004
:1013C8000310B80DB90DFF3E031DE42901300310C9
:1013D800B70CB60CFF3E031DEB2936083704031D76
:1013E800F629F729D9293B08B7003A08B6000800BA
:1013F80083120313BE00BA01BB013608B800B90155
:101408003808BC003908BD003E1C0B2A0C2A122AD9
:101418003C08BA070318BB0A3D08BB070130031094
:10142800BC0DBD0DFF3E031D132A0310BE0C3E0864
:10143800031D1F2A202A082A3B08B7003A08B600CD
:101448000800831203134808C000C1014008B60011
:101458004108B7003F08B9003E08B8000A128A15CB
:10146800D5210A128A15831203133D083706031D76
:101478003F2A3C083606031D422A432A492AD41427
:10148800C701C70AC801C80A4D2A0130FF007F08F2
:10149800C8070800831203135808C000C101400898
:1014A800B6004108B7003F08B9003E08B8000A1264
:1014B8008A15D5210A128A15831203133D083706A7
:1014C800031D682A3C083606031D6B2A6C2A732AFA
:1014D8001030FF007F088606D801D80A772A013025
:1014E800FF007F08D8070800013083160313C807D8
:1014F800003003180130C907003003180130CA074B
:10150800003003180130CB074B0883120313B000D7
:10151800831603134A0883120313AF0083160313B9
:10152800490883120313AE00831603134808831275
:101538000313AD000A128A153F260A128A150800FD
:1015480083120313BA000A128A15B7200A128A15E1
:10155800A0300A128A153E240A128A158312031330
:101568003A080A128A153E240A128A150A128A159E
:10157800B7200A128A15A1300A128A153E240A12C7
:101588008A1501300A128A1584250A128A15FF0065
:101598007F0883120313BB000A128A15CC200A1293
:1015A8008A15831203133B080800023083120313C1
:1015B8004E06031DE02AE12AF42A4703031DE52A03
:1015C800E62AF42AE830BC000330BD006430BE00CF
:1015D8000030BF000A128A154E220A128A150F2BF4
:1015E8004E03031DF82AF92A002B4703031DFD2A81
:1015F800FE2A002B06160F2B47080319042B052B70
:101608000B2B02304706031D0A2B0B2B0F2BEF3039
:10161800FF007F0886050800831603179A011A0839
:10162800CC3E840083130003031D1B2B1C2B3D2B76
:101638000530FF007F0883120313B60083160317D3
:101648001A080A128A15F8200A128A15013E84001F
:101658000A128A1500200A128A150A128A114220D3
:101668000A128A15831603171A08CC3E84008313BE
:1016780080010130FF007F089A0703301A02031C1B
:10168800462B472B132B102B08000A128A154A21C8
:101698000A128A150A128A11E5270A128A150A16E9
:1016A8008A11E9270A128A150A128A1542200A1293
:1016B8008A150A128A154F200A128A150A168A11E3
:1016C800E5270A128A150A128A15FA230A128A15B8
:1016D8000A168A11F7270A128A150A128A155E2035
:1016E8000A128A150A128A157E200A128A150A1207
:1016F8008A1510230A128A150A128A1112288312CF
:1017080003135608C000C1014008B6004108B700DD
:101718003F08B9003E08B8000A128A15D5210A12F6
:101728008A15831203133D083706031D9D2B3C08B9
:101738003606031DA02BA12BB92B4F03031DA52B88
:10174800A62BB02BCF01DF30FF007F088505EF30D7
:10175800FF007F088505B72B4F08031DB42BB52B59
:10176800B72BCF01CF0AD601D60A0130FF007F0878
:10177800D607080083120313360837040319C52B4C
:10178800C62BF52BBA01BA0AD42B01300310B60DBB
:10179800B70DFF3E031DCA2B0130FF007F08BA07B3
:1017A800B71FD72BD82BC92B37083902031DDE2BBF
:1017B80036083802031CE12BE22BE82B3608B80266
:1017C8003708031CB903B90201300310B70CB60C73
:1017D800FF3E031DE92B0130BA02031DF42BF52B44
:1017E800D82B3908B7003808B600080000300A12AC
:1017F8008A15A4220A128A15003A031D042C052C06
:10180800FA2B0A300A128A15A4220A128A15FF0036
:101818007F0883120313CD004C304D020318152C9A
:10182800162C392C23304D02031C1B2C1C2C392C54
:101838000530B6000030B7004D08BC00BD013C08BB
:10184800B8003D08B9000A128A1529250A128A1516
:101858008312031336083704031D332C342C392C18
:101868004D08FF007F08D3003D2C3C30FF007F0867
:10187800D300080083120313B800F730FF007F0875
:101888008705B9013808B6003908073C013E4E2CD7
:101898000310B60CFF3E031D4C2C36080139B70067
:1018A800B70E07083706EF393706870087150A127B
:1018B8008A1522200A128A15F730FF007F08831242
:1018C800031387050130FF007F08B9070830390284
:1018D800031C6F2C702C462C07160A128A1522201E
:1018E8000A128A158312031387150A128A152220F1
:1018F8000A128A15F730FF007F0883120313870541
:10190800080083120313541C8A2C8B2CCA2C4703FF
:10191800031D8F2C902CCA2C5308FB3EB600FF30B9
:1019280003180030B7005208B800B9013708390267
:10193800031DA02C360838020318A32CA42CAE2CA7
:10194800FB30FF007F08870587160230FF007F08FD
:10195800CE00D22C5208B600B7015308053EB80095
:10196800003003180130B90037083902031DBE2CB6
:10197800360838020318C12CC22CD22CDF30FF00E5
:101988007F0887050715CE01CE0AD22CFB30FF0051
:101998007F088705DF30FF007F088705080083126E
:1019A800031328082704260425040319DC2CDD2C3E
:1019B800202DFD01FD0AED2C0130FC000310A50DC2
:1019C800A60DA70DA80DFC0BE22C0130FF007F0827
:1019D800FD07A81FF02CF12CE02C28082C02031D71
:1019E800FF2C27082B02031DFF2C26082A02031DA3
:1019F800FF2C25082902031C022D032D112D250873
:101A0800A9022608031C260FAA022708031C270F71
:101A1800AB022808031C280FAC0201300310A80CE5
:101A2800A70CA60CA50CFF3E031D122D0130FD02CC
:101A3800031D1F2D202DF12C2C08A8002B08A70012
:101A48002A08A6002908A500080083120313BB0171
:101A5800B91F2F2D302D372DB809B909B80A031928
:101A6800B90ABB01BB0AB71F3A2D3B2D402DB60959
:101A7800B709B60A0319B70A360837040319452DFA
:101A8800462D752DBA01BA0A542D01300310B60D32
:101A9800B70DFF3E031D4A2D0130FF007F08BA072E
:101AA800B71F572D582D492D37083902031D5E2DB4
:101AB80036083802031C612D622D682D3608B802DD
:101AC8003708031CB903B90201300310B70CB60C70
:101AD800FF3E031D692D0130BA02031D742D752DBB
:101AE800582D3B080319792D7A2D7F2DB809B9098E
:101AF800B80A0319B90A3908B7003808B600080047
:101B080083120313B700B801F730FF007F08870579
:101B1800831603130716831203130716B9018715D3
:101B28000A128A1522200A128A1583120313070E35
:101B38000139B6003908073C013EA42D0310B60D43
:101B4800FF3E031DA22D3608FF007F08B804F730BA
:101B5800FF007F0887050130FF007F08B9070830BC
:101B68003902031CB82DB92D932DEF30FF007F08E3
:101B78008316031387058312031337080319C52D2A
:101B8800C62DCB2DEF30FF007F088705CC2D07161B
:101B98000A128A1522200A128A158312031387153E
:101BA8000A128A1522200A128A15F730FF007F08C8
:101BB80083120313870538080800023083120313C1
:101BC8004706031DE82DE92D3E2E8830BC00133052
:101BD800BD00C830BE000030BF000A128A15252299
:101BE8000A128A15831203130608C2000230031072
:101BF800C20CFF3E031DFB2D4218032E042E1D2E82
:101C08000608C20001300310C20CFF3E031D072E58
:101C1800421C0F2E102E1D2E4B3053060319152E65
:101C2800162E1D2E0530FF007F08D307C801C80AED
:101C38003E2E0608C20002300310C20CFF3E031DF0
:101C4800202E421C282E292E3E2E0608C2000130C6
:101C58000310C20CFF3E031D2C2E4218342E352EC5
:101C68003E2E2330530603193A2E3B2E3E2E0530C6
:101C7800D3021A2E080083120313B1010030F600B4
:101C88000030F5000030F4001430F3000530FF0098
:101C98007F08F00031080A128A15A2200A128A1554
:101CA800023E84000A128A1500200A128A15F700DB
:101CB8000A128A1500200A128A15F8000A128A15D3
:101CC80000200A128A15F9000A128A1500200A1241
:101CD8008A15FA000A128A15A5260A128A157608A4
:101CE80083120313A8007508A7007408A6007308D8
:101CF800A5003008AC002F08AB002E08AA002D085C
:101D0800A9000A128A15D3240A128A15831203130A
:101D18002808270426042504031D932E942E9A2EA2
:101D28003108CC3E840083138001800A0130FF0013
:101D38007F08B10703303102031CA32EA42E422EC4
:101D48000800003083120313A3000030A200003003
:101D5800A1000030A0007608750474047304031908
:101D6800B62EB72E042FA401A40AC72E0130FB00FB
:101D78000310F30DF40DF50DF60DFB0BBC2E013021
:101D8800FF007F08A407F61FCA2ECB2EBA2E0130FB
:101D9800FB000310A00DA10DA20DA30DFB0BCD2E72
:101DA80076087A02031DE22E75087902031DE22ED9
:101DB80074087802031DE22E73087702031CE52ECF
:101DC800E62EF52E7308F7027408031C740FF80248
:101DD8007508031C750FF9027608031C760FFA02C2
:101DE800201401300310F60CF50CF40CF30CFF3E34
:101DF800031DF62E0130A402031D032F042FCB2E42
:101E08002308F6002208F5002108F4002008F30052
:101E1800080083120313BB01B71F132F142F1B2FA6
:101E2800B609B709B60A0319B70ABB01BB0AB91F35
:101E38001E2F1F2F282FB809B909B80A0319B90A84
:101E48000130FF007F08BB06BC01BD01360837041E
:101E580003192F2F302F672FBA01BA0A3E2F0130EE
:101E68000310B60DB70DFF3E031D342F0130FF00E0
:101E78007F08BA07B71F412F422F332F01300310B5
:101E8800BC0DBD0DFF3E031D432F37083902031D4E
:101E98004F2F36083802031C522F532F5A2F36085B
:101EA800B8023708031CB903B9023C140130031007
:101EB800B70CB60CFF3E031D5B2F0130BA02031DA1
:101EC800662F672F422F3B0803196B2F6C2F712F3A
:101ED800BC09BD09BC0A0319BD0A3D08B7003C0886
:101EE800B6000800003083160313D2000030D1007A
:101EF8000030D0000030CF008312031339083804B3
:101F0800370436040319892F8A2FE72F8316031302
:101F1800D301D30A9E2F0130BE000310B60DB70DB2
:101F2800B80DB90DBE0B912F0130FF007F08831645
:101F38000313D30783120313B91FA32FA42F8F2FC3
:101F480001308312BE00031083160313CF0DD00D8A
:101F5800D10DD20D83120313BE0BA72F39083D02F2
:101F6800031DC02F38083C02031DC02F37083B0251
:101F7800031DC02F36083A02031CC32FC42FD52FC8
:101F88003608BA023708031C370FBB023808031C8F
:101F9800380FBC023908031C390FBD02831603131E
:101FA8004F14013003108312B90CB80CB70CB60CDF
:101FB800FF3E031DD62F013083160313D302031DE2
:101FC800E62FE72FA42F8316031352088312031357
:101FD800B90083160313510883120313B80083163C
:101FE8000313500883120313B700831603134F0813
:081FF80083120313B600080078
:102FCA0083120313C70108000B1683160313011794
:102FDA008B10080064008001840A04060319003477
:102FEA000406F02F83120313501CFC2FFD2FFF2F12
:062FFA001F15D0140800B1
:02400E003A3F37
:00000001FF
