:020000040000FA
:060000000A128A11122809
:10000800FE00030E83120313B6000408B7000A08A3
:10001800B8007F08B9000A128A15962A0A128A11AE
:1000280015280A128A1517210A128A11D2000A12F3
:100038008A1518210A128A11D3000A128A15192161
:100048000A128A11D4000A128A151A210A128A1170
:10005800D500831790308400B8300A128A152821F9
:100068000A128A1183160313D201D301D401D501D0
:10007800D601D70183134330840052300A128A15FF
:1000880028210A128A1183010A128A15302BFF00CF
:1000980000308A007F08820750280A128A156C29C6
:1000A8000A128A151B290A128A153B29831603137B
:1000B80029088039FF007F08B3002908AE002E0701
:1000C800FF007F08B900A81F6A286B286C2839141C
:1000D80039080319702871288028390A031D7528E2
:1000E80076287E280030A9000030A8000030A7003C
:1000F8000030A600A81788280030A9000030A80002
:100108000030A7000030A6002D088039FF007F08C6
:10011800B3062D08AE002E07FF007F08B400AC1F01
:100128009628972898283414340803199C289D2861
:10013800AC28340A031DA128A228AA280030AD0043
:100148000030AC000030AB000030AA00AC17B42877
:100158000030AD000030AC000030AB000030AA0029
:1001680034080319B828B928BE283908031DBD2842
:10017800BE28C7280030A9000030A8000030A7001A
:100188000030A600142C2608FF007F0883120313F2
:10019800BA00831603132C080A128A1507230A12B9
:1001A8008A11831203133B0883160313BF008312BB
:1001B80003133A0883160313BE003E08AE00AF01CE
:1001C800B001B1013108B8003008B7002F08B600F7
:1001D8002E08B5003F08AE00AF01B001B1013108EB
:1001E800BD003008BC002F08BB002E08BA00270845
:1001F800FF007F0883120313BA00831603132B082A
:100208000A128A1507230A128A11831203133B085C
:1002180083160313BF00831203133A0883160313CC
:10022800BE003E08AE00AF01B001B1012E08B5070F
:100238002F0803110318013E03192329B6073008B4
:1002480003110318013E03192A29B70731080311BE
:100258000318013E03193129B8073F08AE00AF0162
:10026800B001B1012E08BA072F0803110318013E87
:1002780003193F29BB07300803110318013E03196E
:100288004629BC07310803110318013E03194D29FB
:10029800BD072808FF007F0883120313BA008316DE
:1002A80003132A080A128A1507230A128A118312CD
:1002B80003133B0883160313BF00831203133A0882
:1002C80083160313BE003E08AE00AF01B001B101B2
:1002D8002E08B5072F0803110318013E03197529C5
:1002E800B607300803110318013E03197C29B70724
:1002F800310803110318013E03198329B8073F0881
:10030800AE00AF01B001B1012E08BA072F080311E2
:100318000318013E03199129BB073008031103187C
:10032800013E03199829BC07310803110318013E3F
:1003380003199F29BD070830AE000310B50DB60D8F
:10034800B70DB80DAE0BA1292708FF007F0883124F
:100358000313BA00831603132A080A128A150723FF
:100368000A128A11831203133B0883160313BF0072
:10037800831203133A0883160313BE003E08AE0027
:100388003F08AF00B001B1012E08B5072F080311CF
:100398000318013E0319D129B607300803110318C1
:1003A800013E0319D829B707310803110318013E84
:1003B8000319DF29B8072608FF007F0883120313F3
:1003C800BA00831603132B080A128A1507230A1288
:1003D8008A11831203133B0883160313BF00831289
:1003E80003133A0883160313BE003E08AE003F0805
:1003F800AF00B001B1012E08B5072F08031103188B
:10040800013E0319082AB607300803110318013EF4
:1004180003190F2AB707310803110318013E0319FE
:10042800162AB8070830AE000310B50DB60DB70D83
:10043800B80DAE0B182A2608FF007F088312031395
:10044800BA00831603132A080A128A1507230A1208
:100458008A11831203133B0883160313BF00831208
:1004680003133A0883160313BE003E08AE003F0884
:10047800AF00B001B1012E08B5072F08031103180A
:10048800013E0319482AB607300803110318013E34
:1004980003194F2AB707310803110318013E03193E
:1004A800562AB8072708FF007F0883120313BA00EB
:1004B800831603132C080A128A1507230A128A11B5
:1004C800831203133B0883160313BF00831203131D
:1004D8003A0883160313BE003E08AE003F08AF007B
:1004E800B001B1012E08BA072F0803110318013E05
:1004F80003197F2ABB07300803110318013E0319AB
:10050800862ABC07310803110318013E03198D2AF6
:10051800BD072808FF007F0883120313BA0083165B
:1005280003132B080A128A1507230A128A11831249
:1005380003133B0883160313BF00831203133A08FF
:1005480083160313BE003E08AE003F08AF00B0019B
:10055800B1012E08BA072F0803110318013E031929
:10056800B62ABB07300803110318013E0319BD2A38
:10057800BC07310803110318013E0319C42ABD073B
:100588002808FF007F0883120313BA008316031399
:100598002C080A128A1507230A128A1183120313D8
:1005A8003B0883160313BF00831203133A0883160C
:1005B8000313BE003E08AE003F08AF00B001B10112
:1005C80008300310AE0DAF0DB00DB10DFF3E031D89
:1005D800E52A2E08BA072F0803110318013E03194C
:1005E800F62ABB07300803110318013E0319FD2A38
:1005F800BC07310803110318013E0319042BBD077A
:100608003508AE003608AF003708B0003808B1002A
:1006180018300310B10CB00CAF0CAE0CFF3E031D2C
:100628000D2B2E08BA072F0803110318013E0319D2
:100638001E2BBB07300803110318013E0319252B95
:10064800BC07310803110318013E03192C2BBD0701
:100658000830AE000310B50DB60DB70DB80DAE0BD2
:100668002E2B39083407AE00AF01AF0D2E08823E9D
:10067800BE002F080318013EFF3EBF00602B01306B
:10068800AE000310BA0DBB0DBC0DBD0DAE0B452B56
:10069800B81F4F2B502B512B3A140130AE000310CA
:1006A800B50DB60DB70DB80DAE0B532BFF30BE0709
:1006B8000318BF0AFF30BF07BC1F632B642B432BF3
:1006C800B401B81F682B692B852BFF303505AE00A8
:1006D800FF303605AF00FF303705B0007F303805F2
:1006E800B100310830042F042E0403197C2B7D2B14
:1006F800802BB401B40A852B3A1C832B842B852BC1
:100708007D2B34080319892B8A2BBB2B0130BA07A0
:10071800003003180130BB07003003180130BC0754
:10072800003003180130BD073D1C9B2B9C2BBB2BB5
:100738003A08AE003B08AF003C08B0003D08B100E5
:100748000130B200310DB10CB00CAF0CAE0CB20BD5
:10075800A62B3108BD003008BC002F08BB002E08AE
:10076800BA000130BE070318BF0A0030BF073F08B0
:10077800803AFF0080307F02031DC42BFF303E0209
:10078800031CC72BC82BD32B7F3083160313BD0044
:100798008030BC000030BB000030BA00082C831643
:1007A80003133F08803AFF0080307F02031DDE2BD1
:1007B80001303E020318E12BE22BEE2B00308316AA
:1007C8000313BD000030BC000030BB000030BA008D
:1007D800B301082C831603133E08FF007F08B900F5
:1007E800FF30BA05FF30BB057F30BC050030BD05C2
:1007F800391CFF2B002C012CBC173908AE00031044
:100808002E0CFF007F08BD003308FF007F08BD04E1
:100818003D08A9003C08A8003B08A7003A08A60024
:10082800080083160313A000200803191C2C1D2C94
:10083800412C83120313BD1F222C232C412C3A096F
:1008480083160313A200831203133B0983160313B1
:10085800A300831203133C0983160313A400831215
:1008680003133D0983160313A500A20A0319A30A5B
:100878000319A40A0319A50A582C83123D088316E4
:100888000313A500831203133C0883160313A40063
:10089800831203133B0883160313A3008312031365
:1008A8003A0883160313A200831203133D083C047D
:1008B8003B043A04031D612C622C6B2C0030BD00F4
:1008C8000030BC000030BB000030BA001F2D96304D
:1008D800FF007F0883160313A1007F2C0130FF005F
:1008E8007F08A10701300310A50CA40CA30CA20CCF
:1008F800FF3E031D772CFE302505031D842C852C17
:10090800722CA12C0130FF007F08A1070130A2073B
:10091800003003180130A307003003180130A40782
:10092800003003180130A50701300310A50CA40CF2
:10093800A30CA20CFF3E031D992CFF302505031DB7
:10094800A62CA72C862CB92C0130A10201308312C9
:100958000313BE00031083160313A20DA30DA40DE9
:10096800A50D83120313BE0BAE2C83160313A41B11
:10097800BE2CBF2CC52C023021020318C42CC52C58
:10098800A82C2118C82CC92CD12CFF30A205FF3067
:10099800A3057F30A405FF30A5050310A10C21088D
:1009A80083120313BE00BF01C001C1011830031038
:1009B800BE0DBF0DC00DC10DFF3E031DDB2C3E0853
:1009C80083160313A204831203133F088316031329
:1009D800A30483120313400883160313A404831289
:1009E8000313410883160313A50420080319FD2CDB
:1009F800FE2C072D83120313BD1F032D042D072D75
:100A080083160313A51783160313250883120313EC
:100A1800BD0083160313240883120313BC00831636
:100A28000313230883120313BB008316031322083E
:100A380083120313BA000800831603135203031D1D
:100A4800262D272D302D831203134E08FF007F0813
:100A5800C900CC01CC0A4C2D02305206031D352D9D
:100A6800362D3D2D831203134F08FF007F08C90060
:100A78004C2D5208031D412D422D4C2DDF30FF0017
:100A88007F08831203138505EF30FF007F08850573
:100A98008316031352080319522D532D292E83123E
:100AA80003134C03031D592D5A2D142E0A30BA0076
:100AB8000030BB00490883160313A400A5012408CD
:100AC80083120313BC008316031325088312031330
:100AD800BD000A128A1584250A128A11831203138B
:100AE8003A08FF007F08CB000A30BA000030BB008C
:100AF800490883160313A400A501240883120313CD
:100B0800BC0083160313250883120313BD000A12C1
:100B18008A15AD260A128A11831203133A08FF00B8
:100B28007F08CA000130FF007F08D4065408031D5F
:100B38009E2D9F2DA92D4B08FF007F08C800EF3080
:100B4800FF007F0885058516EA2D5403031DAD2D8A
:100B5800AE2DEA2D4A08FF007F08C800DF30FF00ED
:100B68007F0885050516EA2D3F3083120313880098
:100B7800142E0630831203138800142E5B30831260
:100B880003138800142E4F30831203138800142E89
:100B98006630831203138800142E6D3083120313FA
:100BA8008800142E7D30831203138800142E07301A
:100BB800831203138800142E7F30831203138800D6
:100BC800142E6F30831203138800142E48088316DE
:100BD8000313A400A5012508003A0319F42D142EC7
:100BE8002408003A0319B82D013A0319BD2D033A18
:100BF8000319C22D013A0319C72D073A0319CC2D41
:100C0800013A0319D12D033A0319D62D013A0319D4
:100C1800DB2D0F3A0319E02D013A0319E52D142EA7
:100C28000230831603135206031D1B2E1C2E292E79
:100C3800E830A0000330A1001430A2000030A30067
:100C48000A128A1591240A128A11080083160313BE
:100C5800AB000030AF000030AE000030AD00003017
:100C6800AC002B08A600A701A801A9018312031351
:100C7800550883160313AA0001300310AA0DFF3E7E
:100C8800031D412E03102A0D903E84002608831769
:100C98008000840A27088000840A28088000840AC3
:100CA800290880000A3083120313BA000030BB0001
:100CB8005508013EBC00003003180130BD000A127F
:100CC8008A15D7230A128A11831203133A08FF00E0
:100CD8007F08D50083160313B0013008A600013041
:100CE8000310A60DFF3E031D742E0310260D903E23
:100CF800840083170008AC07840A00080318000F53
:100D0800862E872EAD07840A00080318000F8D2E43
:100D18008E2EAE07840A00080318000F942E952E15
:100D2800AF070130FF007F08B0070A303002031C0C
:100D38009E2E9F2E712E003083120313BD000030AB
:100D4800BC000030BB000A30BA00831603132F081A
:100D580083120313C100831603132E08831203138F
:100D6800C000831603132D0883120313BF008316D4
:100D780003132C0883120313BE000A128A1160277A
:100D88000A128A11831203133A08FF008316031309
:100D9800250884007F088313800008008316031346
:100DA800CE004E08CA00CB01CC01CD014D088312FC
:100DB8000313BD00831603134C0883120313BC00EE
:100DC800831603134B0883120313BB008316031304
:100DD8004A0883120313BA0001300A128A11152433
:100DE8000A128A11831203133D0883160313AD00F8
:100DF800831203133C0883160313AC0083120313F6
:100E08003B0883160313AB00831203133A088316B7
:100E18000313AA003E30A900F930A800F530A70056
:100E28005A30A6000A128A115A200A128A11831609
:100E380003132908C3002808C2002708C100260890
:100E4800C0000A128A1584270A128A11831603130E
:100E58004008FF007F0883120313CD004E30FF00C7
:100E68007F0883160313A500831203134D080A1283
:100E78008A112A260A128A110A3083120313BA0029
:100E88000030BB005108013EBC000030031801309F
:100E9800BD000A128A15D7230A128A118312031376
:100EA8003A08FF007F08D10009305106031D5D2F65
:100EB8005E2F5F2F50140800003083160313A30021
:100EC8000030A2000030A1000030A00083120313FC
:100ED8003D083C043B043A040319732F742FD12FA7
:100EE80083160313A401A40A882F0130C20003103B
:100EF800BA0DBB0DBC0DBD0DC20B7B2F0130FF0021
:100F08007F0883160313A40783120313BD1F8D2FB5
:100F18008E2F792F01308312C2000310831603131A
:100F2800A00DA10DA20DA30D83120313C20B912FC7
:100F38003D084102031DAA2F3C084002031DAA2FA9
:100F48003B083F02031DAA2F3A083E02031CAD2F9F
:100F5800AE2FBF2F3A08BE023B08031C3B0FBF024F
:100F68003C08031C3C0FC0023D08031C3D0FC10296
:100F7800831603132014013003108312BD0CBC0C1C
:100F8800BB0CBA0CFF3E031DC02F013083160313A0
:100F9800A402031DD02FD12F8E2F831603132308ED
:100FA80083120313BD00831603132208831203134D
:100FB800BC0083160313210883120313BB00831696
:100FC8000313200883120313BA00080007308A00AD
:100FD8000408840A820700340434143400340034CA
:100FE8000034073464340034003400340134F434F9
:060FF80001340034003456
:10122E000134013401340A340A128A1120250A12BB
:10123E008A1508008316031306140B168B1001175C
:10124E00080064008001840A0406031900340406B1
:10125E0029290230831603135206031D3729382914
:10126E003A29D301D30A08000A128A1537220A1224
:10127E008A150A128A154F240A128A150800831637
:10128E000313D201D301D30A3C30FF007F0883122F
:10129E000313CF00080083160313541C5729582933
:1012AE005E29831203131F1583160313D41408002B
:1012BE00DF30FF007F08831203138505EF30FF0038
:1012CE007F0885053F3088000800831203134E08FF
:1012DE000A128A15DA240A128A150A128A15DF25CD
:1012EE000A128A150800EF30FF007F0883120313DD
:1012FE008605DF30FF007F088705FB30FF007F0883
:10130E0087050800831203131E0883160313D000EB
:10131E001E08CF004F080A128A11D2260A128A1509
:10132E000800003083120313BA00BB000330BC0068
:10133E000030BD00D5300A128A1574220A128A15A1
:10134E0008008316031381128111011481140115F3
:10135E008B160B178B1764308312031381000B113E
:10136E000800F200F101721CBD29BE29C2297008C5
:10137E00FF007F08F1070310F00D0310F20C720846
:10138E00031DCA29CB29BA29710808000230831619
:10139E00031352060319D429D529DA295203031D42
:1013AE00D929DA29DC29D201E3295208031DE029C3
:1013BE00E129E329D201D20A080083120313BC00EB
:1013CE00BB013C1CEB29EC29F0293A08FF007F08F1
:1013DE00BB070310BA0D0310BC0C3C08031DF82903
:1013EE00F929E8293B080800013083120313C307CB
:1013FE00003003180130C407003003180130C50750
:10140E00003003180130C6074608B0004508AF008B
:10141E004408AE004308AD000A128A1516270A12B8
:10142E008A1508008316031305159F1783120313DD
:10143E001F179F13831603131F17831203139F1176
:10144E001F169F12831603131F109F141F119F1137
:10145E00831203131F141F11831603135414080051
:10146E0083160313541C3C2A3D2A542AD41C402AAA
:10147E00412A542A5203031D452A462A542A83120E
:10148E0003131F194B2A4C2A542A0A128A15892132
:10149E000A128A15831203131F150800DF30FF008E
:1014AE007F08831603138705FB30FF007F0887052F
:1014BE00EF30FF007F088605DF30FF007F088505CF
:1014CE00EF30FF007F08850586140615F730FF0004
:1014DE007F08870507168801080083120313BF00D3
:1014EE003F08FF007F08BE00872A3A08FF003E082B
:1014FE0084007F08831380000130FF007F08BE0741
:10150E000130BC020030031CBD03BD023C0A031DAA
:10151E00942A3D0A031D942A952A7C2A08008B1CC6
:10152E00992A9A2AA12A8B100A128A15CD210A12FB
:10153E008A15AD2A0B1DA42AA52AAD2A0B116430DB
:10154E0081000A128A15FB210A128A1583120313CF
:10155E003908FF0038088A0037088400360E8300E9
:10156E00FE0E7E0E0900831203130608BA00023027
:10157E000310BA0CFF3E031DBF2A3A1CC72AC82A05
:10158E00D42A0608BA0001300310BA0CFF3E031D20
:10159E00CB2A3A18D32AD42ADF2A831603135203EE
:1015AE00031DDA2ADB2ADF2A0230FF007F08D20071
:1015BE00080083120313BE01BF013A1CE72AE82A72
:1015CE00EE2A3C08BE070318BF0A3D08BF070130CC
:1015DE000310BC0DBD0DFF3E031DEF2A013003109D
:1015EE00BB0CBA0CFF3E031DF62A3A083B04031D42
:1015FE00012B022BE42A3F08BB003E08BA0008006C
:10160E0083120313C200BE01BF013A08BC00BD0124
:10161E003C08C0003D08C100421C162B172B1D2B89
:10162E004008BE070318BF0A4108BF070130031068
:10163E00C00DC10DFF3E031D1E2B0310C20C420830
:10164E00031D2A2B2B2B132B3F08BB003E08BA0081
:10165E0008000A128A1555220A128A150A128A15CC
:10166E0019220A128A150A128A1521210A128A15BE
:10167E000A128A155F210A128A150A128A157A2110
:10168E000A128A150A128A1546210A128A150A1298
:10169E008A1552210A128A150A128A1598210A12DF
:1016AE008A150A128A15A8210A128A150A128A1593
:1016BE009E230A128A15622B0A128A11122883128D
:1016CE0003135208C000C1014008BA004108BB0014
:1016DE0083160313230883120313BD00831603130B
:1016EE00220883120313BC000A128A15E0220A1282
:1016FE008A15831603132108831203133B06031D59
:10170E008E2B831603132008831203133A06031D30
:10171E00912B922B992B1030FF007F088606D20159
:10172E00D20A9D2B0130FF007F08D20708008316D6
:10173E000313D1015108D53E840083130003031D0A
:10174E00A92BAA2BCB2B0530FF007F088312031386
:10175E00BA008316031351080A128A15E4210A12DD
:10176E008A15013E84000A128A11EA270A128A1586
:10177E000A128A114B200A128A1583160313510876
:10178E00D53E8400831380010130FF007F08D1070E
:10179E0003305102031CD42BD52BA12B9E2B0800FA
:1017AE00831203133A083B040319DE2BDF2B0E2C96
:1017BE00BE01BE0AED2B01300310BA0DBB0DFF3E6C
:1017CE00031DE32B0130FF007F08BE07BB1FF02B6C
:1017DE00F12BE22B3B083D02031DF72B3A083C028E
:1017EE00031CFA2BFB2B012C3A08BC023B08031CF2
:1017FE00BD03BD0201300310BB0CBA0CFF3E031D2E
:10180E00022C0130BE02031D0D2C0E2CF12B3D08B7
:10181E00BB003C08BA00080083160313530883125A
:10182E000313C000C1014008BA004108BB00831673
:10183E000313230883120313BD0083160313220818
:10184E0083120313BC000A128A15E0220A128A15AB
:10185E00831603132108831203133B06031D3D2C2D
:10186E00831603132008831203133A06031D402C1C
:10187E00412C482C83160313D201D20AD301D30A6A
:10188E004E2C0130FF007F0883160313D307080088
:10189E000230831203134706031D562C572C6C2C53
:1018AE00831603135203031D5D2C5E2C6C2CE83043
:1018BE00A0000330A1006430A2000030A3000A1281
:1018CE008A1566230A128A15902C83124703031D6C
:1018DE00712C722C7D2C831603135203031D782C4E
:1018EE00792C7D2C831203130616902C831603136A
:1018FE0052080319832C842C8A2C02305206031DA5
:10190E00892C8A2C902CEF30FF007F088312031352
:10191E0086050800831203135308C000C101400856
:10192E00BA004108BB008316031323088312031366
:10193E00BD0083160313220883120313BC000A1280
:10194E008A15E0220A128A158316031321088312C0
:10195E0003133B06031DB92C8316031320088312B1
:10196E0003133A06031DBC2CBD2CD52C4C03031DB2
:10197E00C12CC22CCC2CCC01DF30FF007F0885059A
:10198E00EF30FF007F088505D32C4C08031DD02CAB
:10199E00D12CD32CCC01CC0AD301D30A0130FF00B9
:1019AE007F08D307080083120313BE00501CE02CDF
:1019BE00E12C242D831603135203031DE72CE82C70
:1019CE00242D831203134F08FB3EBA00FF30031879
:1019DE000030BB003E08BC00BD013B083D02031DAC
:1019EE00FA2C3A083C020318FD2CFE2C082DFB3075
:1019FE00FF007F08870587160230FF007F08C700AB
:101A0E002D2D3E08BA00BB014F08053EBC0000302C
:101A1E0003180130BD003B083D02031D182D3A0886
:101A2E003C0203181B2D1C2D2D2DDF30FF007F08CF
:101A3E0087050715C701C70A2D2DFB30FF007F084C
:101A4E0083128705DF30FF007F08870508008312A9
:101A5E00031328082704260425040319372D382DCF
:101A6E007B2DFD01FD0A482D0130FC000310A50D54
:101A7E00A60DA70DA80DFC0B3D2D0130FF007F0814
:101A8E00FD07A81F4B2D4C2D3B2D28082C02031DA6
:101A9E005A2D27082B02031D5A2D26082A02031D34
:101AAE005A2D25082902031C5D2D5E2D6C2D25084F
:101ABE00A9022608031C260FAA022708031C270FBB
:101ACE00AB022808031C280FAC0201300310A80C2F
:101ADE00A70CA60CA50CFF3E031D6D2D0130FD02BB
:101AEE00031D7A2D7B2D4C2D2C08A8002B08A7004A
:101AFE002A08A6002908A500080083120313BF01B7
:101B0E00BD1F8A2D8B2D922DBC09BD09BC0A031950
:101B1E00BD0ABF01BF0ABB1F952D962D9B2DBA097D
:101B2E00BB09BA0A0319BB0A3A083B040319A02DD4
:101B3E00A12DD02DBE01BE0AAF2D01300310BA0D5E
:101B4E00BB0DFF3E031DA52D0130FF007F08BE0714
:101B5E00BB1FB22DB32DA42D3B083D02031DB92D85
:101B6E003A083C02031CBC2DBD2DC32D3A08BC0205
:101B7E003B08031CBD03BD0201300310BB0CBA0CA5
:101B8E00FF3E031DC42D0130BE02031DCF2DD02DEF
:101B9E00B32D3F080319D42DD52DDA2DBC09BD095F
:101BAE00BC0A0319BD0A3D08BB003C08BA00080078
:101BBE000A128A15BA220A128A15023083160313E4
:101BCE005206031DEB2DEC2D442E8830A000133051
:101BDE00A100F430A2000130A3000A128A151324CA
:101BEE000A128A15831203130608C200023003106C
:101BFE00C20CFF3E031DFE2D4218062E072E232E6D
:101C0E000608C20001300310C20CFF3E031D0A2E4F
:101C1E00421C122E132E232E4B304F060319182E54
:101C2E00192E232E0530FF007F08CF070A128A15C2
:101C3E0030210A128A15442E0608C2000230031003
:101C4E00C20CFF3E031D262E421C2E2E2F2E442E7E
:101C5E000608C20001300310C20CFF3E031D322ED7
:101C6E0042183A2E3B2E442E23304F060319402E97
:101C7E00412E442E0530CF021D2E08000030831257
:101C8E000313A3000030A2000030A1000030A0001A
:101C9E0076087504740473040319562E572EA42E59
:101CAE00A401A40A672E0130FB000310F30DF40DFE
:101CBE00F50DF60DFB0B5C2E0130FF007F08A4071F
:101CCE00F61F6A2E6B2E5A2E0130FB000310A00D4C
:101CDE00A10DA20DA30DFB0B6D2E76087A02031D2E
:101CEE00822E75087902031D822E74087802031D58
:101CFE00822E73087702031C852E862E952E73086E
:101D0E00F7027408031C740FF8027508031C750F94
:101D1E00F9027608031C760FFA0220140130031024
:101D2E00F60CF50CF40CF30CFF3E031D962E013051
:101D3E00A402031DA32EA42E6B2E2308F600220848
:101D4E00F5002108F4002008F300080083120313A5
:101D5E00BF01BB1FB32EB42EBB2EBA09BB09BA0AE4
:101D6E000319BB0ABF01BF0ABD1FBE2EBF2EC82E50
:101D7E00BC09BD09BC0A0319BD0A0130FF007F086A
:101D8E00BF06C001C1013A083B040319CF2ED02E65
:101D9E00072FBE01BE0ADE2E01300310BA0DBB0D99
:101DAE00FF3E031DD42E0130FF007F08BE07BB1F70
:101DBE00E12EE22ED32E01300310C00DC10DFF3ED9
:101DCE00031DE32E3B083D02031DEF2E3A083C0295
:101DDE00031CF22EF32EFA2E3A08BC023B08031C0B
:101DEE00BD03BD02401401300310BB0CBA0CFF3E04
:101DFE00031DFB2E0130BE02031D062F072FE22E00
:101E0E003F0803190B2F0C2F112FC009C109C00A4F
:101E1E000319C10A4108BB004008BA00080083122A
:101E2E0003133008B4002F08B3002E08B2002D089B
:101E3E00B100B5010030F6000030F5000030F400BE
:101E4E001430F3000530FF007F08F00035080A1249
:101E5E008A15B8210A128A15023E84000A128A11C6
:101E6E00EA270A128A15F7000A128A11EA270A12BD
:101E7E008A15F8000A128A11EA270A128A15F90041
:101E8E000A128A11EA270A128A15FA000A128A150C
:101E9E0045260A128A15760883120313A8007508C0
:101EAE00A7007408A6007308A5003408AC00330818
:101EBE00AB003208AA003108A9000A128A152E2595
:101ECE000A128A15831203132808270426042504F0
:101EDE00031D722F732F792F3508D53E840083137F
:101EEE008001800A0130FF007F08B50703303502FC
:101EFE00031C822F832F212F080003108316031338
:101F0E00420D430DFF007F08C9004908031D902FA5
:101F1E00912F9A2F0030C3000030C2000030C10054
:101F2E000030C000FF2F4008C4004108C500420821
:101F3E00C6004308C7001F300310C70CC60CC50CE3
:101F4E00C40CFF3E031DA32F4408FF007F08C800EA
:101F5E00C217FF30C005FF30C105FF30C20500308B
:101F6E00C3059630C902C91FBD2FBE2FD82F4908F1
:101F7E00803A973E0318C42FC52FC62F912F0130DC
:101F8E000310C30CC20CC10CC00CFF3E031DC72FA7
:101F9E000130FF007F08C907031DD62FD72FC62F8C
:101FAE00EF2F20304902031CDD2FDE2FEA2F912F59
:101FBE000130C4000310C00DC10DC20DC30DC40B02
:101FCE00E12F0130C9024908031DEE2FEF2FDF2F3D
:101FDE0048080319F32FF42FFF2FC009C109C209B6
:101FEE00C309C00A0319C10A0319C20A0319C30A95
:021FFE000800D9
:02400E003A3F37
:00000001FF
