:020000040000FA
:060000000A128A11122809
:10000800FE00030E83120313B6000408B7000A08A3
:10001800B8007F08B9000A128A15A7290A128A119E
:1000280015280A168A11F0270A128A11D2000A1610
:100038008A11F1270A128A11D3000A168A11F227A7
:100048000A128A11D4000A168A11F3270A128A1191
:10005800D500831790308400B8300A128A1517200B
:100068000A128A1183160313DA01DB01DC01DD01B0
:10007800DE01DF0183133B30840052300A128A15F7
:1000880017200A128A1183010A128A15D72AFF003B
:1000980000308A007F08820750280A128A157C28B7
:1000A8000A168A11FA2F0A128A15292883160313A9
:1000B80031088039FF007F08BB003108B6003607D9
:1000C800FF007F08C100B01F6A286B286C28411404
:1000D80041080319702871288028410A031D7528D2
:1000E80076287E280030B1000030B0000030AF0024
:1000F8000030AE00B01788280030B1000030B000E2
:100108000030AF000030AE0035088039FF007F08AE
:10011800BB063508B6003607FF007F08BC00B41FD1
:100128009628972898283C143C0803199C289D2851
:10013800AC283C0A031DA128A228AA280030B50033
:100148000030B4000030B3000030B200B417B42857
:100158000030B5000030B4000030B3000030B20009
:100168003C080319B828B928BE284108031DBD2832
:10017800BE28C7280030B1000030B0000030AF0002
:100188000030AE00BA2B2E08FF007F08A00034080C
:100198000A128A1518220A128A11831603132108D3
:1001A800C7002008C6004608B600B701B801B90163
:1001B8003908C0003808BF003708BE003608BD003F
:1001C8004708B600B701B801B9013908C5003808B1
:1001D800C4003708C3003608C2002F08FF007F0894
:1001E800A00033080A128A1518220A128A118316E7
:1001F80003132108C7002008C6004608B600B70147
:10020800B801B9013608BD07370803110318013EC4
:1002180003190F29BE07380803110318013E0319F3
:100228001629BF07390803110318013E03191D29B0
:10023800C0074708B600B701B801B9013608C207B8
:10024800370803110318013E03192B29C30738087F
:1002580003110318013E03193229C4073908031191
:100268000318013E03193929C5073008FF007F0824
:10027800A00032080A128A1518220A128A11831657
:1002880003132108C7002008C6004608B600B701B6
:10029800B801B9013608BD07370803110318013E34
:1002A80003195729BE07380803110318013E03191B
:1002B8005E29BF07390803110318013E0319652990
:1002C800C0074708B600B701B801B9013608C20728
:1002D800370803110318013E03197329C3073808A7
:1002E80003110318013E03197A29C40739080311B9
:1002F8000318013E03198129C5070830B600031009
:10030800BD0DBE0DBF0DC00DB60B83292F08FF0014
:100318007F08A00032080A128A1518220A128A11C8
:10032800831603132108C7002008C6004608B60034
:100338004708B700B801B9013608BD0737080311E7
:100348000318013E0319A929BE0738080311031829
:10035800013E0319B029BF07390803110318013EEC
:100368000319B729C0072E08FF007F08A00033082B
:100378000A128A1518220A128A11831603132108F1
:10038800C7002008C6004608B6004708B700B801ED
:10039800B9013608BD07370803110318013E0319D0
:1003A800D629BE07380803110318013E0319DD29B1
:1003B800BF07390803110318013E0319E429C007D0
:1003C8000830B6000310BD0DBE0DBF0DC00DB60B35
:1003D800E6292E08FF007F08A00032080A128A15B5
:1003E80018220A128A11831603132108C70020084D
:1003F800C6004608B6004708B700B801B901360874
:10040800BD07370803110318013E03190C2ABE075C
:10041800380803110318013E0319132ABF073908C6
:1004280003110318013E03191A2AC0072F08FF00F9
:100438007F08A00034080A128A1518220A128A11A5
:10044800831603132108C7002008C6004608B60013
:100458004708B700B801B9013608C20737080311C1
:100468000318013E0319392AC30738080311031872
:10047800013E0319402AC407390803110318013E35
:100488000319472AC5073008FF007F08A000330872
:100498000A128A1518220A128A11831603132108D0
:1004A800C7002008C6004608B6004708B700B801CC
:1004B800B9013608C207370803110318013E0319AA
:1004C800662AC307380803110318013E03196D2A69
:1004D800C407390803110318013E0319742AC50714
:1004E8003008FF007F08A00034080A128A15182275
:1004F8000A128A11831603132108C7002008C600B0
:100508004608B6004708B700B801B901083003101B
:10051800B60DB70DB80DB90DFF3E031D8B2A360871
:10052800C207370803110318013E03199C2AC307A1
:10053800380803110318013E0319A32AC407390810
:1005480003110318013E0319AA2AC5073D08B6007E
:100558003E08B7003F08B8004008B900183003103B
:10056800B90CB80CB70CB60CFF3E031DB32A3608FD
:10057800C207370803110318013E0319C42AC30729
:10058800380803110318013E0319CB2AC407390898
:1005980003110318013E0319D22AC5070830B60013
:1005A8000310BD0DBE0DBF0DC00DB60BD42A4108FA
:1005B8003C07B600B701B70D3608823EC6003708BB
:1005C8000318013EFF3EC700062B0130B60003109A
:1005D800C20DC30DC40DC50DB60BEB2AC01FF52AFD
:1005E800F62AF72A42140130B6000310BD0DBE0DDD
:1005F800BF0DC00DB60BF92AFF30C6070318C70A8E
:10060800FF30C707C41F092B0A2BE92ABC01C01FEA
:100618000E2B0F2B2B2BFF303D05B600FF303E0570
:10062800B700FF303F05B8007F304005B9003908F2
:100638003804370436040319222B232B262BBC013C
:10064800BC0A2B2B421C292B2A2B2B2B232B3C0897
:1006580003192F2B302B612B0130C20700300318F0
:100668000130C307003003180130C40700300318F5
:100678000130C507451C412B422B612B4208B600AF
:100688004308B7004408B8004508B9000130BA006B
:10069800390DB90CB80CB70CB60CBA0B4C2B390881
:1006A800C5003808C4003708C3003608C200013046
:1006B800C6070318C70A0030C7074708803AFF0073
:1006C80080307F02031D6A2BFF304602031C6D2B0E
:1006D8006E2B792B7F3083160313C5008030C4003E
:1006E8000030C3000030C200AE2B83160313470846
:1006F800803AFF0080307F02031D842B01304602C0
:100708000318872B882B942B003083160313C500FE
:100718000030C4000030C3000030C200BB01AE2B63
:10072800831603134608FF007F08C100FF30C20587
:10073800FF30C3057F30C4050030C505411CA52B1B
:10074800A62BA72BC4174108B6000310360CFF00D0
:100758007F08C5003B08FF007F08C5044508B100B5
:100768004408B0004308AF004208AE0008008316F2
:1007780003135A03031DC12BC22BCB2B8312031364
:100788004E08FF007F08C800CC01CC0AE72B0230D6
:100798005A06031DD02BD12BD82B831203134F08D5
:1007A800FF007F08C800E72B5A08031DDC2BDD2B50
:1007B800E72BDF30FF007F08831203138505EF3036
:1007C800FF007F088505831603135A080319ED2BCC
:1007D800EE2BC42C831203134C03031DF42BF52BAF
:1007E800AF2C0A3083160313A0000030A100831237
:1007F8000313480883160313AC00AD012C08A200AC
:100808002D08A3000A128A152D250A128A118316AB
:1008180003132008FF007F0883120313CA000A305D
:1008280083160313A0000030A100831203134808A5
:1008380083160313AC00AD012C08A2002D08A300F9
:100848000A128A15B3260A128A118316031320087E
:10085800FF007F0883120313C9000130FF007F08DF
:10086800D4065408031D392C3A2C442C4A08FF009E
:100878007F08C700EF30FF007F0885058516852CA7
:100888005403031D482C492C852C4908FF007F0878
:10089800C700DF30FF007F0885050516852C3F302F
:1008A800831203138800AF2C0630831203138800C9
:1008B800AF2C5B30831203138800AF2C4F308312A8
:1008C80003138800AF2C6630831203138800AF2C03
:1008D8006D30831203138800AF2C7D30831203130D
:1008E8008800AF2C0730831203138800AF2C7F30A9
:1008F800831203138800AF2C6F3083120313880010
:10090800AF2C470883160313AC00AD012D08003A3D
:1009180003198F2CAF2C2C08003A0319532C013AD9
:100928000319582C033A03195D2C013A0319622C58
:10093800073A0319672C013A03196C2C033A031977
:10094800712C013A0319762C0F3A03197B2C013AC2
:100958000319802CAF2C0230831603135A06031D8B
:10096800B62CB72CC42CE830A6000330A7001430EE
:10097800A8000030A9000A128A1512230A128A1147
:10098800080083160313A80028080319CC2CCD2CC3
:10099800E12CA31FD02CD12CE12C2009AA0021097D
:1009A800AB002209AC002309AD00AA0A0319AB0A5F
:1009B8000319AC0A0319AD0AE92C2308AD00220873
:1009C800AC002108AB002008AA0023082204210457
:1009D8002004031DF02CF12CFA2C0030A300003069
:1009E800A2000030A1000030A000802D9630FF004A
:1009F8007F08A9000C2D0130FF007F08A9070130EE
:100A08000310AD0CAC0CAB0CAA0CFF3E031D042D5F
:100A1800FE302D05031D112D122DFF2C2E2D01301A
:100A2800FF007F08A9070130AA070030031801302A
:100A3800AB07003003180130AC0700300318013051
:100A4800AD0701300310AD0CAC0CAB0CAA0CFF3E8B
:100A5800031D262DFF302D05031D332D342D132D99
:100A6800402D0130A9020130A4000310AA0DAB0DDE
:100A7800AC0DAD0DA40B392DAC1B432D442D4A2DC7
:100A8800023029020318492D4A2D352D29184D2DDC
:100A98004E2D562DFF30AA05FF30AB057F30AC0533
:100AA800FF30AD050310A90C2908A400A501A60173
:100AB800A70118300310A40DA50DA60DA70DFF3E24
:100AC800031D5E2D2408AA042508AB042608AC04DF
:100AD8002708AD0428080319722D732D782DA31F3C
:100AE800762D772D782DAD172D08A3002C08A200A0
:100AF8002B08A1002A08A000080083160313B300DE
:100B0800003083120313C2000030C1000030C0005F
:100B18000030BF00831603133308AE00AF01B001E5
:100B2800B10183120313550883160313B200013071
:100B38000310B20DFF3E031D9C2D0310320D903E95
:100B480084002E0883178000840A2F088000840AF6
:100B580030088000840A310880000A30A000003084
:100B6800A100831203135508013E83160313A20044
:100B7800003003180130A3000A128A1594230A12C0
:100B88008A11831603132008FF007F0883120313BA
:100B9800D50083160313B4013408AE0001300310E6
:100BA800AE0DFF3E031DD32D03102E0D903E840085
:100BB8008317000883120313BF07840A0008031869
:100BC800000FE72DE82DC007840A00080318000F5E
:100BD800EE2DEF2DC107840A00080318000FF52D2C
:100BE800F62DC2070130FF007F0883160313B407F0
:100BF8000A303402031C012E022ED02D0030A3002F
:100C08000030A2000030A1000A30A00083120313B4
:100C1800420883160313A70083120313410883169F
:100C28000313A60083120313400883160313A500B9
:100C3800831203133F0883160313A4000A128A11B0
:100C480025270A128A11831603132008FF002D088E
:100C580084007F08831380000800031083160313A1
:100C68004A0D4B0DFF007F08D1005108031D3D2E92
:100C78003E2E472E0030CB000030CA000030C9009D
:100C88000030C800AC2E4808CC004908CD004A08FE
:100C9800CE004B08CF001F300310CF0CCE0CCD0C6C
:100CA800CC0CFF3E031D502E4C08FF007F08D000DF
:100CB800CA17FF30C805FF30C905FF30CA05003024
:100CC800CB059630D102D11F6A2E6B2E852E510886
:100CD800803A973E0318712E722E732E3E2E0130E5
:100CE8000310CB0CCA0CC90CC80CFF3E031D742E94
:100CF8000130FF007F08D107031D832E842E732E39
:100D08009C2E20305102031C8A2E8B2E972E3E2EAD
:100D18000130CC000310C80DC90DCA0DCB0DCC0B8A
:100D28008E2E0130D1025108031D9B2E9C2E8C2E35
:100D380050080319A02EA12EAC2EC809C909CA094A
:100D4800CB09C80A0319C90A0319CA0A0319CB0A25
:100D5800080083160313D6005608D200D301D40125
:100D6800D5015508A3005408A2005308A100520851
:100D7800A00001300A128A11C5240A128A118316AA
:100D880003132308B5002208B4002108B300200883
:100D9800B2003E30B100F930B000F530AF005A3043
:100DA800AE000A128A115A200A128A1183160313F6
:100DB8003108CB003008CA002F08C9002E08C80027
:100DC8000A128A1131260A128A1183160313480857
:100DD800FF007F0883120313CD004E30FF007F0809
:100DE80083160313AD00831203134D080A128A11E8
:100DF80081250A128A110A3083160313A0000030D5
:100E0800A100831203135108013E83160313A200A5
:100E1800003003180130A3000A128A1594230A121D
:100E28008A11831603132008FF007F088312031317
:100E3800D10009305106031D222F232F242F5014CF
:100E48000800003083160313AB000030AA000030FE
:100E5800A9000030A8002308220421042004031953
:100E6800362F372F942FAC01AC0A4F2F0130831245
:100E78000313BA00031083160313A00DA10DA20DCE
:100E8800A30D83120313BA0B3E2F0130FF007F0816
:100E980083160313AC07A31F522F532F3A2F013089
:100EA80083120313BA00031083160313A80DA90DA8
:100EB800AA0DAB0D83120313BA0B572F8316031316
:100EC80023082702031D722F22082602031D722FF2
:100ED80021082502031D722F20082402031C752FE8
:100EE800762F852F2008A4022108031C210FA502B4
:100EF8002208031C220FA6022308031C230FA702A3
:100F0800281401300310A30CA20CA10CA00CFF3E66
:100F1800031D862F0130AC02031D932F942F532FEE
:100F28002B08A3002A08A2002908A1002808A0006D
:100F3800080083160313A000A1018312031387116D
:100F48008316031307168312031307168316031356
:100F5800A2018312031387150A128A151F200A1289
:100F68008A1183120313070E0139BA00831603137B
:100F78002208073C013E83120313C42F0310BA0D45
:100F8800FF3E031DC22F3A08FF007F088316031394
:100F9800A1048312031387110130FF007F08831611
:100FA8000313A20708302202031CDB2FDC2FAD2F0E
:100FB800071220080319E12FE22FE62F83120313EB
:100FC8000712E92F8312031307160A128A151F2026
:100FD8000A128A118312031387150A128A151F2011
:100FE8000A128A1183120313871183160313210827
:020FF8000800EF
:1010000008308A000408840A820700340434143447
:1010100000340034003407346434003400340034C5
:0A1020000134C834003400340034F9
:10102E0064008001840A040603190034040618289B
:10103E0000000000000000000000000000000000A2
:10104E00000008000A128A1527210A128A150A12B0
:10105E008A1552230A128A150800831603135C1C84
:10106E0039283A284028831203131F1583160313B9
:10107E00DC140800DF30FF007F08831203138505A0
:10108E00EF30FF007F0885053F3088000800EF3005
:10109E00FF007F08831203138605DF30FF007F08F1
:1010AE008705FB30FF007F088705080083120313B6
:1010BE001E0883160313D8001E08D70057080A12FD
:1010CE008A11AD260A128A15080000308316031302
:1010DE00A000A1000330A2000030A300DD300A12F0
:1010EE008A1585210A128A1508000A128A158A277E
:1010FE000A128A150A128A15E6250A128A150A128A
:10110E008A1588250A128A15080083160313811280
:10111E0081110114811401158B160B178B17643076
:10112E008312031381000B1108008312031387151A
:10113E0007160A128A151F200A128A158312031324
:10114E0007120A128A151F200A128A150800831226
:10115E000313871507120A128A151F200A128A1501
:10116E008312031307160A128A151F200A128A15F4
:10117E000800F200F101721CC528C628CA287008A2
:10118E00FF007F08F1070310F00D0310F20C720838
:10119E00031DD228D328C2287108080002308316F6
:1011AE0003135A060319DC28DD28E2285A03031D0F
:1011BE00E128E228E428DA01EB285A08031DE82882
:1011CE00E928EB28DA01DA0A0800831603139F17C1
:1011DE00831203131F179F13831603131F178312F4
:1011EE0003139F111F169F12831603131F109F14B4
:1011FE001F119F11831203131F141F118316031344
:10120E005C140800013083120313BB07003003186F
:10121E000130BC07003003180130BD070030031841
:10122E000130BE073E08B0003D08AF003C08AE00DE
:10123E003B08AD000A128A151C270A128A150800EF
:10124E00831603135C1C2C292D294429DC1C302900
:10125E00312944295A03031D35293629442983127D
:10126E0003131F193B293C2944290A128A155D20B4
:10127E000A128A15831203131F150800831603130F
:10128E00A100A001211C4C294D29552983120313BD
:10129E003A08FF007F0883160313A007031083127A
:1012AE000313BA0D031083160313A10C2108031D9B
:1012BE0061296229492920080800DF30FF007F08D4
:1012CE00831603138705FB30FF007F088705EF3079
:1012DE00FF007F088605DF30FF007F088505EF30B1
:1012EE00FF007F0885058614061506140515F730D0
:1012FE00FF007F0887050716880108008316031371
:10130E00A5002508FF007F08A40098292008FF00EB
:10131E00240884007F08831380000130FF007F08BB
:10132E00A4070130A2020030031CA303A302220A69
:10133E00031DA529230A031DA529A6298D29080009
:10134E008B1CAA29AB29B2298B100A128A15D5201B
:10135E000A128A15BE290B1DB529B629BE290B11F5
:10136E00643081000A128A1509210A128A15831225
:10137E0003133908FF0038088A0037088400360E38
:10138E008300FE0E7E0E0900831203130608BA00B8
:10139E0002300310BA0CFF3E031DD0293A1CD82987
:1013AE00D929E5290608BA0001300310BA0CFF3E10
:1013BE00031DDC293A18E429E529F02983160313C5
:1013CE005A03031DEB29EC29F0290230FF007F0898
:1013DE00DA00080083160313A401A501201CF829C6
:1013EE00F929FF292208A4070318A50A2308A5072F
:1013FE0001300310A20DA30DFF3E031D002A013084
:10140E000310A10CA00CFF3E031D072A2008210487
:10141E00031D122A132AF5292508A1002408A0006D
:10142E00080083160313A800A401A5012008A2003A
:10143E00A3012208A6002308A700281C272A282A71
:10144E002E2A2608A4070318A50A2708A507013087
:10145E000310A60DA70DFF3E031D2F2A0310A80C87
:10146E002808031D3B2A3C2A242A2508A10024080B
:10147E00A0000800831603135B08AA00AB012A081C
:10148E00A0002B08A1002908A3002808A2000A1218
:10149E008A15F1210A128A158316031327082106CD
:1014AE00031D5B2A26082006031D5E2A5F2A692A71
:1014BE0083120313D01483160313DA01DA0ADB0145
:1014CE00DB0A6D2A0130FF007F08DB07080083125C
:1014DE000313520883160313AA00AB012A08A000B7
:1014EE002B08A1002908A3002808A2000A128A15B9
:1014FE00F1210A128A158316031327082106031DEC
:10150E008A2A26082006031D8D2A8E2A972A103035
:10151E00FF007F08831203138606D201D20A9D2A8A
:10152E000130FF007F0883120313D20708008316D1
:10153E000313D9015908DD3E840083130003031DF4
:10154E00A92AAA2ACB2A0530FF007F08831203138B
:10155E00BA008316031359080A128A1545210A1276
:10156E008A15013E84000A128A1500200A128A1575
:10157E000A128A114B200A128A1583160313590870
:10158E00DD3E8400831380010130FF007F08D90700
:10159E0003305902031CD42AD52AA12A9E2A0800F8
:1015AE000A128A1564210A128A150A128A15EC206B
:1015BE000A128A150A168A11F4270A128A150A12B5
:1015CE008A1541200A128A150A128A154E200A120D
:1015DE008A150A168A11EC270A128A150A128A151A
:1015EE007E240A128A150A128A1534200A128A15C6
:1015FE000A128A156C200A128A150A128A158C2074
:10160E000A128A150A128A159E220A128A150E2BA2
:10161E000A128A1112288312031353088316031316
:10162E00AA00AB012A08A0002B08A1002908A300DC
:10163E002808A2000A128A15F1210A128A158316A9
:10164E00031327082106031D2E2B26082006031D33
:10165E00312B322B4C2B831203134C03031D382BCF
:10166E00392B432BCC01DF30FF007F088505EF308F
:10167E00FF007F0885054A2B4C08031D472B482B7E
:10168E004A2BCC01CC0AD301D30A0130FF007F08CC
:10169E008312D30708000230831203134B06031D77
:1016AE00592B5A2B6F2B831603135A03031D602BD2
:1016BE00612B6F2BE830A6000330A7006430A80022
:1016CE000030A9000A128A156E220A128A15932B6F
:1016DE0083124B03031D742B752B802B8316031360
:1016EE005A03031D7B2B7C2B802B831203130616B0
:1016FE00932B831603135A080319862B872B8D2BD6
:10170E0002305A06031D8C2B8D2B932BEF30FF00CE
:10171E007F0883120313860508008316031320081F
:10172E00210403199B2B9C2BD52B83120313BA0177
:10173E00BA0AAE2B01300310A00DA10DFF3E031D02
:10174E00A22B0130FF007F0883120313BA07831602
:10175E000313A11FB32BB42BA12B83160313210844
:10176E002302031DBC2B20082202031CBF2BC02BFF
:10177E00C62B2008A2022108031CA303A3020130DA
:10178E000310A10CA00CFF3E031DC72B01308312CA
:10179E000313BA02031DD42BD52BB42B83160313BC
:1017AE002308A1002208A000080083160313A2003C
:1017BE0083120313871183160313A3012208A000BB
:1017CE002308073C013EED2B0310A00CFF3E031D2A
:1017DE00EB2B20080139A100A10E83120313070879
:1017EE00831603132106EF39210683120313870094
:1017FE0087150A128A151F200A128A1583120313DF
:10180E0087110130FF007F0883160313A3070830EA
:10181E002302031C132C142CE52B8312031307161F
:10182E000A128A151F200A128A15831203138715AE
:10183E000A128A151F200A128A15831203138711A2
:10184E00080083120313280827042604250403190D
:10185E00312C322C752CFD01FD0A422C0130FC007E
:10186E000310A50DA60DA70DA80DFC0B372C0130EE
:10187E00FF007F08FD07A81F452C462C352C280895
:10188E002C02031D542C27082B02031D542C260852
:10189E002A02031D542C25082902031C572C582CF0
:1018AE00662C2508A9022608031C260FAA02270863
:1018BE00031C270FAB022808031C280FAC020130B3
:1018CE000310A80CA70CA60CA50CFF3E031D672C3D
:1018DE000130FD02031D742C752C462C2C08A8001B
:1018EE002B08A7002A08A6002908A500080000302A
:1018FE0083160313A400A5000A128A15D4240A1213
:10190E008A15003A031D8C2C8D2C7E2C0A308316E2
:10191E000313A4000030A5000A128A15D4240A125B
:10192E008A15FF007F0883120313C600460883162C
:10193E000313A90007300310A90CFF3E031DA22CB0
:10194E0029080139FF007F08AA00831203134608F5
:10195E007F39FF007F0883160313AB002A03031D94
:10196E00B92CBA2CCD2C4C302B02031CBF2CC02C06
:10197E00C62C23302B02031CC52CC62CCD2C2B08B9
:10198E00FF007F0883120313CF00D32C3C30FF00DF
:10199E007F0883120313CF00080083160313250854
:1019AE000139FF007F08A8002408FF007F08A70068
:1019BE000A128A159C200A128A1583160313280808
:1019CE000319EA2CEB2CF22CA2300A128A15DC2316
:1019DE000A128A15F82CA0300A128A15DC230A1274
:1019EE008A158316031327080A128A15DC230A1296
:1019FE008A150A128A159C200A128A158316031359
:101A0E00280803190B2D0C2D132DA3300A128A153D
:101A1E00DC230A128A15192DA1300A128A15DC232D
:101A2E000A128A1501300A128A119D270A128A1586
:101A3E00FF007F0883160313A6000A128A15AE2034
:101A4E000A128A1583160313260808008316031339
:101A5E00A501A31F332D342D3B2DA209A309A20AE4
:101A6E000319A30AA501A50AA11F3E2D3F2D442D42
:101A7E00A009A109A00A0319A10A2008210403192B
:101A8E00492D4A2D792DA401A40A582D0130031099
:101A9E00A00DA10DFF3E031D4E2D0130FF007F084E
:101AAE00A407A11F5B2D5C2D4D2D21082302031DC4
:101ABE00622D20082202031C652D662D6C2D200838
:101ACE00A2022108031CA303A30201300310A10CE0
:101ADE00A00CFF3E031D6D2D0130A402031D782DB9
:101AEE00792D5C2D250803197D2D7E2D832DA209C0
:101AFE00A309A20A0319A30A2308A1002208A00021
:101B0E00080083120313D01C8D2D8E2DE52D4F084A
:101B1E008038FF007F08C600C5010A30FF007F082D
:101B2E00C400C3010A128A159C200A128A15831258
:101B3E00031345080319A42DA52DAC2DA2300A12AE
:101B4E008A15DC230A128A15B22DA0300A128A15C4
:101B5E00DC230A128A158312031344080A128A150B
:101B6E00DC230A128A158312031346080A128A15F9
:101B7E00DC230A128A150A128A15AE200A128A1559
:101B8E000130FF007F0883120313C3070A30831648
:101B9E000313A4000030A5000A128A15D4240A12D9
:101BAE008A158312031346060319DE2DDF2DE52D4C
:101BBE000A304302031CE42DE52D992D08008312F3
:101BCE000313501CEB2DEC2D412E831603135A03D9
:101BDE00031DF22DF32D412E831203134F08FB3EEE
:101BEE0083160313A000FF3003180030A1008312E8
:101BFE0003134E0883160313A200A3012108230228
:101C0E00031D0B2E2008220203180E2E0F2E1B2E44
:101C1E00FB30FF007F0883120313870587160230FF
:101C2E00FF007F08CB004A2E831203134E08831643
:101C3E000313A000A101831203134F08053E831660
:101C4E000313A200003003180130A3002108230261
:101C5E00031D332E200822020318362E372E4A2E4D
:101C6E00DF30FF007F088312031387050715CB01B2
:101C7E00CB0A4A2EFB30FF007F0883128705DF3028
:101C8E00FF007F0887050800003083120313A300AE
:101C9E000030A2000030A1000030A00076087504CC
:101CAE007404730403195C2E5D2EAA2EA401A40ADB
:101CBE006D2E0130FB000310F30DF40DF50DF60D36
:101CCE00FB0B622E0130FF007F08A407F61F702E5B
:101CDE00712E602E0130FB000310A00DA10DA20D80
:101CEE00A30DFB0B732E76087A02031D882E750842
:101CFE007902031D882E74087802031D882E73083E
:101D0E007702031C8B2E8C2E9B2E7308F702740801
:101D1E00031C740FF8027508031C750FF902760880
:101D2E00031C760FFA02201401300310F60CF50C8A
:101D3E00F40CF30CFF3E031D9C2E0130A402031D78
:101D4E00A92EAA2E712E2308F6002208F5002108CE
:101D5E00F4002008F300080083160313A501A11F49
:101D6E00B92EBA2EC12EA009A109A00A0319A10AE3
:101D7E00A501A50AA31FC42EC52ECE2EA209A30906
:101D8E00A20A0319A30A0130FF007F08A506A601C7
:101D9E00A701200821040319D52ED62E0D2FA4013C
:101DAE00A40AE42E01300310A00DA10DFF3E031D69
:101DBE00DA2E0130FF007F08A407A11FE72EE82EC0
:101DCE00D92E01300310A60DA70DFF3E031DE92EDF
:101DDE0021082302031DF52E20082202031CF82ED3
:101DEE00F92E002F2008A2022108031CA303A30230
:101DFE00261401300310A10CA00CFF3E031D012F71
:101E0E000130A402031D0C2F0D2FE82E25080319F7
:101E1E00112F122F172FA609A709A60A0319A70A11
:101E2E002708A1002608A00008008312031330081B
:101E3E00B4002F08B3002E08B2002D08B100B50172
:101E4E000030F6000030F5000030F4001430F300DE
:101E5E000530FF007F08F00035080A128A15C020F1
:101E6E000A128A15023E84000A128A1500200A12EE
:101E7E008A15F7000A128A1500200A128A15F80030
:101E8E000A128A1500200A128A15F9000A128A15FA
:101E9E0000200A128A15FA000A128A154B260A1217
:101EAE008A15760883120313A8007508A700740814
:101EBE00A6007308A5003408AC003308AB00320846
:101ECE00AA003108A9000A128A1528240A128A15B6
:101EDE00831203132808270426042504031D782FD4
:101EEE00792F7F2F3508DD3E840083138001800A11
:101EFE000130FF007F08B50703303502031C882F21
:101F0E00892F272F08000A128A15CB210A128A154B
:101F1E000230831603135A06031D962F972FFF2F99
:101F2E008830A6001330A700C830A8000030A900E2
:101F3E000A128A1541220A128A1583120313060801
:101F4E0083160313AC0002300310AC0CFF3E031DCE
:101F5E00AB2F2C18B32FB42FD52F831203130608D3
:101F6E0083160313AC0001300310AC0CFF3E031DAF
:101F7E00BB2F2C1CC32FC42FD52F4B308312031312
:101F8E004F060319CB2FCC2FD52F0530FF007F081E
:101F9E00CF0783160313DB01DB0AFF2F831206081C
:101FAE0083160313AC0002300310AC0CFF3E031D6E
:101FBE00DB2F2C1CE32FE42FFF2F831203130608B5
:101FCE0083160313AC0001300310AC0CFF3E031D4F
:101FDE00EB2F2C18F32FF42FFF2F23308312031324
:101FEE004F060319FB2FFC2FFF2F0530CF02D02FEA
:021FFE000800D9
:102FD80083160313DA0108000134013401340A347A
:102FE8000B168316031301178B1008000A128A1197
:082FF800BB230A168A11080030
:02400E003A3F37
:00000001FF
