:020000040000FA
:060000000A128A11122809
:10000800FE00030E83120313B2000408B3000A08AB
:10001800B4007F08B5000A128A15602A0A128A11EC
:1000280015280A128A15CC200A128A11D6000A123B
:100038008A15CD200A128A11D7000A128A15CE20F5
:100048000A128A11D8000A128A15CF200A128A11B8
:10005800D9008313A0308400D3300A128A15EA200D
:100068000A128A114530840056300A128A15EA208D
:100078000A128A1183010A128A15A52CFF00003082
:100088008A007F08820747280A128A1523290A123C
:100098008A15DC280A128A15722983160313560852
:1000A8008039FF007F08E0005608DB005B07FF008F
:1000B8007F08E600D51F6128622863286614660851
:1000C8000319672868287728660A031D6C286D2895
:1000D80075280030D6000030D5000030D40000303C
:1000E800D300D5177F280030D6000030D500003067
:1000F800D4000030D3005A088039FF007F08E0069A
:100108005A08DB005B07FF007F08E100D91F8D2834
:100118008E288F2861146108031993289428A3282E
:10012800610A031D98289928A1280030DA000030B8
:10013800D9000030D8000030D700D917AB280030DC
:10014800DA000030D9000030D8000030D70061084C
:100158000319AF28B028B5286608031DB428B528A8
:10016800BE280030D6000030D5000030D400003062
:10017800D3000B2C5308FF007F0883120313B6002B
:100188008316031359080A128A15AB220A128A1118
:1001980083120313370883160313EC008312031327
:1001A800360883160313EB006B08DB00DC01DD0166
:1001B800DE015E08E5005D08E4005C08E3005B081A
:1001C800E2006C08DB00DC01DD01DE015E08EA000C
:1001D8005D08E9005C08E8005B08E7005408FF00D8
:1001E8007F0883120313B6008316031358080A12F4
:1001F8008A15AB220A128A11831203133708831651
:100208000313EC0083120313360883160313EB0061
:100218006B08DB00DC01DD01DE015B08E2075C083E
:1002280003110318013E03191A29E3075D08031196
:100238000318013E03192129E4075E080311031876
:10024800013E03192829E5076C08DB00DC01DD0104
:10025800DE015B08E7075C0803110318013E031978
:100268003629E8075D0803110318013E03193D29E3
:10027800E9075E0803110318013E03194429EA0738
:100288005508FF007F0883120313B6008316031373
:1002980057080A128A15AB220A128A11831203130D
:1002A800370883160313EC008312031336088316EA
:1002B8000313EB006B08DB00DC01DD01DE015B08EA
:1002C800E2075C0803110318013E03196C29E307D0
:1002D8005D0803110318013E03197329E4075E083A
:1002E80003110318013E03197A29E5076C08DB009E
:1002F800DC01DD01DE015B08E7075C080311031878
:10030800013E03198829E8075D0803110318013E17
:1003180003198F29E9075E0803110318013E031921
:100328009629EA070830DB000310E20DE30DE40D1F
:10033800E50DDB0B98295408FF007F08831203138F
:10034800B6008316031357080A128A15AB220A123D
:100358008A1183120313370883160313EC008312E0
:100368000313360883160313EB006B08DB006C08D5
:10037800DC00DD01DE015B08E2075C0803110318FD
:10038800013E0319C829E3075D0803110318013E5C
:100398000319CF29E4075E0803110318013E031966
:1003A800D629E5075308FF007F0883120313B60018
:1003B8008316031358080A128A15AB220A128A11E7
:1003C80083120313370883160313EC0083120313F5
:1003D800360883160313EB006B08DB006C08DC009F
:1003E800DD01DE015B08E2075C0803110318013E2A
:1003F8000319FF29E3075D0803110318013E0319D8
:10040800062AE4075E0803110318013E03190D2AA2
:10041800E5070830DB000310E20DE30DE40DE50D00
:10042800DB0B0F2A5308FF007F0883120313B60063
:100438008316031357080A128A15AB220A128A1167
:1004480083120313370883160313EC008312031374
:10045800360883160313EB006B08DB006C08DC001E
:10046800DD01DE015B08E2075C0803110318013EA9
:1004780003193F2AE3075D0803110318013E031916
:10048800462AE4075E0803110318013E03194D2AA2
:10049800E5075408FF007F0883120313B60083168C
:1004A800031359080A128A15AB220A128A118312F9
:1004B8000313370883160313EC008312031336085B
:1004C80083160313EB006B08DB006C08DC00DD010E
:1004D800DE015B08E7075C0803110318013E0319F6
:1004E800762AE8075D0803110318013E03197D2ADF
:1004F800E9075E0803110318013E0319842AEA0775
:100508005508FF007F0883120313B60083160313F0
:1005180058080A128A15AB220A128A118312031389
:10052800370883160313EC00831203133608831667
:100538000313EB006B08DB006C08DC00DD01DE0157
:100548005B08E7075C0803110318013E0319AD2A8D
:10055800E8075D0803110318013E0319B42AE907E7
:100568005E0803110318013E0319BB2AEA07550860
:10057800FF007F0883120313B6008316031359087C
:100588000A128A15AB220A128A118312031337083A
:1005980083160313EC008312031336088316031320
:1005A800EB006B08DB006C08DC00DD01DE010830C5
:1005B8000310DB0DDC0DDD0DDE0DFF3E031DDC2A17
:1005C8005B08E7075C0803110318013E0319ED2ACD
:1005D800E8075D0803110318013E0319F42AE90727
:1005E8005E0803110318013E0319FB2AEA07620893
:1005F800DB006308DC006408DD006508DE001830F5
:100608000310DE0CDD0CDC0CDB0CFF3E031D042BA1
:100618005B08E7075C0803110318013E0319152B53
:10062800E8075D0803110318013E03191C2BE907AD
:100638005E0803110318013E0319232BEA0708304B
:10064800DB000310E20DE30DE40DE50DDB0B252BBC
:1006580066086107DB00DC01DC0D5B08823EEB000D
:100668005C080318013EFF3EEC00572B0130DB000D
:100678000310E70DE80DE90DEA0DDB0B3C2BE51F38
:10068800462B472B482B67140130DB000310E20D83
:10069800E30DE40DE50DDB0B4A2BFF30EB070318E8
:1006A800EC0AFF30EC07E91F5A2B5B2B3A2BE101D0
:1006B800E51F5F2B602B7C2BFF306205DB00FF30D2
:1006C8006305DC00FF306405DD007F306505DE0072
:1006D8005E085D045C045B040319732B742B772B91
:1006E800E101E10A7C2B671C7A2B7B2B7C2B742B7A
:1006F80061080319802B812BB22B0130E7070030EA
:1007080003180130E807003003180130E90700300A
:1007180003180130EA076A1C922B932BB22B670847
:10072800DB006808DC006908DD006A08DE000130CB
:10073800DF005E0DDE0CDD0CDC0CDB0CDF0B9D2B13
:100748005E08EA005D08E9005C08E8005B08E7006D
:100758000130EB070318EC0A0030EC076C08803A0C
:10076800FF0080307F02031DBB2BFF306B02031C90
:10077800BE2BBF2BCA2B7F3083160313EA008030B1
:10078800E9000030E8000030E700FF2B8316031370
:100798006C08803AFF0080307F02031DD52B0130A2
:1007A8006B020318D82BD92BE52B003083160313C3
:1007B800EA000030E9000030E8000030E700E0011E
:1007C800FF2B831603136B08FF007F08E600FF303A
:1007D800E705FF30E8057F30E9050030EA05661CCB
:1007E800F62BF72BF82BE9176608DB0003105B0CD8
:1007F800FF007F08EA006008FF007F08EA046A0833
:10080800D6006908D5006808D4006708D300080036
:1008180083120313BE003E080319132C142C282C32
:10082800B91F172C182C282C3609C0003709C1000D
:100838003809C2003909C300C00A0319C10A0319DB
:10084800C20A0319C30A302C3908C3003808C20089
:100858003708C1003608C0003908380437043604A0
:10086800031D372C382C412C0030B9000030B8005B
:100878000030B7000030B600C72C9630FF007F0864
:10088800BF00532C0130FF007F08BF070130031061
:10089800C30CC20CC10CC00CFF3E031D4B2CFE3018
:1008A8004305031D582C592C462C752C0130FF008C
:1008B8007F08BF070130C007003003180130C107A7
:1008C800003003180130C207003003180130C30795
:1008D80001300310C30CC20CC10CC00CFF3E031D39
:1008E8006D2CFF304305031D7A2C7B2C5A2C872C4A
:1008F8000130BF020130BA000310C00DC10DC20D96
:10090800C30DBA0B802CC21B8A2C8B2C912C023065
:100918003F020318902C912C7C2C3F18942C952C7A
:100928009D2CFF30C005FF30C1057F30C205FF3068
:10093800C3050310BF0C3F08BA00BB01BC01BD01D1
:1009480018300310BA0DBB0DBC0DBD0DFF3E031DC5
:10095800A52C3A08C0043B08C1043C08C2043D0861
:10096800C3043E080319B92CBA2CBF2CB91FBD2CDF
:10097800BE2CBF2CC3174308B9004208B800410871
:10098800B7004008B600080083160313D8000030EB
:10099800CF000030CE000030CD000030CC00580829
:1009A800D300D401D501D601831203135908831645
:1009B8000313D70001300310D70DFF3E031DDF2CB2
:1009C8000310570DA03E8400530883138000840A47
:1009D80054088000840A55088000840A560880005C
:1009E8000A3083120313B6000030B7005908013EDD
:1009F800B800003003180130B9000A128A156924BA
:100A08000A128A11831203133608FF007F08D900DF
:100A180083160313D9015908D30001300310D30DED
:100A2800FF3E031D122D0310530DA03E84008313B7
:100A38000008CC07840A00080318000F242D252D70
:100A4800CD07840A00080318000F2B2D2C2DCE0784
:100A5800840A00080318000F322D332DCF07013008
:100A6800FF007F08D9070A305902031C3C2D3D2D91
:100A78000F2D003083120313B9000030B800003086
:100A8800B7000A30B600831603134F088312031306
:100A9800BD00831603134E0883120313BC0083168C
:100AA80003134D0883120313BB00831603134C086A
:100AB80083120313BA000A128A1103270A128A1131
:100AC800831203133608FF00440884007F08831349
:100AD8008000080083160313EF006F0883160317BE
:100AE800980099019A019B011B0883120313B9000E
:100AF800831603171A0883120313B8008316031703
:100B0800190883120313B7008316031718088312F2
:100B18000313B60001300A128A110C240A128A1132
:100B280083120313390883160313DA00831203139D
:100B3800380883160313D900831203133708831662
:100B48000313D80083120313360883160313D70040
:100B58003E30D600F930D500F530D4005A30D300F5
:100B68000A128A1151200A128A1183160313560891
:100B78008316031793008316031355088316031768
:100B880092008316031354088316031791008316E3
:100B9800031353088316031790000A128A110826B4
:100BA8000A128A11831603171008FF007F088312A0
:100BB8000313D1005230FF007F08C40051080A1205
:100BC8008A11C8240A128A110A3083120313B60044
:100BD8000030B7005508013EB80000300318013056
:100BE800B9000A128A1569240A128A11831203139A
:100BF8003608FF007F08D50009305506031D052E6D
:100C0800062E072E54140800031083160317120D1E
:100C1800130DFF007F0883160313EE006E08031DF3
:100C2800162E172E222E003083160317930000303D
:100C380092000030910000309000992E831603171F
:100C480010089400110895001208960013089700E0
:100C58001F300310970C960C950C940CFF3E031D47
:100C68002D2E1408FF007F0883160313ED0083164A
:100C780003179217FF309005FF309105FF3092055A
:100C880000309305963083160313EE02EE1F4D2EA7
:100C98004E2E6C2E6E08803A973E0318542E552E11
:100CA800562E172E0130031083160317930C920C3F
:100CB800910C900CFF3E031D572E0130FF007F085A
:100CC80083160313EE07031D6A2E6B2E562E872EEE
:100CD80020306E02031C712E722E822E172E0130C8
:100CE8008316031794000310900D910D920D930D28
:100CF800940B772E013083160313EE026E08031D42
:100D0800862E872E732E6D0803198B2E8C2E992E06
:100D1800831603179009910992099309900A0319F8
:100D2800910A0319920A0319930A080083120313FC
:100D3800BB01B71FA02EA12EA82EB609B709B60A67
:100D48000319B70ABB01BB0AB91FAB2EAC2EB52ECF
:100D5800B809B909B80A0319B90A0130FF007F08B0
:100D6800BB06BC01BD01360837040319BC2EBD2ED5
:100D7800F42EBA01BA0ACB2E01300310B60DB70D06
:100D8800FF3E031DC12E0130FF007F08BA07B71FC1
:100D9800CE2ECF2EC02E01300310BC0DBD0DFF3E50
:100DA800031DD02E37083902031DDC2E3608380201
:100DB800031CDF2EE02EE72E3608B8023708031C86
:100DC800B903B9023C1401300310B70CB60CFF3E4E
:100DD800031DE82E0130BA02031DF32EF42ECF2E88
:100DE8003B080319F82EF92EFE2EBC09BD09BC0AD2
:100DF8000319BD0A3D08B7003C08B60008000030DA
:100E080083120313C2000030C1000030C00000305C
:100E1800BF0039083804370436040319142F152F76
:100E2800622FC301C30A252F0130BE000310B60D7F
:100E3800B70DB80DB90DBE0B1A2F0130FF007F0892
:100E4800C307B91F282F292F182F0130BE00031000
:100E5800BF0DC00DC10DC20DBE0B2B2F39083D02B1
:100E6800031D402F38083C02031D402F37083B0262
:100E7800031D402F36083A02031C432F442F532FDB
:100E88003608BA023708031C370FBB023808031CA0
:100E9800380FBC023908031C390FBD023F1401305A
:100EA8000310B90CB80CB70CB60CFF3E031D542F39
:100EB8000130C302031D612F622F292F4208B90098
:100EC8004108B8004008B7003F08B60008000030E5
:100ED80083120313A3000030A2000030A1000030E9
:100EE800A000760875047404730403197C2F7D2F01
:100EF800CA2FA401A40A8D2F0130FB000310F30DA3
:100F0800F40DF50DF60DFB0B822F0130FF007F0865
:100F1800A407F61F902F912F802F0130FB0003109C
:100F2800A00DA10DA20DA30DFB0B932F76087A023D
:100F3800031DA82F75087902031DA82F74087802CD
:100F4800031DA82F73087702031CAB2FAC2FBB2FF0
:100F58007308F7027408031C740FF8027508031C61
:100F6800750FF9027608031C760FFA022014013077
:100F78000310F60CF50CF40CF30CFF3E031DBC2F0C
:100F88000130A402031DC92FCA2F912F2308F60090
:100F98002208F5002108F4002008F3000800E92FD2
:100FA800E830BC000330BD006430BE000030BF0034
:100FB8000A128A15D4220A128A11FE2F0616FE2F4B
:100FC800EF30FF007F088605FE2F831203134E08BB
:100FD800C200C3014308003A0319F32FFE2F420849
:100FE800003A0319E42F013A0319E22F033A0319CF
:060FF800D42FFE2F0800BB
:1010000008308A000408840A820700340434143447
:1010100000340034003407346434003400340034C5
:0A1020000134F434013400340034CC
:1011900083120313C50108000134013401340A34F9
:1011A00083120313B6003608930008000B1683164B
:1011B000031301178B1008000A128A15C3250A129F
:1011C0008A150800831203138C1DE728E828E228FB
:1011D0008C11080064008001840A0406031900349D
:1011E0000406EB2883120313501CF728F828FA286A
:1011F0001F15D01408008316031391161116111A27
:1012000002290329FF280800831603131E080A1267
:101210008A116E250A128A15080083160313111409
:101220001118132914291029831203138C11080093
:1012300083160313111511191E291F291B29831247
:1012400003138C1108000A128A15E4240A128A1565
:101250000A128A15ED210A128A1508008312031357
:10126000CE01DF30FF007F088705FB30FF007F08DD
:1012700087050800133083160313930083120313AA
:10128000141094101411941594160800DF30FF0008
:101290007F08831203138505EF30FF007F08850563
:1012A0003F3088000800831603139115141C592938
:1012B0005A295629831203131308FF007F08B6002A
:1012C00036080800003083120313B600B70003305D
:1012D000B8000030B900D0300A128A153E220A1236
:1012E0008A1508000A128A1577260A128A150A1228
:1012F0008A15D5210A128A150A128A159A270A1206
:101300008A150800831603138112811101148114B8
:1013100001158B160B178B17643083120313810092
:101320000B110800F200F101721C972998299C29E1
:101330007008FF007F08F1070310F00D0310F20C96
:101340007208031DA429A5299429710808000230F8
:101350008312031345060319AE29AF29B4294503A7
:10136000031DB329B429B629C501BD294508031DAC
:10137000BA29BB29BD29C501C50A08008312031378
:10138000B800B701381CC529C629CA293608FF008C
:101390007F08B7070310B60D0310B80C3808031DFB
:1013A000D229D329C2293708080083120313D01C7D
:1013B000DA29DB29EC294503031DDF29E029EC2983
:1013C0001F19E329E429EC290A128A1504210A12BB
:1013D0008A15831203131F15080083120313D41CEC
:1013E000F229F329042A5308FF007F08CC000A30B1
:1013F000FF007F08B7004C080A128A1555230A120D
:101400008A1583120313D4100800831603139F1741
:10141000831203131F179F13831603131F178312BF
:1014200003139F111F169F12831603131F109F147F
:101430001F119F11831203131F141F115014080052
:10144000DF30FF007F08831603138705FB30FF00A2
:101450007F088705EF30FF007F088605DF30FF003B
:101460007F088505EF30FF007F0885058614061587
:101470000614051587150716880108008312031343
:10148000BB003B08FF007F08BA00512A3608FF0066
:101490003A0884007F08831380000130FF007F0832
:1014A000BA070130B8020030031CB903B902380A88
:1014B000031D5E2A390A031D5E2A5F2A462A080098
:1014C0008B1C632A642A6B2A8B100A128A15A721A7
:1014D0000A128A15772A0B1D6E2A6F2A772A0B119A
:1014E000643081000A128A1529230A128A15831290
:1014F00003133508FF0034088A0033088400320ED5
:101500008300FE0E7E0E090083120313BA01BB0195
:10151000361C8B2A8C2A922A3808BA070318BB0A71
:101520003908BB0701300310B80DB90DFF3E031D8C
:10153000932A01300310B70CB60CFF3E031D9A2A04
:1015400036083704031DA52AA62A882A3B08B700B7
:101550003A08B600080083120313BE00BA01BB01AB
:101560003608B800B9013808BC003908BD003E1C77
:10157000BA2ABB2AC12A3C08BA070318BB0A3D088D
:10158000BB0701300310BC0DBD0DFF3E031DC22A79
:101590000310BE0C3E08031DCE2ACF2AB72A3B08F3
:1015A000B7003A08B6000800831203135808C000B9
:1015B000C1014008B6004108B7003F08B9003E0825
:1015C000B8000A128A1584220A128A15831203139C
:1015D0003D083706031DEE2A3C083606031DF12A96
:1015E000F22AF92A1030FF007F088606D801D80AAF
:1015F000FD2A0130FF007F08D8070800831203137B
:101600004608C000C1014008B6004108B7003F08C5
:10161000B9003E08B8000A128A1584220A128A15F7
:10162000831203133D083706031D182B3C083606AA
:10163000031D1B2B1C2B242BD414C501C50AC6016A
:10164000C60A4D10CD10282B0130FF007F08C607B9
:101650000800013083160313C80700300318013057
:10166000C907003003180130CA07003003180130E1
:10167000CB074B0883120313B000831603134A08E9
:1016800083120313AF008316031349088312031355
:10169000AE0083160313480883120313AD000A1229
:1016A0008A1534270A128A15080083120313B8001A
:1016B0000A128A150D210A128A15A0300A128A15FB
:1016C000D0200A128A150A128A15E2200A128A15F7
:1016D0008312031337080A128A15D0200A128A15BA
:1016E0000A128A15E2200A128A1583120313380897
:1016F0000A128A15D0200A128A150A128A15E220C7
:101700000A128A150A128A1518210A128A15080067
:10171000831203134503031D8E2B8F2B962B520828
:10172000FF007F08C900CF01CF0ABB2B023045065E
:10173000031D9B2B9C2BAE2B5308FF007F08C90079
:10174000E830BC000330BD001430BE000030BF00E4
:101750000A128A152E240A128A15BB2B4508031D6E
:10176000B22BB32BBB2BDF30FF007F088505EF309A
:10177000FF007F08850508000A300A128A15252512
:101780000A128A15FF007F0883120313CC004C3025
:101790004C020318CC2BCD2BF02B23304C02031C16
:1017A000D22BD32BF02B0530B6000030B7004C08FD
:1017B000BC00BD013C08B8003D08B9000A128A15FA
:1017C0001C260A128A158312031336083704031DD8
:1017D000EA2BEB2BF02B4C08FF007F08D300F42BF7
:1017E0003C30FF007F08D3000800831603179C01DC
:1017F0001C08D03E840083130003031D002C012C21
:10180000222C0530FF007F0883120313B6008316D5
:1018100003171C080A128A15BE210A128A15013EF6
:1018200084000A128A1500200A128A150A128A11E7
:1018300042200A128A15831603171C08D03E840022
:10184000831380010130FF007F089C0703301C02D6
:10185000031C2B2C2C2CF82BF52B080083120313C4
:101860005708C000C1014008B6004108B7003F0852
:10187000B9003E08B8000A128A1584220A128A1595
:10188000831203133D083706031D482C3C08360617
:10189000031D4B2C4C2C642C4F03031D502C512C3E
:1018A0005B2CCF01DF30FF007F088505EF30FF00A4
:1018B0007F088505622C4F08031D5F2C602C622C6D
:1018C000CF01CF0AD701D70A0130FF007F08D70721
:1018D000080083120313360837040319702C712C87
:1018E000A02CBA01BA0A7F2C01300310B60DB70D37
:1018F000FF3E031D752C0130FF007F08BA07B71F9C
:10190000822C832C742C37083902031D892C36084D
:101910003802031C8C2C8D2C932C3608B802370807
:10192000031CB903B90201300310B70CB60CFF3E1B
:10193000031D942C0130BA02031D9F2CA02C832C74
:101940003908B7003808B60008000A128A152022A4
:101950000A128A150A128A153A210A128A150A12DF
:101960008A1505220A128A150A128A15D6200A1229
:101970008A150A128A1546210A128A150A128A1530
:101980002E210A128A150A128A15C8200A128A15EF
:101990000A128A15BC230A128A150A128A15F22025
:1019A0000A128A150A128A1562210A128A150A1267
:1019B0008A1582210A128A150A128A15F5230A123B
:1019C0008A150A128A11122802308312031345065F
:1019D000031DEB2CEC2C242D8830BC001330BD00F3
:1019E000F430BE000130BF000A128A15FE220A122E
:1019F0008A15831203134D1CFE2CFF2C112DCD18BC
:101A0000022D032D112D4B3053060319082D092DDE
:101A1000112D0530FF007F08D307C601C60A4D10FF
:101A2000242DCD1C142D152D242D4D18182D192DB8
:101A3000242D2330530603191E2D1F2D242D053070
:101A4000D302C601C60ACD10080083120313B700E3
:101A50000A128A150D210A128A15A0300A128A1557
:101A6000D0200A128A150A128A15E2200A128A1553
:101A70008312031337080A128A15D0200A128A1516
:101A80000A128A15E2200A128A150A128A150D21F5
:101A90000A128A15A1300A128A15D0200A128A1554
:101AA0000A128A15E2200A128A150A128A1553218F
:101AB0000A128A15FF007F0883120313CB000A1253
:101AC0008A15FB200A128A150A128A1518210A1291
:101AD0008A15831203134B08080083120313280886
:101AE0002704260425040319762D772DBA2DFD0130
:101AF000FD0A872D0130FC000310A50DA60DA70DD2
:101B0000A80DFC0B7C2D0130FF007F08FD07A81FEE
:101B10008A2D8B2D7A2D28082C02031D992D27083C
:101B20002B02031D992D26082A02031D992D250835
:101B30002902031C9C2D9D2DAB2D2508A9022608EA
:101B4000031C260FAA022708031C270FAB02280834
:101B5000031C280FAC0201300310A80CA70CA60C24
:101B6000A50CFF3E031DAC2D0130FD02031DB92D58
:101B7000BA2D8B2D2C08A8002B08A7002A08A60038
:101B80002908A50008000A128A1588230A128A1556
:101B90000A128A15D4260A128A15EE2D3F308800C3
:101BA0001B2E063088001B2E5B3088001B2E4F300A
:101BB00088001B2E663088001B2E6D3088001B2E7F
:101BC0007D3088001B2E073088001B2E7F30880058
:101BD0001B2E6F3088001B2E88011B2E83120313CF
:101BE0004A08C200C3014308003A0319F82D1B2E0E
:101BF0004208003A0319CE2D013A0319D12D033AB8
:101C00000319D42D013A0319D72D073A0319DA2DF8
:101C1000013A0319DD2D033A0319E02D013A0319A6
:101C2000E32D0F3A0319E62D013A0319E92D033A82
:101C30000319EC2D1B2E080083120313BB01B91FDF
:101C4000222E232E2A2EB809B909B80A0319B90A77
:101C5000BB01BB0AB71F2D2E2E2E332EB609B70996
:101C6000B60A0319B70A360837040319382E392E75
:101C7000682EBA01BA0A472E01300310B60DB70D0F
:101C8000FF3E031D3D2E0130FF007F08BA07B71F3E
:101C90004A2E4B2E3C2E37083902031D512E360892
:101CA0003802031C542E552E5B2E3608B802370816
:101CB000031CB903B90201300310B70CB60CFF3E88
:101CC000031D5C2E0130BA02031D672E682E4B2EB9
:101CD0003B0803196C2E6D2E722EB809B909B80A8B
:101CE0000319B90A3908B7003808B600080083128A
:101CF00003130608B60002300310B60CFF3E031DA6
:101D00007C2E361C842E852E912E0608B6000130BE
:101D10000310B60CFF3E031D882E3618902E912E10
:101D2000D32E4503031D952E962E9B2E0230FF00C9
:101D30007F08C500D32E02304506031DA02EA12E1C
:101D4000D32E0608B60002300310B60CFF3E031D6A
:101D5000A42E3618AC2EAD2EBA2E4D144D18B12E21
:101D6000B52E831203134D14B82E831203134D1096
:101D7000CD10D32E0608B60001300310B60CFF3E7E
:101D8000031DBD2E3618C52EC62ED32ECD14CD184C
:101D9000CA2ECE2E83120313CD14D12E8312031319
:101DA000CD104D10D32E08008312031345080319DC
:101DB000DA2EDB2E2F2F4F03031DDF2EE02E332FC5
:101DC0000A30B6000030B7004908BE00BF013E0827
:101DD000B8003F08B9000A128A151C260A128A1593
:101DE000831203133608FF007F08C8000A30B600CC
:101DF0000030B7004908BE00BF013E08B8003F08E8
:101E0000B9000A128A119A260A128A15831203133C
:101E10003608FF007F08C7000130FF007F08D606A4
:101E20005608031D142F152F1F2F4808FF007F0889
:101E3000CA00EF30FF007F0885058516332F560353
:101E4000031D232F242F2E2F4708FF007F08CA00D1
:101E5000DF30FF007F0885050516332F332F0A304A
:101E6000FF007F08CA00080083120313B10100308D
:101E7000F6000030F5000030F4001430F3000530B7
:101E8000FF007F08F00031080A128A1592210A1219
:101E90008A15023E84000A128A1500200A128A1549
:101EA000F7000A128A1500200A128A15F8000A1291
:101EB0008A1500200A128A15F9000A128A150020D4
:101EC0000A128A15FA000A128A116B270A128A1559
:101ED000760883120313A8007508A7007408A600EB
:101EE0007308A5003008AC002F08AB002E08AA002C
:101EF0002D08A9000A128A156D250A128A15831267
:101F000003132808270426042504031D882F892F7E
:101F10008F2F3108D03E840083138001800A013066
:101F2000FF007F08B10703303102031C982F992F5F
:101F3000372F080083120313541C9F2FA02FF12F5B
:101F40004503031DA42FA52FF12F5308FB3E831635
:101F50000313D300FF3003180030D400831203139F
:101F6000520883160313D500D60154085602031DE8
:101F7000BB2F530855020318BE2FBF2FCB2FFB30AA
:101F8000FF007F0883120313870587160230FF00C6
:101F90007F08CE00FA2F831203135208831603130F
:101FA000D300D401831203135308053E8316031391
:101FB000D500003003180130D60054085602031D26
:101FC000E32F530855020318E62FE72FFA2FDF30CF
:101FD000FF007F088312031387050715CE01CE0A81
:101FE000FA2FFB30FF007F088705DF30FF007F08F6
:101FF0008705CE010A128A11D3270A128A15080012
:02400E003A3F37
:00000001FF
