:020000040000FA
:060000000A128A11122809
:10000800FE00030E83120313B2000408B3000A08AB
:10001800B4007F08B5000A128A1590290A128A11BD
:1000280015280A128A1535200A128A11D6000A12D2
:100038008A1536200A128A11D7000A128A15372023
:100048000A128A11D8000A128A1538200A128A114F
:10005800D9008313A0308400D3300A128A153F20B8
:100068000A128A114430840056300A128A153F2039
:100078000A128A1183010A128A15172BFF00003011
:100088008A007F08820747280A128A15A5280A12BB
:100098008A1563280A128A156E28831603135608D0
:1000A8008039FF007F08E0005608DB005B07FF008F
:1000B8007F08E600D51F6128622863286614660851
:1000C8000319672868287728660A031D6C286D2895
:1000D80075280030D6000030D5000030D40000303C
:1000E800D300D5177F280030D6000030D500003067
:1000F800D4000030D3005A088039FF007F08E0069A
:100108005A08DB005B07FF007F08E100D91F8D2834
:100118008E288F2861146108031993289428A3282E
:10012800610A031D98289928A1280030DA000030B8
:10013800D9000030D8000030D700D917AB280030DC
:10014800DA000030D9000030D8000030D70061084C
:100158000319AF28B028B5286608031DB428B528A8
:10016800BE280030D6000030D5000030D400003062
:10017800D3000B2C5308FF007F0883120313B6002B
:100188008316031359080A128A15FF210A128A11C5
:1001980083120313370883160313EC008312031327
:1001A800360883160313EB006B08DB00DC01DD0166
:1001B800DE015E08E5005D08E4005C08E3005B081A
:1001C800E2006C08DB00DC01DD01DE015E08EA000C
:1001D8005D08E9005C08E8005B08E7005408FF00D8
:1001E8007F0883120313B6008316031358080A12F4
:1001F8008A15FF210A128A118312031337088316FE
:100208000313EC0083120313360883160313EB0061
:100218006B08DB00DC01DD01DE015B08E2075C083E
:1002280003110318013E03191A29E3075D08031196
:100238000318013E03192129E4075E080311031876
:10024800013E03192829E5076C08DB00DC01DD0104
:10025800DE015B08E7075C0803110318013E031978
:100268003629E8075D0803110318013E03193D29E3
:10027800E9075E0803110318013E03194429EA0738
:100288005508FF007F0883120313B6008316031373
:1002980057080A128A15FF210A128A1183120313BA
:1002A800370883160313EC008312031336088316EA
:1002B8000313EB006B08DB00DC01DD01DE015B08EA
:1002C800E2075C0803110318013E03196C29E307D0
:1002D8005D0803110318013E03197329E4075E083A
:1002E80003110318013E03197A29E5076C08DB009E
:1002F800DC01DD01DE015B08E7075C080311031878
:10030800013E03198829E8075D0803110318013E17
:1003180003198F29E9075E0803110318013E031921
:100328009629EA070830DB000310E20DE30DE40D1F
:10033800E50DDB0B98295408FF007F08831203138F
:10034800B6008316031357080A128A15FF210A12EA
:100358008A1183120313370883160313EC008312E0
:100368000313360883160313EB006B08DB006C08D5
:10037800DC00DD01DE015B08E2075C0803110318FD
:10038800013E0319C829E3075D0803110318013E5C
:100398000319CF29E4075E0803110318013E031966
:1003A800D629E5075308FF007F0883120313B60018
:1003B8008316031358080A128A15FF210A128A1194
:1003C80083120313370883160313EC0083120313F5
:1003D800360883160313EB006B08DB006C08DC009F
:1003E800DD01DE015B08E2075C0803110318013E2A
:1003F8000319FF29E3075D0803110318013E0319D8
:10040800062AE4075E0803110318013E03190D2AA2
:10041800E5070830DB000310E20DE30DE40DE50D00
:10042800DB0B0F2A5308FF007F0883120313B60063
:100438008316031357080A128A15FF210A128A1114
:1004480083120313370883160313EC008312031374
:10045800360883160313EB006B08DB006C08DC001E
:10046800DD01DE015B08E2075C0803110318013EA9
:1004780003193F2AE3075D0803110318013E031916
:10048800462AE4075E0803110318013E03194D2AA2
:10049800E5075408FF007F0883120313B60083168C
:1004A800031359080A128A15FF210A128A118312A6
:1004B8000313370883160313EC008312031336085B
:1004C80083160313EB006B08DB006C08DC00DD010E
:1004D800DE015B08E7075C0803110318013E0319F6
:1004E800762AE8075D0803110318013E03197D2ADF
:1004F800E9075E0803110318013E0319842AEA0775
:100508005508FF007F0883120313B60083160313F0
:1005180058080A128A15FF210A128A118312031336
:10052800370883160313EC00831203133608831667
:100538000313EB006B08DB006C08DC00DD01DE0157
:100548005B08E7075C0803110318013E0319AD2A8D
:10055800E8075D0803110318013E0319B42AE907E7
:100568005E0803110318013E0319BB2AEA07550860
:10057800FF007F0883120313B6008316031359087C
:100588000A128A15FF210A128A11831203133708E7
:1005980083160313EC008312031336088316031320
:1005A800EB006B08DB006C08DC00DD01DE010830C5
:1005B8000310DB0DDC0DDD0DDE0DFF3E031DDC2A17
:1005C8005B08E7075C0803110318013E0319ED2ACD
:1005D800E8075D0803110318013E0319F42AE90727
:1005E8005E0803110318013E0319FB2AEA07620893
:1005F800DB006308DC006408DD006508DE001830F5
:100608000310DE0CDD0CDC0CDB0CFF3E031D042BA1
:100618005B08E7075C0803110318013E0319152B53
:10062800E8075D0803110318013E03191C2BE907AD
:100638005E0803110318013E0319232BEA0708304B
:10064800DB000310E20DE30DE40DE50DDB0B252BBC
:1006580066086107DB00DC01DC0D5B08823EEB000D
:100668005C080318013EFF3EEC00572B0130DB000D
:100678000310E70DE80DE90DEA0DDB0B3C2BE51F38
:10068800462B472B482B67140130DB000310E20D83
:10069800E30DE40DE50DDB0B4A2BFF30EB070318E8
:1006A800EC0AFF30EC07E91F5A2B5B2B3A2BE101D0
:1006B800E51F5F2B602B7C2BFF306205DB00FF30D2
:1006C8006305DC00FF306405DD007F306505DE0072
:1006D8005E085D045C045B040319732B742B772B91
:1006E800E101E10A7C2B671C7A2B7B2B7C2B742B7A
:1006F80061080319802B812BB22B0130E7070030EA
:1007080003180130E807003003180130E90700300A
:1007180003180130EA076A1C922B932BB22B670847
:10072800DB006808DC006908DD006A08DE000130CB
:10073800DF005E0DDE0CDD0CDC0CDB0CDF0B9D2B13
:100748005E08EA005D08E9005C08E8005B08E7006D
:100758000130EB070318EC0A0030EC076C08803A0C
:10076800FF0080307F02031DBB2BFF306B02031C90
:10077800BE2BBF2BCA2B7F3083160313EA008030B1
:10078800E9000030E8000030E700FF2B8316031370
:100798006C08803AFF0080307F02031DD52B0130A2
:1007A8006B020318D82BD92BE52B003083160313C3
:1007B800EA000030E9000030E8000030E700E0011E
:1007C800FF2B831603136B08FF007F08E600FF303A
:1007D800E705FF30E8057F30E9050030EA05661CCB
:1007E800F62BF72BF82BE9176608DB0003105B0CD8
:1007F800FF007F08EA006008FF007F08EA046A0833
:10080800D6006908D5006808D4006708D300080036
:10081800831203134403031D122C132C1A2C5208A1
:10082800FF007F08C700CF01CF0A332C02304406EF
:10083800031D1F2C202C252C5308FF007F08C70000
:10084800332C4408031D292C2A2C332CDF30FF00BD
:100858007F088505EF30FF007F088505880144087B
:100868000319372C382CE42C4F03031D3C2C3D2C4A
:10087800D12C0A30B6000030B7004708C200C301C7
:100888004208B8004308B9000A128A1559250A1205
:100898008A11831203133608FF007F08C9000A3043
:1008A800B6000030B7004708C200C3014208B800CC
:1008B8004308B9000A128A1179270A128A11831289
:1008C80003133608FF007F08C8000130FF007F08C7
:1008D800D7065708031D712C722C7C2C4908FF0081
:1008E8007F08C600EF30FF007F0885058516A92C14
:1008F8005703031D802C812CA92C4808FF007F0872
:10090800C600DF30FF007F0885050516A92C3F309B
:100918008800D12C06308800D12C5B308800D12C7F
:100928004F308800D12C66308800D12C6D3088007B
:10093800D12C7D308800D12C07308800D12C7F3015
:100948008800D12C6F308800D12C4608C200C30122
:100958004308003A0319B12CD12C4208003A031974
:100968008B2C013A03198E2C033A0319912C013A66
:100978000319942C073A0319972C013A03199A2C56
:10098800033A03199D2C013A0319A02C0F3A0319B5
:10099800A32C013A0319A62CD12C02304406031DBE
:1009A800D62CD72CE42CE830BC000330BD00143022
:1009B800BE000030BF000A128A1551230A128A119C
:1009C800080083120313BE003E080319EC2CED2C1B
:1009D800012DB91FF02CF12C012D3609C000370963
:1009E800C1003809C2003909C300C00A0319C10A85
:1009F8000319C20A0319C30A092D3908C3003808A4
:100A0800C2003708C1003608C00039083804370466
:100A18003604031D102D112D1A2D0030B900003099
:100A2800B8000030B7000030B600A02D9630FF00A7
:100A38007F08BF002C2D0130FF007F08BF07013061
:100A48000310C30CC20CC10CC00CFF3E031D242DA7
:100A5800FE304305031D312D322D1F2D4E2D013043
:100A6800FF007F08BF070130C007003003180130BE
:100A7800C107003003180130C207003003180130E5
:100A8800C30701300310C30CC20CC10CC00CFF3EDD
:100A9800031D462DFF304305031D532D542D332DC3
:100AA800602D0130BF020130BA000310C00DC10D26
:100AB800C20DC30DBA0B592DC21B632D642D6A2DAF
:100AC80002303F020318692D6A2D552D3F186D2DF0
:100AD8006E2D762DFF30C005FF30C1057F30C20571
:100AE800FF30C3050310BF0C3F08BA00BB01BC01AF
:100AF800BD0118300310BA0DBB0DBC0DBD0DFF3E76
:100B0800031D7E2D3A08C0043B08C1043C08C204FA
:100B18003D08C3043E080319922D932D982DB91F43
:100B2800962D972D982DC3174308B9004208B80091
:100B38004108B7004008B600080083160313D9001F
:100B48000030CF000030CE000030CD000030CC00A7
:100B58005908D400D501D601D701831203135908C7
:100B680083160313D80001300310D80DFF3E031D70
:100B7800B82D0310580DA03E84005408831380003C
:100B8800840A55088000840A56088000840A570899
:100B980080000A3083120313B6000030B7005908EA
:100BA800013EB800003003180130B9000A128A1556
:100BB8008C230A128A11831203133608FF007F0858
:100BC800D90083160313DA015A08D4000130031040
:100BD800D40DFF3E031DEB2D0310540DA03E8400E1
:100BE80083130008CC07840A00080318000FFD2DA2
:100BF800FE2DCD07840A00080318000F042E052EC9
:100C0800CE07840A00080318000F0B2E0C2ECF07FE
:100C18000130FF007F08DA070A305A02031C152E3C
:100C2800162EE82D003083120313B9000030B800E7
:100C38000030B7000A30B600831603134F0883123A
:100C48000313BD00831603134E0883120313BC005D
:100C5800831603134D0883120313BB008316031373
:100C68004C0883120313BA000A128A1598270A122D
:100C78008A11831203133608FF00831603135308DF
:100C880084007F0883138000080083160313EF0095
:100C98006F0883160317980099019A019B011B0896
:100CA80083120313B900831603171A088312031358
:100CB800B80083160317190883120313B7008316A5
:100CC8000317180883120313B60001300A128A1199
:100CD800E5240A128A1183120313390883160313B1
:100CE800DA0083120313380883160313D90083121A
:100CF8000313370883160313D80083120313360827
:100D080083160313D7003E30D600F930D500F530EE
:100D1800D4005A30D3000A128A1151200A128A11BB
:100D280083160313560883160317930083160313B9
:100D38005508831603179200831603135408831665
:100D480003179100831603135308831603179000A3
:100D58000A128A11E7260A128A1183160317100845
:100D6800FF007F0883120313D1005230FF007F0871
:100D780083160313D3008312031351080A128A112E
:100D8800A1250A128A110A3083120313B600003013
:100D9800B7005508013EB800003003180130B9000B
:100DA8000A128A158C230A128A1183120313360831
:100DB800FF007F08D50009305506031DE42EE52EF7
:100DC800E62E54140800031083160317120D130D92
:100DD800FF007F0883160313EE006E08031DF52E2F
:100DE800F62E012F0030831603179300003092006F
:100DF8000030910000309000782F831603171008F8
:100E080094001108950012089600130897001F30E7
:100E18000310970C960C950C940CFF3E031D0C2F99
:100E28001408FF007F0883160313ED0083160317C9
:100E38009217FF309005FF309105FF309205003082
:100E48009305963083160313EE02EE1F2C2F2D2FD9
:100E58004B2F6E08803A973E0318332F342F352FC7
:100E6800F62E0130031083160317930C920C910C85
:100E7800900CFF3E031D362F0130FF007F088316BC
:100E88000313EE07031D492F4A2F352F662F2030F5
:100E98006E02031C502F512F612FF62E013083163E
:100EA800031794000310900D910D920D930D940B60
:100EB800562F013083160313EE026E08031D652FAB
:100EC800662F522F6D0803196A2F6B2F782F831600
:100ED80003179009910992099309900A0319910A35
:100EE8000319920A0319930A080083120313BB011A
:100EF800B71F7F2F802F872FB609B709B60A0319A6
:100F0800B70ABB01BB0AB91F8A2F8B2F942FB809C8
:100F1800B909B80A0319B90A0130FF007F08BB06EE
:100F2800BC01BD013608370403199B2F9C2FD32F12
:100F3800BA01BA0AAA2F01300310B60DB70DFF3E49
:100F4800031DA02F0130FF007F08BA07B71FAD2F80
:100F5800AE2F9F2F01300310BC0DBD0DFF3E031DAA
:100F6800AF2F37083902031DBB2F36083802031C80
:100F7800BE2FBF2FC62F3608B8023708031CB90387
:100F8800B9023C1401300310B70CB60CFF3E031D28
:100F9800C72F0130BA02031DD22FD32FAE2F3B0823
:100FA8000319D72FD82FDD2FBC09BD09BC0A031997
:100FB800BD0A3D08B7003C08B600080083120313B9
:100FC800501CE72FE82FFD2FD01CEB2FEC2FFD2F07
:100FD8004403031DF02FF12FFD2F1F19F42FF52FB8
:100FE800FD2F0A128A1550200A128A118312031340
:040FF8001F150800B9
:1010000008308A000408840A820700340434143447
:1010100000340034003407346434003400340034C5
:0A1020000134C834003400340034F9
:1010620083120313C40108000134013401340A3429
:101072000B168316031301178B10080064008001FE
:10108200840A040603190034040640288312031359
:10109200501C4C284D284F281F15D01408008316C9
:1010A20003131E080A128A1149260A128A15080019
:1010B200000000000000000000000000000000002E
:1010C200000008000A128A110C240A128A150A1258
:1010D2008A15B4210A128A1508000A128A11E22717
:1010E2000A128A150A128A15A7220A128A150800FC
:1010F200DF30FF007F08831203138505EF30FF0006
:101102007F0885053F3088000800EF30FF007F0828
:10111200831203138605DF30FF007F088705FB304B
:10112200FF007F0887050800003083120313B60012
:10113200B7000330B8000030B900D0300A128A1567
:101142006E210A128A1508000A128A156C260A12E2
:101152008A150A128A155C240A128A150A128A153D
:10116200B4250A128A15080083160313811281110D
:101172000114811401158B160B178B17643083121F
:10118200031381000B110800F200F101721CCA283E
:10119200CB28CF287008FF007F08F1070310F00D5D
:1011A2000310F20C7208031DD728D828C72871082B
:1011B200080083120313871507160A128A1559208D
:1011C2000A128A15EF30FF007F0883120313870586
:1011D2000A128A1559200A128A150800831203136B
:1011E2008715EF30FF007F0887050A128A155920FC
:1011F2000A128A158312031307160A128A15592036
:101202000A128A15080002308312031344060319D6
:101212000B290C2911294403031D10291129132913
:10122200C4011A294408031D172918291A29C401BF
:10123200C40A080083120313B800B701381C22291C
:10124200232927293608FF007F08B7070310B60DA8
:101252000310B80C3808031D2F2930291F2937081D
:101262000800831603139F17831203131F179F137C
:10127200831603131F17831203139F111F169F1246
:10128200831603131F109F141F119F118312031340
:101292001F141F1150140800DF30FF007F0883164F
:1012A20003138705FB30FF007F088705EF30FF003F
:1012B2007F088605DF30FF007F088505EF30FF00DD
:1012C2007F0885058614061506140515F730FF00FC
:1012D2007F08870507168801080083120313BB00E5
:1012E2003B08FF007F08BA0081293608FF003A0850
:1012F20084007F08831380000130FF007F08BA0753
:101302000130B8020030031CB903B902380A031DC8
:101312008E29390A031D8E298F29762908008B1CF4
:10132200932994299B298B100A128A1504210A12E7
:101332008A15A7290B1D9E299F29A7290B11643005
:1013420081000A128A157B220A128A15831203135C
:101352003508FF0034088A0033088400320E830007
:10136200FE0E7E0E0900831203130608B600023039
:101372000310B60CFF3E031DB929361CC129C22930
:10138200CE290608B60001300310B60CFF3E031D3D
:10139200C5293618CD29CE29D7294403031DD229C0
:1013A200D329D7290230FF007F08C4000800831226
:1013B2000313BA01BB01361CDF29E029E6293808EC
:1013C200BA070318BB0A3908BB0701300310B80D6E
:1013D200B90DFF3E031DE72901300310B70CB60C0F
:1013E200FF3E031DEE2936083704031DF929FA29A9
:1013F200DC293B08B7003A08B60008008312031341
:10140200BE00BA01BB013608B800B9013808BC00F9
:101412003908BD003E1C0E2A0F2A152A3C08BA07BD
:101422000318BB0A3D08BB0701300310BC0DBD0DFC
:10143200FF3E031D162A0310BE0C3E08031D222A7E
:10144200232A0B2A3B08B7003A08B6000800831289
:1014520003134508C000C1014008B6004108B700A7
:101462003F08B9003E08B8000A128A15D8210A12AC
:101472008A15831203133D083706031D422A3C08CE
:101482003606031D452A462A4C2AD414C401C40A2E
:10149200C501C50A502A0130FF007F08C5070800B0
:1014A200831203135808C000C1014008B600410866
:1014B200B7003F08B9003E08B8000A128A15D821C1
:1014C2000A128A15831203133D083706031D6B2A7D
:1014D2003C083606031D6E2A6F2A762A1030FF005A
:1014E2007F088606D801D80A7A2A0130FF007F08D1
:1014F200D8070800013083160313C8070030031809
:101502000130C907003003180130CA070030031840
:101512000130CB074B0883120313B0008316031369
:101522004A0883120313AF00831603134908831278
:101532000313AE0083160313480883120313AD008E
:101542000A128A15CA260A128A1508000230831264
:1015520003134E06031DAE2AAF2AC22A4403031DFB
:10156200B32AB42AC22AE830BC000330BD0064307A
:10157200BE000030BF000A128A1551220A128A15D3
:10158200DD2A4E03031DC62AC72ACE2A4403031DA1
:10159200CB2ACC2ACE2A0616DD2A44080319D22ADF
:1015A200D32AD92A02304406031DD82AD92ADD2A91
:1015B200EF30FF007F0886050800831603179C01A1
:1015C2001C08D03E840083130003031DE92AEA2A83
:1015D2000B2B0530FF007F0883120313B60083161E
:1015E20003171C080A128A151B210A128A15013ECA
:1015F20084000A128A1500200A128A150A128A1118
:1016020042200A128A15831603171C08D03E840052
:10161200831380010130FF007F089C0703301C0206
:10162200031C142B152BE12ADE2A08000A128A1544
:101632004D210A128A150A128A1532210A128A15B6
:101642000A128A1539200A128A150A128A15792075
:101652000A128A150A128A1586200A128A150A1295
:101662008A1531200A128A150A128A150F240A12C3
:101672008A150A128A1547200A128A150A128A1531
:1016820095200A128A150A128A15B5200A128A159D
:101692000A128A15DE220A128A150A128A111228E1
:1016A200831203135608C000C1014008B600410866
:1016B200B7003F08B9003E08B8000A128A15D821BF
:1016C2000A128A15831203133D083706031D6B2B7A
:1016D2003C083606031D6E2B6F2B872B4F03031D11
:1016E200732B742B7E2BCF01DF30FF007F08850523
:1016F200EF30FF007F088505852B4F08031D822BE5
:10170200832B852BCF01CF0AD601D60A0130FF00E9
:101712007F08D6070800831203133608370403191B
:10172200932B942BC32BBA01BA0AA22B01300310BC
:10173200B60DB70DFF3E031D982B0130FF007F0849
:10174200BA07B71FA52BA62B972B37083902031D03
:10175200AC2B36083802031CAF2BB02BB62B360845
:10176200B8023708031CB903B90201300310B70CE1
:10177200B60CFF3E031DB72B0130BA02031DC22B6C
:10178200C32BA62B3908B7003808B600080083120D
:101792000313B800F730FF007F088705B901380846
:1017A200B6003908073C013ED82B0310B60CFF3EA9
:1017B200031DD62B36080139B700B70E07083706C6
:1017C200EF393706870087150A128A1559200A123F
:1017D2008A15F730FF007F08831203138705013053
:1017E200FF007F08B90708303902031CF92BFA2BD6
:1017F200D02B07160A128A1559200A128A1583124B
:10180200031387150A128A1559200A128A15F7300E
:10181200FF007F088312031387050800003083123C
:101822000313BA00BB000A128A1500250A128A1590
:10183200003A031D1D2C1E2C0F2C0A308312031399
:10184200BA000030BB000A128A1500250A128A1556
:10185200FF007F0883120313CD004C304D020318A2
:10186200332C342C572C23304D02031C392C3A2CA8
:10187200572C0530B6000030B7004D08BF00C0013C
:101882003F08B8004008B9000A128A1559250A1201
:101892008A158312031336083704031D512C522C68
:1018A200572C4D08FF007F08D3005B2C3C30FF0013
:1018B2007F08D300080083120313541C612C622C8E
:1018C200A12C4403031D662C672CA12C5308FB3E5C
:1018D200B600FF3003180030B7005208B800B90153
:1018E20037083902031D772C3608380203187A2C80
:1018F2007B2C852CFB30FF007F0887058716023082
:10190200FF007F08CE00A92C5208B600B701530889
:10191200053EB800003003180130B900370839021B
:10192200031D952C360838020318982C992CA92CE3
:10193200DF30FF007F0887050715CE01CE0AA92CEC
:10194200FB30FF007F088705DF30FF007F08870537
:101952000800831203132808270426042504031908
:10196200B32CB42CF72CFD01FD0AC42C0130FC0071
:101972000310A50DA60DA70DA80DFC0BB92C013067
:10198200FF007F08FD07A81FC72CC82CB72C28080A
:101992002C02031DD62C27082B02031DD62C260849
:1019A2002A02031DD62C25082902031CD92CDA2C65
:1019B200E82C2508A9022608031C260FAA022708DC
:1019C200031C270FAB022808031C280FAC020130AE
:1019D2000310A80CA70CA60CA50CFF3E031DE92CB6
:1019E2000130FD02031DF62CF72CC82C2C08A80090
:1019F2002B08A7002A08A6002908A50008008312C0
:101A020003133B080139FF007F08BE003A08FF00BC
:101A12007F08BD000A128A15DA200A128A1583127B
:101A220003133E080319162D172D1E2DA2300A127C
:101A32008A15C8230A128A15242DA0300A128A1583
:101A4200C8230A128A15831203133D080A128A1543
:101A5200C8230A128A150A128A15DA200A128A156E
:101A6200831203133E080319372D382D3F2DA3305F
:101A72000A128A15C8230A128A15452DA1300A12A4
:101A82008A15C8230A128A1501300A128A150F26EE
:101A92000A128A15FF007F0883120313BC000A1280
:101AA2008A15EF200A128A15831203133C080800D4
:101AB20083120313BB01B91F5F2D602D672DB80977
:101AC200B909B80A0319B90ABB01BB0AB71F6A2DC3
:101AD2006B2D702DB609B709B60A0319B70A360875
:101AE20037040319752D762DA52DBA01BA0A842D56
:101AF20001300310B60DB70DFF3E031D7A2D0130E4
:101B0200FF007F08BA07B71F872D882D792D370868
:101B12003902031D8E2D36083802031C912D922D99
:101B2200982D3608B8023708031CB903B9020130F0
:101B32000310B70CB60CFF3E031D992D0130BA02FB
:101B4200031DA42DA52D882D3B080319A92DAA2D0F
:101B5200AF2DB809B909B80A0319B90A3908B7008B
:101B62003808B600080083120313D41CB92DBA2D0D
:101B72000E2E5308FF007F08CD00CC010A30FF0073
:101B82007F08CB00CA010A128A15DA200A128A15C6
:101B9200831203134C080319CF2DD02DD72DA23059
:101BA2000A128A15C8230A128A15DD2DA0300A12DC
:101BB2008A15C8230A128A15831203134B080A12C4
:101BC2008A15C8230A128A15831203134D080A12B2
:101BD2008A15C8230A128A150A128A15EF200A12D8
:101BE2008A150130FF007F0883120313CA070A30E7
:101BF200BA000030BB000A128A1500250A128A15A3
:101C0200831203134D060319072E082E0E2E0A30D7
:101C12004A02031C0D2E0E2EC42D0800831203133C
:101C2200B700B801F730FF007F088705831603135A
:101C32000716831203130716B90187150A128A15AC
:101C420059200A128A1583120313070E0139B600AE
:101C52003908073C013E2F2E0310B60DFF3E031D2F
:101C62002D2E3608FF007F08B804F730FF007F08EA
:101C720087050130FF007F08B90708303902031CCD
:101C8200432E442E1E2EEF30FF007F0883160313CF
:101C920087058312031337080319502E512E562E2F
:101CA200EF30FF007F088705572E07160A128A15A4
:101CB20059200A128A158312031387150A128A15EC
:101CC20059200A128A15F730FF007F088312031386
:101CD2008705380808000230831203134406031DE7
:101CE200732E742EC92E8830BC001330BD00C8304C
:101CF200BE000030BF000A128A1528220A128A1575
:101D0200831203130608C20002300310C20CFF3E06
:101D1200031D862E42188E2E8F2EA82E0608C20074
:101D220001300310C20CFF3E031D922E421C9A2E5C
:101D32009B2EA82E4B3053060319A02EA12EA82E9F
:101D42000530FF007F08D307C501C50AC92E060862
:101D5200C20002300310C20CFF3E031DAB2E421C18
:101D6200B32EB42EC92E0608C20001300310C20CD5
:101D7200FF3E031DB72E4218BF2EC02EC92E2330A0
:101D820053060319C52EC62EC92E0530D302A52E21
:101D9200080083120313B1010030F6000030F50091
:101DA2000030F4001430F3000530FF007F08F0002B
:101DB20031080A128A15C5200A128A15023E8400C9
:101DC2000A128A1500200A128A15F7000A128A15C9
:101DD20000200A128A15F8000A128A1500200A1237
:101DE2008A15F9000A128A1500200A128A15FA00C9
:101DF2000A128A1530270A128A15760883120313EB
:101E0200A8007508A7007408A6007308A50030088A
:101E1200AC002F08AB002E08AA002D08A9000A1258
:101E22008A15AA240A128A15831203132808270482
:101E320026042504031D1E2F1F2F252F3108D03EF7
:101E4200840083138001800A0130FF007F08B107FC
:101E520003303102031C2E2F2F2FCD2E080000300D
:101E620083120313A3000030A2000030A10000304F
:101E7200A00076087504740473040319412F422FDD
:101E82008F2FA401A40A522F0130FB000310F30D7F
:101E9200F40DF50DF60DFB0B472F0130FF007F0807
:101EA200A407F61F552F562F452F0130FB000310B4
:101EB200A00DA10DA20DA30DFB0B582F76087A02DF
:101EC200031D6D2F75087902031D6D2F74087802AA
:101ED200031D6D2F73087702031C702F712F802F43
:101EE2007308F7027408031C740FF8027508031CC8
:101EF200750FF9027608031C760FFA0220140130DE
:101F02000310F60CF50CF40CF30CFF3E031D812FAD
:101F12000130A402031D8E2F8F2F562F2308F600A7
:101F22002208F5002108F4002008F3000800003020
:101F320083120313C2000030C1000030C000003021
:101F4200BF0039083804370436040319A92FAA2F11
:101F5200F72FC301C30ABA2F0130BE000310B60D1A
:101F6200B70DB80DB90DBE0BAF2F0130FF007F08C2
:101F7200C307B91FBD2FBE2FAD2F0130BE00031006
:101F8200BF0DC00DC10DC20DBE0BC02F39083D02E1
:101F9200031DD52F38083C02031DD52F37083B02FD
:101FA200031DD52F36083A02031CD82FD92FE82F4C
:101FB2003608BA023708031C370FBB023808031C65
:101FC200380FBC023908031C390FBD023F1401301F
:101FD2000310B90CB80CB70CB60CFF3E031DE92F69
:101FE2000130C302031DF62FF72FBE2F4208B9009E
:0E1FF2004108B8004008B7003F08B6000800DC
:02400E003A3F37
:00000001FF
