:020000040000FA
:060000000A128A11122809
:10000800FE00030E83120313B2000408B3000A08AB
:10001800B4007F08B5000A128A15B32A0A128A1199
:1000280015280A168A11B3270A128A11D6000A1649
:100038008A11B4270A128A11D7000A168A11B5271D
:100048000A128A11D8000A168A11B6270A128A11CA
:10005800D900831790308400B8300A168A11C52752
:100068000A128A118313CB308400DC300A168A11F5
:10007800C5270A128A114330840056300A168A119D
:10008800C5270A128A1183010A128A15012CFF005A
:1000980000308A007F0882075028512852280A1603
:1000A8008A11F52F0A128A151A280A128A15252884
:1000B800FF0000308A007F08820761280A128A152B
:1000C800AB280A128A15572A831603132908803980
:1000D800FF007F08B3002908AE002E07FF007F0845
:1000E800B900A81F782879287A28391439080319FB
:1000F8007E287F288E28390A031D832884288C2887
:100108000030A9000030A8000030A7000030A60089
:10011800A81796280030A9000030A8000030A700D2
:100128000030A6002D088039FF007F08B3062D088F
:10013800AE002E07FF007F08B400AC1FA428A52836
:10014800A628341434080319AA28AB28BA28340A74
:10015800031DAF28B028B8280030AD000030AC002F
:100168000030AB000030AA00AC17C2280030AD0048
:100178000030AC000030AB000030AA00340803198E
:10018800C628C728CC283908031DCB28CC28D52851
:100198000030A9000030A8000030A7000030A600F9
:1001A800222C2608FF007F0883120313B60083164B
:1001B80003132C080A128A15D9210A128A118312EC
:1001C8000313370883160313BF008312031336087B
:1001D80083160313BE003E08AE00AF01B001B101A3
:1001E8003108B8003008B7002F08B6002E08B5004F
:1001F8003F08AE00AF01B001B1013108BD003008C1
:10020800BC002F08BB002E08BA002708FF007F0893
:1002180083120313B600831603132B080A128A15D8
:10022800D9210A128A11831203133708831603137C
:10023800BF0083120313360883160313BE003E085B
:10024800AE00AF01B001B1012E08B5072F080311A8
:100258000318013E03193129B607300803110318A2
:10026800013E03193829B707310803110318013E65
:1002780003193F29B8073F08AE00AF01B001B1012B
:100288002E08BA072F0803110318013E03194D2938
:10029800BB07300803110318013E03195429BC0792
:1002A800310803110318013E03195B29BD0728080B
:1002B800FF007F0883120313B600831603132A086E
:1002C8000A128A15D9210A128A11831203133708D0
:1002D80083160313BF008312031336088316031310
:1002E800BE003E08AE00AF01B001B1012E08B5074F
:1002F8002F0803110318013E03198329B607300894
:1003080003110318013E03198A29B707310803119D
:100318000318013E03199129B8073F08AE00AF0141
:10032800B001B1012E08BA072F0803110318013EC6
:1003380003199F29BB07300803110318013E03194D
:10034800A629BC07310803110318013E0319AD297A
:10035800BD070830AE000310B50DB60DB70DB80DCA
:10036800AE0BAF292708FF007F0883120313B600DE
:10037800831603132A080A128A15D9210A128A1128
:1003880083120313370883160313BF008312031362
:10039800360883160313BE003E08AE003F08AF00C0
:1003A800B001B1012E08B5072F0803110318013E4B
:1003B8000319DF29B607300803110318013E031992
:1003C800E629B707310803110318013E0319ED297F
:1003D800B8072608FF007F0883120313B6008316A8
:1003E80003132B080A128A15D9210A128A118312BB
:1003F8000313370883160313BF0083120313360849
:1004080083160313BE003E08AE003F08AF00B001DC
:10041800B1012E08B5072F0803110318013E03196F
:10042800162AB607300803110318013E03191D2ABE
:10043800B707310803110318013E0319242AB80726
:100448000830AE000310B50DB60DB70DB80DAE0BE4
:10045800262A2608FF007F0883120313B600831696
:1004680003132A080A128A15D9210A128A1183123B
:100478000313370883160313BF00831203133608C8
:1004880083160313BE003E08AE003F08AF00B0015C
:10049800B1012E08B5072F0803110318013E0319EF
:1004A800562AB607300803110318013E03195D2ABE
:1004B800B707310803110318013E0319642AB80766
:1004C8002708FF007F0883120313B600831603135F
:1004D8002C080A128A15D9210A128A1183120313C9
:1004E800370883160313BF008312031336088316D5
:1004F8000313BE003E08AE003F08AF00B001B101D3
:100508002E08BA072F0803110318013E03198D2A74
:10051800BB07300803110318013E0319942ABC07CE
:10052800310803110318013E03199B2ABD07280847
:10053800FF007F0883120313B600831603132B08EA
:100548000A128A15D9210A128A118312031337084D
:1005580083160313BF00831203133608831603138D
:10056800BE003E08AE003F08AF00B001B1012E0842
:10057800BA072F0803110318013E0319C42ABB0741
:10058800300803110318013E0319CB2ABC073108B0
:1005980003110318013E0319D22ABD072808FF00DA
:1005A8007F0883120313B600831603132C080A125C
:1005B8008A15D9210A128A11831203133708831660
:1005C8000313BF0083120313360883160313BE00F8
:1005D8003E08AE003F08AF00B001B101083003107B
:1005E800AE0DAF0DB00DB10DFF3E031DF32A2E0861
:1005F800BA072F0803110318013E0319042BBB0780
:10060800300803110318013E03190B2BBC073108EE
:1006180003110318013E0319122BBD073508AE005C
:100628003608AF003708B0003808B100183003109A
:10063800B10CB00CAF0CAE0CFF3E031D1B2B2E08EB
:10064800BA072F0803110318013E03192C2BBB0707
:10065800300803110318013E0319332BBC07310876
:1006680003110318013E03193A2BBD070830AE00E9
:100678000310B50DB60DB70DB80DAE0B3C2B3908F0
:100688003407AE00AF01AF0D2E08823EBE002F0822
:100698000318013EFF3EBF006E2B0130AE00031071
:1006A800BA0DBB0DBC0DBD0DAE0B532BB81F5D2B8A
:1006B8005E2B5F2B3A140130AE000310B50DB60D5A
:1006C800B70DB80DAE0B612BFF30BE070318BF0A7C
:1006D800FF30BF07BC1F712B722B512BB401B81F01
:1006E800762B772B932BFF303505AE00FF30360580
:1006F800AF00FF303705B0007F303805B100310852
:1007080030042F042E0403198A2B8B2B8E2BB40153
:10071800B40A932B3A1C912B922B932B8B2B3408D6
:100728000319972B982BC92B0130BA0700300318EF
:100738000130BB07003003180130BC070030031834
:100748000130BD073D1CA92BAA2BC92B3A08AE00C6
:100758003B08AF003C08B0003D08B1000130B200D2
:10076800310DB10CB00CAF0CAE0CB20BB42B310880
:10077800BD003008BC002F08BB002E08BA000130AD
:10078800BE070318BF0A0030BF073F08803AFF00C2
:1007980080307F02031DD22BFF303E02031CD52B75
:1007A800D62BE12B7F3083160313BD008030BC00AD
:1007B8000030BB000030BA00162C831603133F0824
:1007C800803AFF0080307F02031DEC2B01303E028F
:1007D8000318EF2BF02BFC2B003083160313BD00FE
:1007E8000030BC000030BB000030BA00B301162C4A
:1007F800831603133E08FF007F08B900FF30BA05CF
:10080800FF30BB057F30BC050030BD05391C0D2C01
:100818000E2C0F2CBC173908AE0003102E0CFF004D
:100828007F08BD003308FF007F08BD043D08A9000C
:100838003C08A8003B08A7003A08A6000800831651
:100848000313A000200803192A2C2B2C4F2C8312E9
:100858000313B91F302C312C4F2C36098316031380
:10086800A20083120313370983160313A30083120C
:100878000313380983160313A400831203133909D9
:1008880083160313A500A20A0319A30A0319A40ACD
:100898000319A50A662C8312390883160313A500C9
:1008A80083120313380883160313A4008312031357
:1008B800370883160313A30083120313360883161D
:1008C8000313A200831203133908380437043604CB
:1008D800031D6F2C702C792C0030B9000030B80043
:1008E8000030B7000030B6002D2D9630FF007F088D
:1008F80083160313A1008D2C0130FF007F08A10788
:1009080001300310A50CA40CA30CA20CFF3E031D80
:10091800852CFE302505031D922C932C802CAF2CA2
:100928000130FF007F08A1070130A207003003183B
:100938000130A307003003180130A4070030031862
:100948000130A50701300310A50CA40CA30CA20CC0
:10095800FF3E031DA72CFF302505031DB42CB52C25
:10096800942CC72C0130A102013083120313BA0062
:10097800031083160313A20DA30DA40DA50D831256
:100988000313BA0BBC2C83160313A41BCC2CCD2C3D
:10099800D32C023021020318D22CD32CB62C2118C8
:1009A800D62CD72CDF2CFF30A205FF30A3057F30D3
:1009B800A405FF30A5050310A10C21088312031319
:1009C800BA00BB01BC01BD0118300310BA0DBB0D44
:1009D800BC0DBD0DFF3E031DE92C3A088316031319
:1009E800A204831203133B0883160313A304831280
:1009F80003133C0883160313A404831203133D084E
:100A080083160313A504200803190B2D0C2D152D8F
:100A180083120313B91F112D122D152D83160313DD
:100A2800A51783160313250883120313B900831629
:100A38000313240883120313B8008316031323082F
:100A480083120313B70083160313220883120313B8
:100A5800B600080083120313C00000308316031386
:100A6800D2000030D1000030D0000030CF00831217
:100A78000313400883160313A500A601A701A801C4
:100A880083120313580883160313A90001300310B7
:100A9800A90DFF3E031D4B2D0310290D903E840028
:100AA800250883178000840A26088000840A2708FE
:100AB8008000840A280880000A3083120313B600D5
:100AC8000030B7005808013EB80000300318013064
:100AD800B9000A128A15C5230A128A118312031350
:100AE8003608FF007F08D800C101410883160313A8
:100AF800A50001300310A50DFF3E031D7E2D031038
:100B0800250D903E840083170008CF07840A00084B
:100B18000318000F902D912DD007840A00080318A0
:100B2800000F972D982DD107840A00080318000F8D
:100B38009E2D9F2DD2070130FF007F0883120313DB
:100B4800C1070A304102031CAA2DAB2D792D0030B4
:100B5800B9000030B8000030B7000A30B60083167C
:100B68000313520883120313BD008316031351089D
:100B780083120313BC008316031350088312031354
:100B8800BB00831603134F0883120313BA000A121B
:100B98008A1576270A128A11831203133608FF0072
:100BA8003F0884007F088313800008000310831225
:100BB8000313410D420DFF007F0883160313C50080
:100BC8004508031DE82DE92DF42D00308312031389
:100BD800C2000030C1000030C0000030BF00772ED6
:100BE800831203133F0883160313C00083120313F1
:100BF800400883160313C1008312031341088316A8
:100C08000313C20083120313420883160313C3009D
:100C18001F300310C30CC20CC10CC00CFF3E031DD7
:100C28000D2E4008FF007F08C40083120313C1176C
:100C3800FF30BF05FF30C005FF30C1050030C205D9
:100C4800963083160313C502C51F2B2E2C2E4A2E51
:100C58004508803A973E0318322E332E342EE92D5C
:100C68000130031083120313C20CC10CC00CBF0C5B
:100C7800FF3E031D352E0130FF007F088316031346
:100C8800C507031D482E492E342E652E20304502F7
:100C9800031C4F2E502E602EE92D0130C00003108A
:100CA80083120313BF0DC00DC10DC20D83160313AC
:100CB800C00B532E0130C5024508031D642E652E56
:100CC800512E44080319692E6A2E772E83120313B6
:100CD800BF09C009C109C209BF0A0319C00A03191B
:100CE800C10A0319C20A08008312031350088316A5
:100CF8000313C600C701C801C901490883120313B9
:100D0800B90083160313480883120313B800831627
:100D18000313470883120313B70083160313460807
:100D280083120313B60001300A128A1123240A120F
:100D38008A1183120313390883160313AD00831233
:100D48000313380883160313AC0083120313370800
:100D580083160313AB008312031336088316031399
:100D6800AA003E30A900F930A800F530A7005A3093
:100D7800A6000A128A1168200A128A118316031320
:100D8800290883120313C200831603132808831249
:100D98000313C10083160313270883120313C0002B
:100DA80083160313260883120313BF000A128A113D
:100DB800DA250A128A11831203133F08FF007F08FD
:100DC800CE004F30FF007F08BF004E080A128A117C
:100DD8002E250A128A110A3083120313B600003036
:100DE800B7005308013EB800003003180130B900BD
:100DF8000A128A15C5230A128A11831203133608A8
:100E0800FF007F08D30009305306031D0C2F0D2F58
:100E18000E2F52140800831203130608B60003109D
:100E2800360C0139FF004908D63E84007F08831339
:100E380080000608B60002300310B60CFF3E031D02
:100E4800202F36080139FF004908D93E84007F0861
:100E580080004908013E0339FF007F08C900831656
:100E680003135908031D392F3A2F692F5A08031DF8
:100E78003E2F3F2F692F5B08031D432F442F692FF7
:100E88000230831203135406031D4B2F4C2F582F87
:100E98004A144A18502F542F831203134A14572FF9
:100EA800831203134A10612F5403031D5C2F5D2F17
:100EB800612F0230FF007F08D40083160313D90185
:100EC800D90ADA01DA0ADB01DB0A5608031D6D2F9D
:100ED8006E2F9D2F5708031D722F732F9D2F5808B3
:100EE800031D772F782F9D2F02308312031354068A
:100EF800031D7F2F802F8C2FCA14CA18842F882F88
:100F080083120313CA148B2F83120313CA10952F4D
:100F18005403031D902F912F952F0230FF007F0857
:100F2800D40083160313D601D60AD701D70AD801ED
:100F3800D80A08008312031354080319A42FA52FF5
:100F4800F92F4C03031DA92FAA2FFD2F0A30B60035
:100F58000030B7004508BE00BF013E08B8003F0892
:100F6800B9000A128A157E250A128A118312031300
:100F78003608FF007F08C4000A30B6000030B7000A
:100F88004508BE00BF013E08B8003F08B9000A1274
:100F98008A150D270A128A11831203133608FF00D7
:100FA8007F08C3000130FF007F08D6065608031DDE
:100FB800DE2FDF2FE92F4408FF007F08C600EF303F
:100FC800FF007F0885058516FD2F5603031DED2FAD
:100FD800EE2FF82F4308FF007F08C600DF30FF0020
:100FE8007F0885050516FD2FFD2F0A30FF007F08B5
:040FF800C600080027
:1010000008308A000408840A820700340634143445
:1010100000340034003409346434003400340034C3
:0E1020000334F4340134003400340134043459
:101034000A128A1525250A128A150A128A110F27FF
:101044000A128A1508000A128A1583200A128A15C0
:101054000A128A153F260A128A15080083120313FE
:10106400CB01DF30FF007F088705FB30FF007F08DE
:1010740087050800133083160313930083120313A8
:10108400141094101411941594160800DF30FF0006
:101094007F08831203138505EF30FF007F08850561
:1010A40088010800831603139115141C5A285B2821
:1010B4005728831203131308FF007F08B60036086D
:1010C4000800003083120313B600B7000330B800E1
:1010D4000030B900D3300A128A1542210A128A1547
:1010E4000800831603138112811101148114011560
:1010F4008B160B178B1764308312031381000B11AB
:101104000800831203135403031D89288A28902896
:1011140050300A128A15D9200A128A150A128A1125
:1011240078260A128A150800F200F101721C9B2825
:101134009C28A0287008FF007F08F1070310F00D19
:101144000310F20C7208031DA828A9289828710816
:10115400080002308312031354060319B228B3287B
:10116400B8285403031DB728B828BA28D401C128C5
:101174005408031DBE28BF28C128D401D40A08007E
:1011840083120313B800B701381CC928CA28CE2813
:101194003608FF007F08B7070310B60D0310B80C1C
:1011A4003808031DD628D728C62837080800831214
:1011B4000313B600CD1CDF28E028F0281F19E3280C
:1011C400E428F028831603131E08FF008312031378
:1011D400360884007F08831380001F1508008312DB
:1011E4000313D21CF628F72808295108FF007F08AA
:1011F400C8000A30FF007F08B70048080A128A15A1
:10120400E5220A128A1583120313D21008008316EA
:1012140003139F17831203131F179F1383160313BC
:101224001F17831203139F111F169F128316031394
:101234001F109F141F119F11831203131F141F11DA
:101244004D140800DF30FF007F0883160313870561
:10125400FB30FF007F088705EF30FF007F0886051D
:10126400DF30FF007F088505EF30FF007F0885052C
:101274008614061506140515871507168801080037
:1012840083120313BB003B08FF007F08BA005529F3
:101294003608FF003A0884007F0883138000013079
:1012A400FF007F08BA070130B8020030031CB903FD
:1012B400B902380A031D6229390A031D6229632908
:1012C4004A290800013083120313B6000030B70026
:1012D4000330B8000030B900D9300A128A1542210F
:1012E4000A128A15013083120313B6000030B700C6
:1012F4000330B8000030B900D6300A128A154221F2
:101304000A128A150B168316031301178B10080093
:1013140083120313BA01BB01361C9129922998291F
:101324003808BA070318BB0A3908BB070130031091
:10133400B80DB90DFF3E031D992901300310B70CF8
:10134400B60CFF3E031DA02936083704031DAB2944
:10135400AC298E293B08B7003A08B6000800C32917
:10136400E830BC000330BD000A128A1502220A12BA
:101374008A15D8290616D829EF30FF007F0886057C
:10138400D829831203134B08C000C1014108003A55
:101394000319CD29D8294008003A0319BE29013A76
:1013A4000319BC29033A0319B229D8290800831266
:1013B4000313BE00BA01BB013608B800B9013808EE
:1013C400BC003908BD003E1CE829E929EF293C0886
:1013D400BA070318BB0A3D08BB0701300310BC0D54
:1013E400BD0DFF3E031DF0290310BE0C3E08031D76
:1013F400FC29FD29E5293B08B7003A08B600080096
:10140400831203135908BE00BF013E08B6003F080B
:10141400B7006430B8000030B9000A128A158A2176
:101424000A128A15831203133D083706031D1C2A6A
:101434003C083606031D1F2A202A272A1030FF00E5
:101444007F088606D901D90A2B2A0130FF007F08BC
:10145400D9070800831203135508BE00BF013E08D4
:10146400B6003F08B700F430B8000130B9000A12E2
:101474008A158A210A128A15831203133D08370636
:10148400031D462A3C083606031D492A4A2A522AC5
:10149400D214D401D40AD501D50A4A10CA10562A46
:1014A4000130FF007F08D5070800013083160313BD
:1014B400CB07003003180130CC070030031801308B
:1014C400CD07003003180130CE074E0883120313F2
:1014D400B000831603134D0883120313AF00831661
:1014E40003134C0883120313AE00831603134B0833
:1014F40083120313AD000A128A15D9250A128A151C
:101504000800831203135403031D892A8A2A912A8B
:101514004E08FF007F08C500CC01CC0AB22A023075
:101524005406031D962A972AA52A5108FF007F080E
:10153400C500E830BC000330BD000A128A158A23B6
:101544000A128A15B22A5408031DA92AAA2AB22A01
:10155400DF30FF007F088505EF30FF007F08850539
:1015640008008B1CB62AB72AC52A8B1010308400B9
:101574000A128A1500200A128A150A128A115C209E
:101584000A128A15D82A0B1DC82AC92AD82A0B116F
:1015940064308100113084000A128A1500200A1276
:1015A4008A150A128A115C200A128A1583120313FF
:1015B4003508FF0034088A0033088400320E8300A3
:1015C400FE0E7E0E090083120313B8000A168A1158
:1015D400DF270A128A15A0300A168A11B7270A12C1
:1015E4008A150A168A11BD270A128A158312031353
:1015F40037080A168A11B7270A128A150A168A1199
:10160400BD270A128A158312031338080A168A1191
:10161400B7270A128A150A168A11BD270A128A15D3
:101624000A168A11EA270A128A1508000A300A12D1
:101634008A1587240A128A15FF007F088312031370
:10164400C8004C3048020318282B292B4C2B23307C
:101654004802031C2E2B2F2B4C2B0530B6000030D8
:10166400B7004808BC00BD013C08B8003D08B900FB
:101674000A128A157E250A128A1583120313360864
:101684003704031D462B472B4C2B4808FF007F08CB
:10169400D100502B3C30FF007F08D1000800831696
:1016A4000313CA014A08D33E840083130003031DB5
:1016B4005C2B5D2B7E2B0530FF007F088312031308
:1016C400B600831603134A080A128A15C2200A12A6
:1016D4008A15013E84000A128A1500200A128A150E
:1016E4000A128A114B200A128A15831603134A0818
:1016F400D33E8400831380010130FF007F08CA07B2
:1017040003304A02031C872B882B542B512B0800CF
:10171400831203135708BE00BF013E08B6003F08FA
:10172400B7001430B8000030B9000A128A158A21B3
:101734000A128A15831203133D083706031DA42BCE
:101744003C083606031DA72BA82BC02B4C03031DF6
:10175400AC2BAD2BB72BCC01DF30FF007F08850508
:10176400EF30FF007F088505BE2B4C08031DBB2B03
:10177400BC2BBE2BCC01CC0AD701D70A0130FF0009
:101784007F08D707080083120313360837040319A8
:10179400CC2BCD2BFC2BBA01BA0ADB2B0130031066
:1017A400B60DB70DFF3E031DD12B0130FF007F089E
:1017B400BA07B71FDE2BDF2BD02B37083902031DE6
:1017C400E52B36083802031CE82BE92BEF2B3608EF
:1017D400B8023708031CB903B90201300310B70C6F
:1017E400B60CFF3E031DF02B0130BA02031DFB2B88
:1017F400FC2BDF2B3908B7003808B60008000A12A2
:101804008A1524210A128A150A128A153C200A1202
:101814008A150A128A1509210A128A150A128A15CA
:1018240064210A128A150A128A1548200A128A1596
:101834000A128A1530200A128A150A168A11AF274D
:101844000A128A150A128A1518230A128A150A1608
:101854008A11CD270A128A150A128A1563200A12E0
:101864008A150A128A1573200A128A150A128A1511
:1018740051230A128A150A128A111228023083127D
:1018840003135406031D472C482C842C8830BC00B9
:101894001330BD000A128A152C220A128A158312EB
:1018A40003134A1C562C572C662CCA185A2C5B2C32
:1018B400662C4B3051060319602C612C662C0530C4
:1018C400FF007F08D107762CCA1C692C6A2C762C61
:1018D4004A186D2C6E2C762C233051060319732C68
:1018E400742C762C0530D102CA18792C7A2C7E2CD3
:1018F4004A1C7D2C7E2C842CD501D50ACC01CC0A23
:10190400D701D70A4A10CA10080083120313B7007C
:101914000A168A11DF270A128A15A0300A168A11BC
:10192400B7270A128A150A168A11BD270A128A15C0
:101934008312031337080A168A11B7270A128A1565
:101944000A168A11BD270A128A150A168A11DF2778
:101954000A128A15A1300A168A11B7270A128A15A3
:101964000A168A11BD270A128A150A128A155420EA
:101974000A128A15FF007F0883120313C7000A1690
:101984008A11D6270A128A150A168A11EA270A1218
:101994008A158312031347080800831203132808C7
:1019A4002704260425040319D82CD92C1C2DFD0149
:1019B400FD0AE92C0130FC000310A50DA60DA70DAE
:1019C400A80DFC0BDE2C0130FF007F08FD07A81FCB
:1019D400EC2CED2CDC2C28082C02031DFB2C2708F6
:1019E4002B02031DFB2C26082A02031DFB2C2508B1
:1019F4002902031CFE2CFF2C0D2D2508A902260804
:101A0400031C260FAA022708031C270FAB02280871
:101A1400031C280FAC0201300310A80CA70CA60C61
:101A2400A50CFF3E031D0E2D0130FD02031D1B2DD1
:101A34001C2DED2C2C08A8002B08A7002A08A600B2
:101A44002908A50008000A128A1583220A128A1599
:101A54000A128A119E270A128A15502D3F308800D7
:101A64007D2D063088007D2D5B3088007D2D4F3024
:101A740088007D2D663088007D2D6D3088007D2D99
:101A84007D3088007D2D073088007D2D7F308800D3
:101A94007D2D6F3088007D2D88017D2D83120313E9
:101AA4004608C000C1014108003A03195A2D7D2D92
:101AB4004008003A0319302D013A0319332D033A33
:101AC4000319362D013A0319392D073A03193C2D10
:101AD400013A03193F2D033A0319422D013A031920
:101AE400452D0F3A0319482D013A03194B2D033A9A
:101AF40003194E2D7D2D080083120313BB01B91F5A
:101B0400842D852D8C2DB809B909B80A0319B90A91
:101B1400BB01BB0AB71F8F2D902D952DB609B709B0
:101B2400B60A0319B70A3608370403199A2D9B2DF0
:101B3400CA2DBA01BA0AA92D01300310B60DB70D8A
:101B4400FF3E031D9F2D0130FF007F08BA07B71F1A
:101B5400AC2DAD2D9E2D37083902031DB32D36084B
:101B64003802031CB62DB72DBD2D3608B802370830
:101B7400031CB903B90201300310B70CB60CFF3EC5
:101B8400031DBE2D0130BA02031DC92DCA2DAD2D72
:101B94003B080319CE2DCF2DD42DB809B909B80AA5
:101BA4000319B90A3908B7003808B60008008312C7
:101BB4000313B1010030F6000030F5000030F400EA
:101BC4001430F3000530FF007F08F00031080A12DA
:101BD4008A1596200A128A15023E84000A128A1572
:101BE40000200A128A15F7000A128A1500200A1228
:101BF4008A15F8000A128A1500200A128A15F900BB
:101C04000A128A1500200A128A15FA000A128A1585
:101C1400A5260A128A15760883120313A8007508EC
:101C2400A7007408A6007308A5003008AC002F08AC
:101C3400AB002E08AA002D08A9000A128A15CF2489
:101C44000A128A158312031328082704260425047C
:101C5400031D2D2E2E2E342E3108D33E84008313E3
:101C64008001800A0130FF007F08B1070330310290
:101C7400031C3D2E3E2EDC2D080083120313521C40
:101C8400442E452E962E5403031D492E4A2E962E7D
:101C94005108FB3E83160313A000FF3003180030E5
:101CA400A100831203134F0883160313A200A30198
:101CB40021082302031D602E200822020318632E2C
:101CC400642E702EFB30FF007F08831203138705F8
:101CD40087160230FF007F08CB009F2E8312031368
:101CE4004F0883160313A000A101831203135108A4
:101CF400053E83160313A200003003180130A3002D
:101D040021082302031D882E2008220203188B2E8B
:101D14008C2E9F2EDF30FF007F088312031387056C
:101D24000715CB01CB0A9F2EFB30FF007F088705E8
:101D3400DF30FF007F088705CB010A128A15B12125
:101D44000A128A150800003083120313A30000301E
:101D5400A2000030A1000030A000760875047404CD
:101D640073040319B62EB72E042FA401A40AC72E98
:101D74000130FB000310F30DF40DF50DF60DFB0B14
:101D8400BC2E0130FF007F08A407F61FCA2ECB2EFD
:101D9400BA2E0130FB000310A00DA10DA20DA30D5E
:101DA400FB0BCD2E76087A02031DE22E750879020C
:101DB400031DE22E74087802031DE22E73087702D5
:101DC400031CE52EE62EF52E7308F7027408031C97
:101DD400740FF8027508031C750FF9027608031CCA
:101DE400760FFA02201401300310F60CF50CF40CF3
:101DF400F30CFF3E031DF62E0130A402031D032F36
:101E0400042FCB2E2308F6002208F5002108F40045
:101E14002008F300080083120313BB01B71F132F1C
:101E2400142F1B2FB609B709B60A0319B70ABB0149
:101E3400BB0AB91F1E2F1F2F282FB809B909B80ACA
:101E44000319B90A0130FF007F08BB06BC01BD01BC
:101E54003608370403192F2F302F672FBA01BA0A17
:101E64003E2F01300310B60DB70DFF3E031D342F76
:101E74000130FF007F08BA07B71F412F422F332FCD
:101E840001300310BC0DBD0DFF3E031D432F370869
:101E94003902031D4F2F36083802031C522F532FCB
:101EA4005A2F3608B8023708031CB903B9023C1488
:101EB40001300310B70CB60CFF3E031D5B2F01303D
:101EC400BA02031D662F672F422F3B0803196B2F9D
:101ED4006C2F712FBC09BD09BC0A0319BD0A3D084A
:101EE400B7003C08B6000800003083160313A300B3
:101EF4000030A2000030A1000030A00083120313C0
:101F040039083804370436040319892F8A2FE72F38
:101F140083160313A401A40A9E2F0130BE000310EC
:101F2400B60DB70DB80DB90DBE0B912F0130FF00E2
:101F34007F0883160313A40783120313B91FA32F67
:101F4400A42F8F2F01308312BE00031083160313B6
:101F5400A00DA10DA20DA30D83120313BE0BA72F79
:101F640039083D02031DC02F38083C02031DC02F51
:101F740037083B02031DC02F36083A02031CC32F47
:101F8400C42FD52F3608BA023708031C370FBB02FB
:101F94003808031C380FBC023908031C390FBD0272
:101FA400831603132014013003108312B90CB80CE8
:101FB400B70CB60CFF3E031DD62F01308316031356
:101FC400A402031DE62FE72FA42F8316031323086F
:101FD40083120313B9008316031322088312031315
:101FE400B80083160313210883120313B700831662
:0C1FF4000313200883120313B60008003A
:102F5E0083120313D4010800013401340A340134FE
:102F6E0083120313B600360893000800831203136E
:102F7E008C1DC22FC32FBD2F8C1108006400800141
:102F8E00840A0406031900340406C62F83120313A1
:102F9E004D1CD22FD32FD52F1F15CD1408008316FD
:102FAE00031391161116111ADD2FDE2FDA2F0800DA
:102FBE008316031311141118E52FE62FE22F831237
:102FCE0003138C1108008316031311151119F02F1A
:102FDE00F12FED2F831203138C1108000A128A159C
:102FEE0040240A168A110A128A15F1200A168A112D
:022FFE000800C9
:02400E003A3F37
:00000001FF
